:100000000C945D000C9485000C9485000C94850084
:100010000C9485000C9485000C9485000C9485004C
:100020000C9485000C9485000C9485000C9485003C
:100030000C9485000C9485000C9485000C9485002C
:100040000C9457040C9485000C94C7040C94A104E0
:100050000C9485000C9485000C9485000C9485000C
:100060000C94F9040C948500000000002400270083
:100070002A0000000000250028002B0004040404CE
:100080000404040402020202020203030303030342
:10009000010204081020408001020408102001021F
:1000A00004081020000000080002010000030407FB
:1000B0000000000000000000180611241FBECFEF52
:1000C000D8E0DEBFCDBF11E0A0E0B1E0E6E7F1E1AE
:1000D00002C005900D92A433B107D9F722E0A4E342
:1000E000B1E001C01D92A63AB207E1F710E0CDE5FC
:1000F000D0E004C02197FE010E948E07CC35D107C5
:10010000C9F70E9455060C94B9080C940000089594
:10011000089590E0FC01EC55FF4F2491FC01E0575D
:10012000FF4F3491FC01E458FF4FE491EE23C9F0F6
:10013000222339F0233001F1A8F4213019F12230C3
:1001400029F1F0E0EE0FFF1FEE58FF4FA591B4919B
:100150008FB7F894EC91611126C030953E233C9303
:100160008FBF08952730A9F02830C9F0243049F70F
:10017000809180008F7D03C0809180008F77809375
:100180008000DFCF84B58F7784BDDBCF84B58F7DD2
:10019000FBCF8091B0008F778093B000D2CF809159
:1001A000B0008F7DF9CF3E2BDACF3FB7F894809126
:1001B0009D0190919E01A0919F01B091A00126B553
:1001C000A89B05C02F3F19F00196A11DB11D3FBF8F
:1001D000BA2FA92F982F8827BC01CD01620F711D5E
:1001E000811D911D42E0660F771F881F991F4A9558
:1001F000D1F70895AF92BF92CF92DF92EF92FF9224
:100200000F931F93CF93DF936C017B018B01040F3E
:10021000151FEB015E01AE18BF08C017D10759F0DA
:100220006991D601ED91FC910190F081E02DC6011C
:100230000995892B79F7C501DF91CF911F910F9116
:10024000FF90EF90DF90CF90BF90AF900895FC01AA
:10025000538D448D252F30E0842F90E0821B930B2B
:10026000541710F0CF96089501970895FC01918DD1
:10027000828D981761F0A28DAE0FBF2FB11D5D96D4
:100280008C91928D9F5F9F73928F90E008958FEF76
:100290009FEF0895FC01918D828D981731F0828D2A
:1002A000E80FF11D858D90E008958FEF9FEF089581
:1002B000FC01918D228D892F90E0805C9F4F821BE5
:1002C00091098F739927089587EF91E00E94580153
:1002D00021E0892B09F420E0822F089580E090E04E
:1002E000892B29F00E94640181110C94000008956B
:1002F000FC01A48DA80FB92FB11DA35ABF4F2C919B
:10030000848D90E001968F739927848FA689B78991
:100310002C93A089B1898C91837080648C93938D88
:10032000848D981306C00288F389E02D80818F7D2B
:1003300080830895EF92FF920F931F93CF93DF93E3
:10034000EC0181E0888F9B8D8C8D98131AC0E88911
:10035000F989808185FF15C09FB7F894EE89FF89E0
:100360006083E889F98980818370806480839FBF7E
:1003700081E090E0DF91CF911F910F91FF90EF907E
:100380000895F62E0B8D10E00F5F1F4F0F7311278E
:10039000E02E8C8D8E110CC00FB607FCFACFE889C9
:1003A000F989808185FFF5CFCE010E947801F1CFD8
:1003B000EB8DEC0FFD2FF11DE35AFF4FF0829FB73D
:1003C000F8940B8FEA89FB8980818062CFCFCF932D
:1003D000DF93EC01888D8823B9F0AA89BB89E8896D
:1003E000F9898C9185FD03C0808186FD0DC00FB613
:1003F00007FCF7CF8C9185FFF2CF808185FFEDCF91
:10040000CE010E947801E9CFDF91CF91089520912C
:100410007501260F3327331F21323105ECF420916B
:10042000CD01FC0190E080E0243069F082E0089585
:10043000A09175012191AC014B5A5E4FA40FB52FCD
:10044000B11D2C930196861798F380917501680F62
:100450006093750180E0089581E008951092CD01C8
:1004600081E08093CC011092A70161E082E10E94BB
:10047000890061E083E10E948900E9EBF0E080817E
:100480008E7F808380818D7F808388E48093B80015
:1004900085E48093BC000895CF93DF9391E090931F
:1004A00054018823B9F0C091B800D091BA0080916E
:1004B000BC008A7B8093BC0060E082E10E948900DE
:1004C00060E083E10E9489000E942E02D093BA006E
:1004D000C093B800DF91CF9108958F929F92AF9211
:1004E000BF92CF92DF92EF92FF920F931F93CF9321
:1004F000DF93D091F601D13208F0D7C0182FC09108
:10050000F5010E94D5006B017C018091CD01811124
:100510006BC082E08093CD011093CC018FEF80936C
:10052000CB011092CA01D093C901A5EDB1E0E9EA6F
:10053000F1E080E0D81391C01092A8018091A80149
:10054000CC0FC82BC093A8018091A701813009F07E
:1005500088C01092A7010E94D5006B017C01809198
:10056000A8018093BB008091CF019091D001A09110
:10057000D101B091D201892B8A2B8B2BA1F00E9443
:10058000D5000091CF011091D0012091D10130917F
:10059000D2016C197D098E099F09061717072807D4
:1005A000390708F442C08091BC0083FDD8CF85ECA8
:1005B0008093BC000E94D5006B017C018091CD012D
:1005C000823009F450C08091CB018F3F09F46FC095
:1005D0008091CB01803209F46CC08091CB018033D3
:1005E00009F469C084E026C08091CF019091D001C8
:1005F000A091D101B091D201892B8A2B8B2B09F4C8
:1006000084CF0E94D5008090CF019090D001A0901F
:10061000D101B090D2016C197D098E099F0986160F
:100620009706A806B90608F070CF8091CE010E9407
:100630004C0285E01092D4011092F6011092D30181
:10064000DF91CF911F910F91FF90EF90DF90CF90AE
:10065000BF90AF909F908F9008959D9191938F5FE1
:1006600069CF85EEA5CF8091CF019091D001A09167
:10067000D101B091D201892B8A2B8B2B09F49ECF0B
:100680000E94D5000091CF011091D0012091D1019D
:100690003091D2016C197D098E099F090617170741
:1006A0002807390708F08ACFC0CF81E0C3CF80E0A8
:1006B000C1CF82E0BFCF83E0BDCFCF93DF93EC010A
:1006C0008B818823A1F0888191E09093D30180935E
:1006D000F5011092D4011092F60181E00E946D02A2
:1006E00091E0811190E0892FDF91CF9108951092D0
:1006F000A6011092A5011092D4011092F6010E9459
:100700002E0287E890E09093A2018093A10188E8EF
:1007100090E09093A4018093A30181E08B83CE01AC
:100720000E945D03982F8111CECFDDCF0895E09117
:10073000A6018091A501E81730F4F0E0EC5CFE4FD3
:10074000808190E008958FEF9FEF08959091A6012A
:100750008091A5012FEF3FEF981748F4E92FF0E0C3
:10076000EC5CFE4F208130E09F5F9093A601C901B1
:1007700008958091A5019091A601891B990B089578
:10078000CF92DF92EF92FF920F931F93CF93DF935D
:100790007C01CB018A012091D301222389F0EB0156
:1007A0006B01C40ED51ECC15DD0569F06991D7012A
:1007B000ED91FC910190F081E02DC7010995F3CFF7
:1007C000642F0E940702C801DF91CF911F910F9102
:1007D000FF90EF90DF90CF900895CF93DF931F921B
:1007E000CDB7DEB769832091D3012223F9F02091A0
:1007F000F601203258F021E030E0FC0133832283FF
:1008000090E080E00F90DF91CF9108958091D40126
:10081000E82FF0E0EB52FE4F998190838F5F809339
:10082000D4018093F60181E090E0ECCF61E0CE014D
:1008300001960E940702F7CF90E080E0089585EDD1
:100840008093BC008091CF019091D001A091D10103
:10085000B091D2010796A11DB11D23E0B695A795D1
:10086000979587952A95D1F72091BC0024FD03C068
:100870001092CD0108954091CF015091D001609127
:10088000D1017091D201452B462B472B69F300977C
:10089000A105B10541F02AE22A95F1F700C00197C0
:1008A000A109B109E1CF8091CE010C944C021F92B5
:1008B0000F920FB60F9211242F933F938F939F9314
:1008C000AF93BF938091990190919A01A0919B0160
:1008D000B0919C013091980123E0230F2D3758F5FA
:1008E0000196A11DB11D20939801809399019093C9
:1008F0009A01A0939B01B0939C0180919D019091DE
:100900009E01A0919F01B091A0010196A11DB11D72
:1009100080939D0190939E01A0939F01B093A001AD
:10092000BF91AF919F918F913F912F910F900FBEEB
:100930000F901F90189526E8230F0296A11DB11D58
:10094000D2CF1F920F920FB60F9211242F933F9385
:100950004F935F936F937F938F939F93AF93BF93C7
:10096000EF93FF9387EF91E00E947801FF91EF9161
:10097000BF91AF919F918F917F916F915F914F91B7
:100980003F912F910F900FBE0F901F9018951F92BF
:100990000F920FB60F9211242F938F939F93EF9383
:1009A000FF93E0910702F09108028081E0910D022F
:1009B000F0910E0282FD1BC09081809110028F5F2A
:1009C0008F7320911102821741F0E0911002F0E044
:1009D000E950FE4F958F80931002FF91EF919F9108
:1009E0008F912F910F900FBE0F901F9018958081BF
:1009F000F4CF1F920F920FB60F9211242F933F93B3
:100A00004F935F936F937F938F939F93AF93BF9316
:100A1000EF93FF938091B900887F803609F44AC034
:100A2000F0F5883209F4A7C018F5803109F49BC0AD
:100A3000B8F4882309F4F9C0883009F494C0FF9110
:100A4000EF91BF91AF919F918F917F916F915F9146
:100A50004F913F912F910F900FBE0F901F901895BF
:100A6000883109F488C0803251F78093CB0114C0DB
:100A7000803409F49DC040F48033B9F38833F9F62B
:100A80008093CB0185ECB0C0803509F485C08835F2
:100A900009F496C0883499F60E941F04D0CF883993
:100AA00009F48CC038F5883729F050F4883611F0F5
:100AB000803729F683E08093CD011092970157C0CB
:100AC000883809F47BC0803919F0803809F0B7CF35
:100AD00080919701803208F071C0E091970181E028
:100AE0008E0F809397018091BB00F0E0E958FE4F94
:100AF00080833DC0803B39F0E0F4803A09F479C04E
:100B0000883A09F09CCF84E08093CD011092760161
:100B100010927501E091A101F091A20109958091D7
:100B2000750181110FC081E080937501109255010C
:100B300009C0803C09F4A6CF883C09F4A3CF883BC8
:100B400009F07DCFE091760181E08E0F80937601F0
:100B5000F0E0EB5AFE4F80818093BB0090917601CC
:100B60008091750129C08091A8018093BB0085EC1C
:100B70008093BC0064CF9091CA018091C9019817FD
:100B800058F5E091CA0181E08E0F8093CA01F0E030
:100B9000E755FE4F8081E9CFE091CA0181E08E0FD9
:100BA0008093CA018091BB00F0E0E755FE4F80833F
:100BB0009091CA018091C9019817C8F285E8D8CFF1
:100BC000E091CA0181E08E0F8093CA018091BB0041
:100BD000F0E0E755FE4F80838091CC0181115CCF1E
:100BE00081E08093A70184EA8093BC001092CD013C
:100BF00026CF85EC8093BC001092CD0180919701A7
:100C0000803230F4E0919701F0E0E958FE4F108215
:100C10006091970170E0E091A301F091A40187E752
:100C200091E00995109297010ACF1092CB0134CF31
:100C3000E7EFF1E01382128288EE93E0A0E0B0E0EB
:100C400084839583A683B7832AE031E031832083B0
:100C500025EC30E03587248724EC30E03787268781
:100C600020EC30E0318B208B21EC30E0338B228B79
:100C700022EC30E0358B248B26EC30E0378B268B52
:100C8000118E128E138E148EE4E9F2E0138212821A
:100C900084839583A683B7838CE191E091838083DD
:100CA0001092A1021092A0020895CF93DF9300D07A
:100CB0001F92CDB7DEB7789484B5826084BD84B5C9
:100CC000816084BD85B5826085BD85B5816085BD47
:100CD00080916E00816080936E00109281008091FF
:100CE0008100826080938100809181008160809387
:100CF0008100809180008160809380008091B100AC
:100D000084608093B1008091B00081608093B000D6
:100D100080917A00846080937A0080917A0082606A
:100D200080937A0080917A00816080937A0080912C
:100D30007A00806880937A001092C100E0910702E7
:100D4000F091080282E08083E0910302F0910402B6
:100D50001082E0910502F09106028FEC80831092E0
:100D60000F02E0910B02F0910C0286E08083E0918B
:100D70000902F0910A02808180618083E09109027A
:100D8000F0910A02808188608083E0910902F091ED
:100D90000A02808180688083E0910902F0910A0252
:100DA00080818F7D808346E050E06AE271E087EFCA
:100DB00091E00E94FA0042E050E061E371E087EFC9
:100DC00091E00E94FA00EDE9F0E02491E9E8F0E01A
:100DD0008491882399F090E0880F991FFC01E859CD
:100DE000FF4FA591B491FC01EE58FF4F859194916E
:100DF0008FB7F894EC91E22BEC938FBF60E08DE01D
:100E00000E9489008091A0029091A102009711F0A8
:100E10000E94300886E090E00E9494078C0180E6F2
:100E2000D8018C9384E992E012969C938E9311974B
:100E300013961C92139780E290E015969C938E93E4
:100E400014971093A1020093A0021092A601109291
:100E5000A5011092D4011092F6010E942E0287E89B
:100E600090E09093A2018093A10188E890E0909394
:100E7000A4018093A30181E0F8018383C8010E944B
:100E80005D0310E20CE080E4F82E9EE7E92E20E9F5
:100E9000B22E38E4A32E40E0C42E40E0D42E992494
:100EA000939413B913B91092B9000093B800F98262
:100EB000EA82BB82E091A002F091A1028481958137
:100EC000039710F18181928120819092D301209328
:100ED000F5011092D4011092F601DC01ED91FC9124
:100EE0000280F381E02D43E050E0BE016F5F7F4F51
:100EF0000995039749F481E00E946D02811104C0B5
:100F00001092B900A092B800C114D10451F20E940D
:100F10006401882331F20E940000C3CFEE0FFF1F4F
:100F20000590F491E02D09940F931F93CF93DF93D5
:100F30008230910510F482E090E0E091A402F091FB
:100F4000A50230E020E0B0E0A0E0309799F4211550
:100F5000310509F44AC0281B390B24303105D8F576
:100F60008A819B816115710589F1FB0193838283DD
:100F7000FE0111C040815181028113814817590738
:100F8000E0F04817590799F4109761F012960C9306
:100F9000129713961C933296CF01DF91CF911F9138
:100FA0000F9108950093A4021093A502F4CF211588
:100FB000310551F04217530738F0A901DB019A01BE
:100FC000BD01DF01F801C1CFEF01F9CF9093A50278
:100FD0008093A402CDCFFE01E20FF31F8193919382
:100FE0002250310939832883D7CF2091A202309132
:100FF000A302232B41F4209102013091030130938D
:10100000A3022093A2022091000130910101211539
:10101000310541F42DB73EB74091040150910501CF
:10102000241B350BE091A202F091A302E217F30713
:10103000A0F42E1B3F0B2817390778F0AC014E5F48
:101040005F4F2417350748F04E0F5F1F5093A302E0
:101050004093A202819391939FCFF0E0E0E09CCF78
:10106000CF93DF930097E9F0FC013297138212824D
:10107000A091A402B091A502ED0130E020E010970C
:10108000A1F420813181820F931F2091A20230911F
:10109000A3022817390709F061C0F093A302E09377
:1010A000A202DF91CF910895EA01CE17DF07E8F59C
:1010B0004A815B819E0141155105B1F7E901FB832E
:1010C000EA8349915991C40FD51FEC17FD0761F4CC
:1010D000808191810296840F951FE901998388830D
:1010E000828193819B838A83F0E0E0E012968D9168
:1010F0009C9113970097B9F52D913C911197CD01D3
:101100000296820F931F2091A2023091A30228170A
:10111000390739F6309751F51092A5021092A402C2
:10112000B093A302A093A202BCCFD383C283408119
:101130005181840F951FC817D90761F44E5F5F4F27
:1011400088819981480F591F518340838A819B81EF
:10115000938382832115310509F0B0CFF093A50266
:10116000E093A4029ECFFD01DC01C0CF1382128266
:06117000D7CFF894FFCF79
:101176000000A6028000000000009A01FA00270184
:10118600E701580136014A0100000000ED03C003E3
:101196001C049603B903A603970348656C6C6F217C
:0411A600000D0A002E
:00000001FF
