S01600004465636F64657253747564656E742E7372656371
S11300000C9472000C949A000C949A000C949A002C
S11300100C949A000C949A000C949A000C949A00F4
S11300200C949A000C949A000C949A000C94130A61
S11300300C949A000C949A000C949A000C949A00D4
S11300400C94B7070C949A000C949E060C94D0065A
S11300500C949A000C949A000C949A000C949A00B4
S11300600C949A000C949A00B504D104D104AD0404
S1130070D104D104A604BA04D104D104D104D10416
S1130080D104A904BF04D104D104B004C804A30456
S11300900000000800020100000304070000000043
S11300A0000000000102040810204080010204083E
S11300B010200102040810200404040404040404AD
S11300C0020202020202030303030303000000000E
S11300D0250028002B0000000000240027002A002F
S11300E05005000711241FBECFEFD8E0DEBFCDBFFF
S11300F011E0A0E0B1E0E6E4FCE102C005900D925D
S1130100AE31B107D9F722E0AEE1B1E001C01D92F2
S1130110A332B207E1F710E0C2E7D0E004C02197B0
S1130120FE010E94D30BC037D107C9F70E942E07E6
S11301300C94210E0C940000CF93DF93CDB7DEB75F
S11301408DE0809330018CE0809331018BE08093CB
S1130150320187E08093330186E08093340185E0A7
S11301608093350181E080932D0110922E0110922D
S11301702F0110922A0181E080932B0110922C010F
S1130180109227011092280181E08093290181E0D7
S113019080932401109225011092260110922101CE
S11301A081E08093220182E08093230110921E015A
S11301B010921F0181E08093200181E08093390136
S11301C00000DF91CF910895CF93DF9300D0CDB796
S11301D0DEB719828981823008F052C01A828A817E
S11301E0833008F041C08981282F30E08A81482F6C
S11301F050E0C901880F991F820F931F840F951F28
S1130200805D9E4FFC01808161E00E948E08809198
S11302103B01282F30E08A81482F50E0C901880F24
S1130220991F880F991F880F991F820F931F840F9E
S1130230951F8C5D9E4FFC0160818981282F30E0E1
S11302408A81482F50E0C901880F991F820F931F9C
S1130250840F951F805D9E4FFC0180810E94CA0817
S11302608A818F5F8A83BBCF8981882F90E08A5CE3
S11302709E4F22E0FC01208389818F5F8983AACF6E
S113028000000F900F90DF91CF910895CF93DF93EB
S1130290CDB7DEB70E949C000E94E40088EE8093F4
S11302A0060181E08093380181E080933A012CE2D9
S11302B040E855E260E070E082E591E00E94390692
S11302C044EF51E060E070E082E591E00E9497071E
S11302D00000DF91CF910895CF93DF9300D01F9258
S11302E0CDB7DEB719828981823018F51B821A8254
S11302F08A819B810397CCF48981282F30E0C9013E
S1130300880F991F820F931F2A813B81820F931FAD
S1130310805D9E4FFC01808160E00E94CA088A8152
S11303209B8101969B838A83E3CF89818F5F898335
S1130330DACF00000F900F900F90DF91CF910895C6
S1130340CF93DF93CDB7DEB780913801882311F4C2
S113035081E001C080E08093380110923E01109248
S11303603F010E946C0180913801882311F00E94A2
S1130370E4000000DF91CF910895CF93DF931F92A3
S1130380CDB7DEB790913A0181E0992309F480E07A
S113039080933A0119828981823060F48981882F9F
S11303A090E0845C9E4F22E0FC01208389818F5F72
S11303B08983F1CF00000F90DF91CF910895CF93FF
S11303C0DF93CDB7DEB70E9401089B01AC01809199
S11303D0440190914501A0914601B0914701281B29
S11303E0390B4A0B5B0B80910601882F90E0A0E04B
S11303F0B0E061E0281739074A075B0708F460E0BA
S1130400662309F44EC00E940108DC01CB018093ED
S1130410440190934501A0934601B0934701809114
S11304203E01282F30E080913F01482F50E0C90160
S1130430880F991F820F931F840F951F805D9E4F15
S1130440FC01808160E00E94CA0880913F018F5FB7
S113045080933F0180913F01833068F010923F0107
S113046080913E018F5F80933E0180913E018230F6
S113047010F010923E0180913E01282F30E08091CF
S11304803F01482F50E0C901880F991F820F931F25
S1130490840F951F805D9E4FFC01808161E00E9466
S11304A0CA080000DF91CF910895CF93DF9300D065
S11304B000D0CDB7DEB78B836C838091380188235D
S11304C009F489C08B81882F90E08A5C9E4F2C812F
S11304D0FC0120831A82198289819A8103970CF086
S11304E07BC080913B01482F50E08C81882F90E0A5
S11304F09C01220F331F280F391FCA01880F991F2F
S1130500880F991F880F991F840F951F280F391F73
S113051089819A81820F931F825E9E4FFC018081A4
S1130520813009F180913B01482F50E08C81882F64
S113053090E09C01220F331F280F391FCA01880F36
S1130540991F880F991F880F991F840F951F280FD3
S1130550391F89819A81820F931F825E9E4FFC010D
S11305608081882391F580913B01482F50E08C8154
S1130570882F90E09C01220F331F280F391FCA01D6
S1130580880F991F880F991F880F991F840F951F33
S1130590280F391F89819A81820F931F825E9E4F93
S11305A0FC0140818B81282F30E0C901880F991FFD
S11305B0820F931F29813A81820F931F805D9E4F82
S11305C0FC018081642F0E94CA0889819A81019666
S11305D09A83898381CF00000F900F900F900F9022
S11305E0DF91CF910895EF92FF920F931F93CF93D2
S11305F0DF9300D000D000D0CDB7DEB780913801B2
S1130600882309F486C00E940108DC01CB018B8396
S11306109C83AD83BE832B813C814D815E8180911F
S1130620400190914101A0914201B09143017901AF
S11306308A01E81AF90A0A0B1B0BD801C701843F87
S11306409140A105B10508F465C08B819C81AD8101
S1130650BE818093400190934101A0934201B093E5
S1130660430119828981823008F04AC01A828A8142
S1130670833008F041C080913B01482F50E08981CC
S1130680882F90E08A5C9E4FFC018081882F90E047
S11306902A81622F70E09C01220F331F280F391F1B
S11306A0CA01880F991F880F991F880F991F840FFB
S11306B0951F820F931F860F971F825E9E4FFC012A
S11306C080818230A9F4609139018981282F30E03A
S11306D08A81482F50E0C901880F991F820F931F08
S11306E0840F951F805D9E4FFC0180810E94CA0883
S11306F08A818F5F8A83BBCF89818F5F8983B2CFE1
S11307009091390181E0913009F480E080933901BE
S113071001C0000026960FB6F894DEBF0FBECDBF11
S1130720DF91CF911F910F91FF90EF900895CF9398
S1130730DF9300D000D01F92CDB7DEB70E9401082E
S1130740DC01CB018A839B83AC83BD838091480108
S113075090914901CC01A0E0B0E02A813B814C8119
S11307605D81281B390B4A0B5B0B8091070190912B
S11307700801092E000CAA0BBB0B281739074A07DE
S11307805B070CF48BC08A819B8190934901809311
S1130790480119828981823008F080C08981882FBC
S11307A090E0845C9E4FFC018081823009F044C05B
S11307B08981882F90E02981222F30E0265B3E4FEB
S11307C0F90120812E5F865B9E4FFC012083898185
S11307D0882F90E0865B9E4FFC018081853BA8F0CA
S11307E080913A01813041F48981882F90E0845CC2
S11307F09E4FFC0110824EC08981882F90E0845C5A
S11308009E4F23E0FC01208345C08981882F90E01E
S1130810865B9E4FFC018081482F50E08981282F00
S113082030E0C901880F991F820F931F845B9E4F8C
S1130830BA010E94260B2EC08981882F90E0845C27
S11308409E4FFC018081833029F58981882F90E0B7
S11308502981222F30E0265B3E4FF901208122506E
S1130860865B9E4FFC0120838981882F90E0865B04
S11308709E4FFC018081482F50E08981282F30E071
S1130880C901880F991F820F931F845B9E4FBA0181
S11308900E94260B89818F5F89837CCF00000F9093
S11308A00F900F900F900F90DF91CF910895AF921A
S11308B0BF92CF92DF92EF92FF920F931F93CF9349
S11308C0DF93CDB7DEB728970FB6F894DEBF0FBE1F
S11308D0CDBF82E591E00E945D0521E0181619065E
S11308E00CF020E0222309F460C0CE01039662E5F7
S11308F071E00E949D07CE01039660E070E00E94C3
S1130900010AFC0180818983CE01039661E070E0D5
S11309100E94010AFC01808181538A838981882F86
S113092090E0092E000CAA0BBB0B41E450E023E13C
S113093030E0841B950B2817390798F18C5C9F4F86
S1130940FC010C94D30B0E94A0012BC00E94BD019A
S113095028C081E080933B0124C010923B0121C058
S113096060E08A810E9455021CC061E08A810E9475
S1130970550217C062E08A810E94550212C08A8122
S1130980882F90E0845C9E4F22E0FC01208309C004
S11309908A81882F90E0845C9E4F23E0FC012083B1
S11309A00000CE0103960E943A0980913801882301
S11309B011F40E94DF010E94F3020E94970382E077
S11309C00E944808092E000CAA0BBB0B1F921F9211
S11309D021E02F9324EF2F930F2EF5E0AF2EB12CAF
S11309E0C12CD12CF02DEE24EA9413E0F12E00E07A
S11309F010E020E030E0A901BC01CD010E94F9081B
S1130A000F900F900F900F90DC01CB019093080191
S1130A1080930701000028960FB6F894DEBF0FBE3E
S1130A20CDBFDF91CF911F910F91FF90EF90DF9099
S1130A30CF90BF90AF900895EF92FF920F931F93C2
S1130A40CF93DF9300D000D0CDB7DEB79A838983EC
S1130A507C836B8389819A810197B1F48B819C811A
S1130A60019691F48CE491E001E010E07C010F3FE9
S1130A708FEF180749F0C7010E94D40A23E0E20E61
S1130A80F11C01501109F3CF00000F900F900F904B
S1130A900F90DF91CF911F910F91FF90EF900895E8
S1130AA0CF93DF93CDB7DEB76FEF7FEF81E090E0B8
S1130AB00E941C05DF91CF910895FC01918D228D38
S1130AC0892F90E0805C9F4F821B91098F73992737
S1130AD00895FC01918D828D981731F0828DE80F75
S1130AE0F11D858D90E008958FEF9FEF0895FC012F
S1130AF0918D828D981761F0828DDF01A80FB11D51
S1130B005D968C91928D9F5F9F73928F90E0089574
S1130B108FEF9FEF0895FC01538D448D252F30E016
S1130B20842F90E0821B930B541710F0CF960895F6
S1130B300197089586EF96E0892B49F080E090E0D4
S1130B40892B29F00E94F60681110C940000089567
S1130B50FC01848DDF01A80FB11DA35ABF4F2C9156
S1130B60848D90E001968F739927848FA689B78925
S1130B702C93A089B1898C91837080648C93938D1C
S1130B80848D981306C00288F389E02D80818F7DBF
S1130B9080830895EF92FF920F931F93CF93DF9377
S1130BA0EC0181E0888F9B8D8C8D981305C0E889BA
S1130BB0F989808185FD26C0F62E0B8D10E00F5F2C
S1130BC01F4F0F731127E02E8C8DE8120CC00FB647
S1130BD007FCFACFE889F989808185FFF5CFCE013A
S1130BE00E94A805F1CF8B8DFE01E80FF11DE35A99
S1130BF0FF4FF0829FB7F8940B8FEA89FB898081BD
S1130C0080620AC09FB7F894EE89FF896083E889FF
S1130C10F98980818370806480839FBF81E090E044
S1130C20DF91CF911F910F91FF90EF900895CF9393
S1130C30DF93EC01888D8823C9F0EA89FB898081E0
S1130C4085FD05C0A889B9898C9186FD0FC00FB6B2
S1130C5007FCF5CF808185FFF2CFA889B9898C91F3
S1130C6085FFEDCFCE010E94A805E7CFDF91CF919C
S1130C700895CF92DF92EF92FF921F93CF93DF9369
S1130C80EC016A017B01122FE889F98982E08083F3
S1130C904115514E61057105B1F060E079E08DE3D5
S1130CA090E0A70196010E94920BDA01C901019715
S1130CB0A109B109B695A795979587959C0121152A
S1130CC080E13807A8F0E889F989108260E874E8BF
S1130CD08EE190E0A70196010E94920BDA01C9010E
S1130CE00197A109B109B695A795979587959C0198
S1130CF0EC85FD853083EE85FF852083188EEC8995
S1130D00FD891083EA89FB89808180618083EA8977
S1130D10FB89808188608083EA89FB89808180687F
S1130D208083EA89FB8980818F7D8083DF91CF91E5
S1130D301F91FF90EF90DF90CF9008951F920F9234
S1130D400FB60F9211242F938F939F93EF93FF93DA
S1130D50E0916201F09163018081E0916801F0917A
S1130D60690182FD12C0908180916B018F5F8F7346
S1130D7020916C01821751F0E0916B01F0E0EE5A82
S1130D80FE4F958F80936B0101C08081FF91EF919D
S1130D909F918F912F910F900FBE0F901F901895D8
S1130DA01F920F920FB60F9211242F933F934F93DC
S1130DB05F936F937F938F939F93AF93BF93EF93BF
S1130DC0FF9382E591E00E94A805FF91EF91BF9106
S1130DD0AF919F918F917F916F915F914F913F91CF
S1130DE02F910F900FBE0F901F90189582E591E000
S1130DF00E945D0521E0892B09F420E0822F0895EB
S1130E00E2E5F1E01382128288EE93E0A0E0B0E024
S1130E1084839583A683B7838EE091E09183808356
S1130E2085EC90E09587848784EC90E097878687AB
S1130E3080EC90E0918B808B81EC90E0938B828BA3
S1130E4082EC90E0958B848B86EC90E0978B868B7C
S1130E50118E128E138E148E089508950E940D081B
S1130E600E942D070E944601CAE9D5E00E9457045A
S1130E702097E1F30E949A05F9CFCF92DF92EF9287
S1130E80FF920F931F93CF93DF936C017A018B0131
S1130E90C0E0D0E0CE15DF0581F0D8016D918D0161
S1130EA0D601ED91FC910190F081E02DC6010995E8
S1130EB0892B11F02196EECF7E01C701DF91CF91EE
S1130EC01F910F91FF90EF90DF90CF9008950F93B3
S1130ED01F93CF93DF93EC010E9401086887798701
S1130EE08A879B87E881F9810284F385E02DCE010E
S1130EF0099597FF17C00E940108088519852A855E
S1130F003B85DC01CB01801B910BA20BB30B0C8145
S1130F101D812E813F8180179107A207B30710F32B
S1130F208FEF9FEFDF91CF911F910F910895FC01F7
S1130F30448355836683778308950F931F93CF93D8
S1130F40DF93EC018B016CE171E00E94AB09C801F5
S1130F500E94670797FD05C0682FCE010E94EE0925
S1130F60F6CFCE01DF91CF911F910F9108951F927B
S1130F700F920FB60F9211242F933F938F939F9349
S1130F80AF93BF938091F0019091F101A091F20190
S1130F90B091F3013091EF0123E0230F2D3720F4BA
S1130FA00196A11DB11D05C026E8230F0296A11DBF
S1130FB0B11D2093EF018093F0019093F101A09370
S1130FC0F201B093F3018091F4019091F501A091A5
S1130FD0F601B091F7010196A11DB11D8093F401B2
S1130FE09093F501A093F601B093F701BF91AF91EF
S1130FF09F918F913F912F910F900FBE0F901F9053
S113100018952FB7F8946091F0017091F1018091D7
S1131010F2019091F3012FBF0895789484B5826012
S113102084BD84B5816084BD85B5826085BD85B588
S1131030816085BDEEE6F0E0808181608083E1E837
S1131040F0E010828081826080838081816080836F
S1131050E0E8F0E0808181608083E1EBF0E0808172
S113106084608083E0EBF0E0808181608083EAE744
S1131070F0E08081846080838081826080838081CD
S1131080816080838081806880831092C10008958C
S11310908E3008F08E502091090190E4299F900130
S11310A011248770822B80937C0080917A00806465
S11310B080937A0080917A0086FDFCCF809178003D
S11310C02091790090E0922B0895833081F028F4E8
S11310D0813099F08230A1F008958730A9F08830EA
S11310E0B9F08430D1F4809180008F7D03C0809169
S11310F080008F7780938000089584B58F7702C035
S113110084B58F7D84BD08958091B0008F7703C02E
S11311108091B0008F7D8093B0000895CF93DF93CA
S113112090E0FC01EC55FF4F2491FC01E854FF4F83
S11311308491882361F190E0880F991FFC01EA52A1
S1131140FF4FC591D491FC01E453FF4FA591B49195
S1131150611109C09FB7F894888120958223888300
S1131160EC912E230BC0623061F49FB7F894888110
S1131170322F309583238883EC912E2B2C939FBFA1
S113118006C08FB7F894E8812E2B28838FBFDF9198
S1131190CF9108951F93CF93DF93282F30E0F90167
S11311A0E057FF4F8491F901EC55FF4FD491F901B9
S11311B0E854FF4FC491CC23C1F0162F81110E9433
S11311C06508EC2FF0E0EE0FFF1FE453FF4FA591ED
S11311D0B4919FB7F894111104C08C91D095D82381
S11311E002C0EC91DE2BDC939FBFDF91CF911F9166
S11311F008954F925F926F927F92AF92BF92CF9277
S1131200DF92EF92FF920F931F93CF93DF93CDB7AB
S1131210DEB729013A019B01AC01241935094609BD
S1131220570989899A89AB89BC89BC01CD016A199E
S11312307B098C099D090E94820BA801970124193E
S11312403509460957090E94B40BCA01B9016A0D50
S11312507B1D8C1D9D1DDF91CF911F910F91FF90E0
S1131260EF90DF90CF90BF90AF907F906F905F90A2
S11312704F900895FC0180819181009711F00C94A6
S11312808B0C0895CF93DF93EC01888199810097AB
S113129011F00E948B0C198218821D821C821B8201
S11312A01A82DF91CF9108950F931F93CF93DF9309
S11312B0EC018B016F5F7F4F888199810E94140D2F
S11312C0009731F0998388831B830A8381E001C0EE
S11312D080E0DF91CF911F910F910895CF93DF9319
S11312E0EC0188819981892B29F08A819B81861759
S11312F0970760F4CE010E945409882341F08C8141
S11313009D81892B19F4E881F981108281E0DF91B4
S1131310CF910895EF92FF920F931F93CF93DF9392
S1131320EC017B018A01BA010E946E09811104C09B
S1131330CE010E94420907C01D830C83B701888136
S113134099810E94E30DCE01DF91CF911F910F91FE
S1131350FF90EF900895FC01118210821382128293
S1131360158214826115710551F0FB010190002072
S1131370E9F73197AF01461B570B0C948A0908957E
S1131380EF92FF920F931F93CF93DF936115710533
S113139011F480E01CC041155105C1F07B01EC0142
S11313A08C819D818A01080F191FB801CE010E940A
S11313B06E09882371F3288139818C819D81B7015D
S11313C0820F931F0E94E30D1D830C8381E0DF9144
S11313D0CF911F910F91FF90EF900895CF93DF93DA
S11313E000D0CDB7DEB769831A8241E050E0BE0178
S11313F06F5F7F4F0E94C0090F900F90DF91CF91D4
S11314000895FC01248135816217730720F48081DB
S11314109181009729F41092F80188EF91E00895E2
S1131420860F971F08951F920F920FB60F921124E3
S11314302F933F934F935F936F937F938F939F93D8
S1131440AF93BF93EF93FF938091FA0187FF05C099
S113145010928500109284001BC02091FA01022E84
S1131460000C330B8091F90190E02817390784F4BC
S11314708091FA01082E000C990BFC01EE0FFF1F5E
S11314808E0F9F1FFC01E550FE4F808186FD15C025
S11314908091FA018F5F8093FA012091FA01022E64
S11314A0000C330B8091F90190E028173907C4F43C
S11314B08091FA018C3064F113C08091FA01082EF6
S11314C0000C990BFC01EE0FFF1F8E0F9F1FFC01F8
S11314D0E550FE4F808160E08F730E94CA08D8CF28
S11314E08091840090918500049680349C4918F47E
S11314F080E49CE905C08091840090918500049665
S113150090938900809388008FEF8093FA013BC009
S113151020918400309185008091FA01082E000CFE
S1131520990BFC01EE0FFF1F8E0F9F1FFC01E5506E
S1131530FE4F81819281820F931F90938900809343
S113154088008091FA01082E000C990BFC01EE0F23
S1131550FF1F8E0F9F1FFC01E550FE4F808186FF09
S113156012C08091FA01082E000C990BFC01EE0FB9
S1131570FF1F8E0F9F1FFC01E550FE4F808161E02D
S11315808F730E94CA08FF91EF91BF91AF919F9111
S11315908F917F916F915F914F913F912F910F9018
S11315A00FBE0F901F901895FC019091F9019C308B
S11315B0A0F481E0890F8093F9019083892F90E052
S11315C0FC01EE0FFF1F8E0F9F1FFC01E550FE4F25
S11315D088EB9BE09283818308958FEF8083089545
S11315E0FC0190819C3088F5818128E830E0281B3B
S11315F0310987FD3395220F331F220F331F6217E2
S1131600730784F0828148E552E0481B510987FD45
S11316105395440F551F440F551F9B0146175707F9
S11316200CF49A0122503109220F331F4FB7F8945A
S1131630892F90E0FC01EE0FFF1F8E0F9F1FFC010E
S1131640E550FE4F328321834FBF0895AF92BF927E
S1131650CF92DF92EF92FF920F931F93CF93DF937A
S1131660EC01603282E078070CF03FC077FD06C0E1
S1131670653B71052CF064EB70E002C060E070E043
S1131680898128E830E05901A81AB10887FDB3948C
S1131690AA0CBB1CAA0CBB1C0B2C000CCC08DD0830
S11316A0072E000C880B990B2A8108E512E0021B17
S11316B0110927FD1395000F111F000F111F012E93
S11316C0000C220B330B3F932F931F930F9314EBB8
S11316D0E12EF12C00E010E020E030E0A9010E94AE
S11316E0F9080F900F900F900F90CE01DF91CF91DA
S11316F01F910F91FF90EF90DF90CF90BF90AF902C
S11317000C94F00ADB018F939F930E94D90BBF9135
S1131710AF91A29F800D911DA39F900DB29F900D3C
S113172011240895A1E21A2EAA1BBB1BFD010DC0B2
S1131730AA1FBB1FEE1FFF1FA217B307E407F5077D
S113174020F0A21BB30BE40BF50B661F771F881F59
S1131750991F1A9469F760957095809590959B01EF
S1131760AC01BD01CF010895052E97FB1EF4009432
S11317700E94CB0B57FD07D00E94920B07FC03D0AD
S11317804EF40C94CB0B50954095309521953F4FDA
S11317904F4F5F4F089590958095709561957F4F59
S11317A08F4F9F4F0895EE0FFF1F0590F491E02D8A
S11317B009940E94E40BA59F900DB49F900DA49FE3
S11317C0800D911D11240895A29FB001B39FC00103
S11317D0A39F700D811D1124911DB29F700D811D59
S11317E01124911D08950F931F93CF93DF9382309B
S11317F0910510F482E090E0E0912102F091220240
S113180020E030E0A0E0B0E0309719F14081518150
S11318100281138148175907C8F08417950769F4A2
S1131820109731F012960C93129713961C9327C0BD
S1131830009321021093220222C02115310519F0D0
S11318404217530718F49A01BD01EF01DF01F801B3
S1131850DBCF21153105F9F0281B390B2430310574
S113186080F48A819B816115710521F0FB019383CA
S1131870828304C09093220280932102FE01329657
S113188044C0FE01E20FF31F81939193225031096A
S1131890398328833AC020911F0230912002232BE0
S11318A041F42091020130910301309320022093EE
S11318B01F0220910001309101012115310541F4ED
S11318C02DB73EB74091040150910501241B350BFF
S11318D0E0911F02F0912002E217F307A0F42E1BFF
S11318E03F0B2817390778F0AC014E5F5F4F241780
S11318F0350748F04E0F5F1F5093200240931F029C
S11319008193919302C0E0E0F0E0CF01DF91CF91A9
S11319101F910F910895CF93DF93009709F481C02D
S1131920FC01329713821282A0912102B09122020B
S1131930109781F420813181820F931F20911F021F
S1131940309120022817390751F5F0932002E093D3
S11319501F0267C0ED0120E030E0CE17DF0740F43E
S11319604A815B819E0141155105F1F0EA01F5CFF1
S1131970D383C28340815181840F951FC817D9072F
S113198059F488819981840F951F029691838083ED
S11319908A819B81938382832115310529F4F093F5
S11319A02202E09321023DC0E901FB83EA834991CD
S11319B05991C40FD51FEC17FD0761F48081918103
S11319C0840F951F0296E90199838883828193810C
S11319D09B838A83E0E0F0E012968D919C911397AB
S11319E0009719F0FD01DC01F7CF8D919C911197BF
S11319F09D012E5F3F4F820F931F20911F02309154
S1131A0020022817390769F4309729F4109222022A
S1131A101092210202C013821282B0932002A0937A
S1131A201F02DF91CF910895A0E0B0E0EAE1FDE06C
S1131A300C94EE0DEC01009721F4CB010E94F30B02
S1131A40B4C0FC01E60FF71F9C0122503109E217D4
S1131A50F30708F4A8C0D9010D911C91119706173A
S1131A601707B0F00530110508F49BC0C8010497AE
S1131A708617970708F495C002501109061B170B27
S1131A80019311936D937C93CF010E948B0C89C0B9
S1131A905B01A01AB10A4C01800E911EA091210293
S1131AA0B0912202612C712CE12CF12C109709F4D5
S1131AB046C08D919C911197A815B905B1F56C019B
S1131AC042E0C40ED11CCA14DB0478F14C018A181C
S1131AD09B08640142E0C40ED11C1296BC9012977C
S1131AE01396AC91B5E0CB16D10440F0B282A38337
S1131AF091828082D9016D937C9309C00E5F1F4F40
S1131B00800F911FF90191838083EB2DFA2FE1144B
S1131B10F10431F0D7011396FC93EE93129741C070
S1131B20F0932202E09321023CC06816790608F47F
S1131B303C017D0112960D90BC91A02DB7CF8091F0
S1131B401F029091200288169906E1F46616770622
S1131B50C8F48091000190910101009741F48DB780
S1131B609EB74091040150910501841B950BE81721
S1131B70F907C8F4F0932002E0931F02F90171837E
S1131B8060830FC0CB010E94F30B7C01009759F0D6
S1131B90A801BE010E94DA0DCE010E948B0CC70180
S1131BA004C0CE0102C080E090E0CDB7DEB7EEE025
S1131BB00C940A0EFB01DC0102C001900D9241500D
S1131BC05040D8F70895FB01DC0101900D920020EC
S1131BD0E1F708952F923F924F925F926F927F9216
S1131BE08F929F92AF92BF92CF92DF92EF92FF9229
S1131BF00F931F93CF93DF93CDB7DEB7CA1BDB0BD5
S1131C000FB6F894DEBF0FBECDBF09942A88398879
S1131C1048885F846E847D848C849B84AA84B98480
S1131C20C884DF80EE80FD800C811B81AA81B9818C
S1131C30CE0FD11D0FB6F894DEBF0FBECDBFED01A0
S1091C400895F894FFCFA3
S1131C46000023022000FAC8000100000000CA05B3
S1111C563D078B0517065D057705690500003F
S9030000FC
