:100000000EC028C027C026C025C024C023C022C0DF
:1000100021C020C020C01EC01DC01CC01BC0112498
:100020001FBECFE5D1E0DEBFCDBF10E0A0E6B0E05F
:10003000E2E1F1E002C005900D92A236B107D9F7D6
:1000400020E0A2E6B0E001C01D92A536B207E1F7BC
:100050002BD05DC0D5CF1F920F920FB60F921124F7
:100060002F933F938F939F93209160003091610075
:100070008091620090916300019690936300809359
:1000800062008217930738F081E080936400109239
:100090006300109262009F918F913F912F910F907A
:1000A0000FBE0F901F90189587B3836087BBBA98D7
:1000B000C29A88B391E0892788BB8AB582608ABDDD
:1000C0008CE789BD89B7806189BF83B7836083BFAF
:1000D000789444EF51E062E370E021E092E0B2995D
:1000E00011C0709361006093600080916400882368
:1000F000B1F388B3822788BB88B3892788BB109265
:100100006400EDCF5093610040936000EECFF8940F
:02011000FFCF1F
:02011200F401F6
:00000001FF
