:100000000C945D000C9485000C9485000C94850084
:100010000C9485000C9485000C9485000C9485004C
:100020000C9485000C9485000C9485000C9485003C
:100030000C9485000C9485000C9485000C9485002C
:100040000C9406040C9485000C9476040C945004D3
:100050000C9485000C9485000C9485000C9485000C
:100060000C9485000C94850000000008000201003B
:100070000003040700000000000000000000000072
:10008000250028002B0000000000240027002A0083
:10009000010204081020408001020408102001021F
:1000A00004081020040404040404040402020202EC
:1000B0000202030303030303A80411241FBECFEFAE
:1000C000D8E0DEBFCDBF11E0A0E0B1E0EEEFFEE092
:1000D00002C005900D92A635B107D9F722E0A6E53A
:1000E000B1E001C01D92A832B207E1F710E0CDE502
:1000F000D0E004C02197FE010E947707CC35D107DC
:10010000C9F70E9439050C947D070C94000090E01B
:10011000FC01E057FF4F24918C559F4FFC018491C7
:10012000882399F090E0880F991FFC01EA57FF4F50
:10013000A591B491FC01E458FF4F859194918FB73C
:10014000F894EC91E22BEC938FBF089590E0FC01C2
:10015000E859FF4F2491FC01E057FF4F3491FC0117
:10016000EC55FF4FE491EE23C9F0222339F0233000
:1001700001F1A8F4213019F1223029F1F0E0EE0F5D
:10018000FF1FE458FF4FA591B4918FB7F894EC91FD
:10019000611126C030953E233C938FBF08952730D0
:1001A000A9F02830C9F0243049F7809180008F7D74
:1001B00003C0809180008F7780938000DFCF84B56B
:1001C0008F7784BDDBCF84B58F7DFBCF8091B0006E
:1001D0008F778093B000D2CF8091B0008F7DF9CF20
:1001E0003E2BDACF61E080911B020C94A6003FB752
:1001F000F89480915D0190915E01A0915F01B091B2
:10020000600126B5A89B05C02F3F19F00196A11DDE
:10021000B11D3FBFBA2FA92F982F8827BC01CD0150
:10022000620F711D811D911D42E0660F771F881FAF
:10023000991F4A95D1F70895AF92BF92CF92DF925E
:10024000EF92FF920F931F93CF93DF936C017B018B
:100250008B01040F151FEB015E01AE18BF08C0171C
:10026000D10759F06991D601ED91FC910190F0818F
:10027000E02DC6010995892B79F7C501DF91CF9152
:100280001F910F91FF90EF90DF90CF90BF90AF90B4
:100290000895FC01538D448D252F30E0842F90E08C
:1002A000821B930B541710F0CF9608950197089571
:1002B000FC01918D828D981761F0A28DAE0FBF2F3A
:1002C000B11D5D968C91928D9F5F9F73928F90E090
:1002D00008958FEF9FEF0895FC01918D828D9817FF
:1002E00031F0828DE80FF11D858D90E008958FEF3C
:1002F0009FEF0895FC01918D228D892F90E0805C05
:100300009F4F821B91098F73992708958CE791E085
:100310000E947A0121E0892B09F420E0822F0895C0
:1003200080E090E0892B29F00E94860181110C94D5
:1003300000000895FC01A48DA80FB92FB11DA35A88
:10034000BF4F2C91848D90E001968F739927848FF5
:10035000A689B7892C93A089B1898C918370806418
:100360008C93938D848D981306C00288F389E02DB9
:1003700080818F7D80830895EF92FF920F931F936A
:10038000CF93DF93EC0181E0888F9B8D8C8D981348
:100390001AC0E889F989808185FF15C09FB7F89454
:1003A000EE89FF896083E889F989808183708064A0
:1003B00080839FBF81E090E0DF91CF911F910F91EB
:1003C000FF90EF900895F62E0B8D10E00F5F1F4FFA
:1003D0000F731127E02E8C8D8E110CC00FB607FC09
:1003E000FACFE889F989808185FFF5CFCE010E9497
:1003F0009A01F1CFEB8DEC0FFD2FF11DE35AFF4F6A
:10040000F0829FB7F8940B8FEA89FB898081806224
:10041000CFCFCF93DF93EC01888D8823B9F0AA89E1
:10042000BB89E889F9898C9185FD03C0808186FDAF
:100430000DC00FB607FCF7CF8C9185FFF2CF8081FE
:1004400085FFEDCFCE010E949A01E9CFDF91CF91D8
:1004500008958EBD00000DB407FEFDCF8EB5089542
:10046000FC0101900020E9F73197AF01481B590BBF
:10047000BC018CE791E00C941C018F929F92AF928B
:10048000BF920F931F93CF93DF93CDB7DEB7A197A2
:100490000FB6F894DEBF0FBECDBF19A2423008F4EC
:1004A0004AE08E010F5D1F4F842E912CB12CA12CA0
:1004B000A50194010E945507E62FB901CA01EA304F
:1004C000F4F4E05DD801EE938D01232B242B252B32
:1004D00079F790E080E0109719F0CD010E9430028A
:1004E000A1960FB6F894DEBF0FBECDBFDF91CF91BE
:1004F0001F910F91BF90AF909F908F900895E95CEE
:10050000E1CF0F931F9300911C0210911D022091C7
:100510001E0230911F0240E052E16AE770E080E085
:10052000041715072607370740F476956795579502
:1005300047958F5F8630A1F787E0982F906A969550
:10054000809581709CBD8DBD60E080911B021F91E4
:100550000F910C94A6001F93CF93DF93182FD62FE3
:10056000C42F0E94810285E00E942902812F0E94EF
:1005700029028D2F0E9429028C2F0E942902DF91CF
:10058000CF911F910C94F200CF92DF92EF92FF92E5
:10059000CF93DF93D82F482F60EE8FE00E94AB02FD
:1005A0008FB7F894C0907801D0907901E0907A01EB
:1005B000F0907B018FBF8AE0C80ED11CE11CF11CBA
:1005C0002FB7F8948091780190917901A0917A01E8
:1005D000B0917B012FBF8C159D05AE05BF05E0F4E2
:1005E0000E94810283E00E9429028EE00E9429027B
:1005F00080E00E942902C82F0E94F200C07EDC1316
:10060000DFCF81E091E0892790E0DF91CF91FF90EB
:10061000EF90DF90CF90089580E0F4CFCF93DF93F9
:10062000D82FC62F0E94810282E00E9429028D2FBE
:100630000E9429028C2F0E942902DF91CF910C94F5
:10064000F200EF92FF920F931F93CF93DF93C82F87
:10065000162FE72E042F0E94810282E00E942902B9
:100660008C2F0E942902F12EC12FDE2D89910E942C
:1006700029028C2F8F198017C8F3DF91CF911F911A
:100680000F91FF90EF900C94F200FF920F931F9345
:10069000CF93DF93C82FF62E172F042F0E948102CD
:1006A00083E00E9429028C2F0E942902CF2DD12F96
:1006B0000C0F1D2F111DC017D10729F080E00E94DB
:1006C00029028993F8CFDF91CF911F910F91FF906D
:1006D0000C94F200AF92BF92CF92DF92EF92FF9212
:1006E0000F931F93CF93DF9300D000D01F92CDB70D
:1006F000DEB78C01000F111F000F111FF801E45F1E
:10070000FE4F45E0BE016F5F7F4F81810E94450330
:100710008A81C98098E0C99E60011124282F30E0A9
:1007200055E0359527955A95E1F7C20ED31E0D2C4D
:10073000000CEE08FF0883FF20C092E0CC0CDD1C0B
:10074000EE1CFF1C9A95D1F78370C80ED11CE11CDA
:10075000F11CFE2CED2CDC2CCC248B81C80ED11C82
:10076000E11CF11CFE2CED2CDC2CCC248C81C80E61
:10077000D11CE11CF11C6894F7F88D818F70B82EA4
:10078000E8E081E090E0EB1588F1F801E45FFE4FCE
:10079000A0800E94810283E00E9429028A2D0E948B
:1007A000290280E00E942902A82E0E94F200A3FEE6
:1007B00002C06894F6F8C0926801D0926901E09294
:1007C0006A01F0926B01B0926C01045F1E4F4B2DD9
:1007D00060E771E0F80182810E94450340E0F80182
:1007E00063818CE20E94AB0290E080E00F900F905A
:1007F0000F900F900F90DF91CF911F910F91FF906D
:10080000EF90DF90CF90BF90AF9008951F920F921E
:100810000FB60F9211242F933F938F939F93AF9313
:10082000BF938091780190917901A0917A01B09164
:100830007B0130915C0123E0230F2D3758F50196A1
:10084000A11DB11D20935C018093780190937901E3
:10085000A0937A01B0937B0180915D0190915E013C
:10086000A0915F01B09160010196A11DB11D80931F
:100870005D0190935E01A0935F01B0936001BF9111
:10088000AF919F918F913F912F910F900FBE0F903D
:100890001F90189526E8230F0296A11DB11DD2CFF7
:1008A0001F920F920FB60F9211242F933F934F93E5
:1008B0005F936F937F938F939F93AF93BF93EF93C8
:1008C000FF938CE791E00E949A01FF91EF91BF9115
:1008D000AF919F918F917F916F915F914F913F91D8
:1008E0002F910F900FBE0F901F9018951F920F928F
:1008F0000FB60F9211242F938F939F93EF93FF9333
:10090000E0918C01F0918D018081E0919201F09154
:10091000930182FD1BC09081809195018F5F8F7341
:1009200020919601821741F0E0919501F0E0E458A2
:10093000FE4F958F80939501FF91EF919F918F913D
:100940002F910F900FBE0F901F9018958081F4CFBC
:10095000CF9310927F0110927E0188EE93E0A0E089
:10096000B0E08093800190938101A0938201B093C5
:10097000830188E191E090937D0180937C0185EC77
:1009800090E0909389018093880184EC90E09093AB
:100990008B0180938A0180EC90E090938D0180938D
:1009A0008C0181EC90E090938F0180938E0182EC1A
:1009B00090E0909391018093900186EC90E0909369
:1009C00093018093920110929501109296011092DA
:1009D0009701109298018AE192E09093210280930E
:1009E0002002CFB7F89480911902811124C0EEEA59
:1009F000F0E08491EAE9F0E09491E82FF0E0EE0F66
:100A0000FF1FEA57FF4FA591B491EC91E92321F420
:100A100061E08AE00E94A6008AE00E9487008CB50F
:100A200080618CBD8CB580648CBD8DE00E94870098
:100A30008BE00E948700809119028F5F80931902DA
:100A4000CFBF8AE080931B0280E896E9A8E9B0E076
:100A500080931C0290931D02A0931E02B0931F026C
:100A60008AE00E94870061E080911B02CF910C9484
:100A7000A600CF93DF93CDB7DEB7A2970FB6F89459
:100A8000DEBF0FBECDBF789484B5826084BD84B5CF
:100A9000816084BD85B5826085BD85B5816085BD79
:100AA00080916E00816080936E0010928100809131
:100AB00081008260809381008091810081608093B9
:100AC0008100809180008160809380008091B100DE
:100AD00084608093B1008091B00081608093B00009
:100AE00080917A00846080937A0080917A0082609D
:100AF00080937A0080917A00816080937A0080915F
:100B00007A00806880937A001092C100E0918C0195
:100B1000F0918D0182E08083E0918801F09189015C
:100B20001082E0918A01F0918B0180E18083109224
:100B30009401E0919001F091910186E08083E09131
:100B40008E01F0918F01808180618083E0918E0120
:100B5000F0918F01808188608083E0918E01F09117
:100B60008F01808180688083E0918E01F0918F01F8
:100B700080818F7D808383E00E94870060E083E036
:100B80000E94A6000E94810280EC0E9429020E941D
:100B9000F2000E94F7004B015C014AE0C42ED12C08
:100BA000E12CF12C0E94F700681979098A099B0948
:100BB000683E734081059105A8F321E0C21AD1086F
:100BC000E108F10888EE880E83E0981EA11CB11C94
:100BD000C114D104E104F10429F78E010F5F1F4F06
:100BE0008EE0F80111928A95E9F74EE0B80180E3B2
:100BF0000E9421034EE0B80180E40E9421034EE0F0
:100C0000B80180E50E94210360E080E60E940E03A7
:100C100060E080E70E940E0363EA8BE20E940E030D
:100C200044E067E680E60E94AB0241E067E680E7C9
:100C30000E94AB028CE0E0E0F1E0DE011F96019043
:100C40000D928A95E1F76E01FFE0CF0ED11CF12CD9
:100C5000E12C38E0B32EF601019111916F0180E88B
:100C60000E94C402892B71F40230110509F40EC1EF
:100C700008F0B9C00115110509F40EC101301105C4
:100C800009F4BDC080E80E94C402892B61F460E0D1
:100C90008AE20E940E0360E889E20E940E0360E887
:100CA00088E20E940E0380E00E94C40286E291E086
:100CB0000E94300282E491E00E94300285E491E0DB
:100CC0000E94300282E491E00E94300298E0B92E46
:100CD00000E010E00E94810280EA0E94290280E088
:100CE0000E942902F82E0E94F20090E080E0F0FCC1
:100CF00004C0F1FE6CC081E090E00E946A03892B81
:100D000009F065C08BB18B258BB98BB18B258BB965
:100D1000609168017091690180916A0190916B0105
:100D200040E10E943D0284E591E00E943002609122
:100D30006C0170E090E080E040E10E943D0284E5BB
:100D400091E00E94300280E7E82E81E0F82EF70162
:100D500061917F018CE791E00E94BC01F4E7EF16FE
:100D6000F1E0FF06A1F7809177018093580180910F
:100D70007601809359018091750180935A01809189
:100D8000740180935B0184E591E00E943002C09081
:100D90005801D0905901E0905A01F0905B014AE06F
:100DA000C701B601F7FE0DC06DE28CE791E00E942D
:100DB000BC0166277727CB016C197D098E099F0935
:100DC0004AE00E943D0282E491E00E943002011557
:100DD000110509F47FCF0E948601882309F47ACF98
:100DE0000E94000077CF0430110509F453C008F4C5
:100DF0004FC00530110509F045CF88E101C084E0FE
:100E0000F1E0EF16F10409F049C01E8E1D8EBC8E74
:100E10001B8E44E0BE01655E7F4F0E9421032FEFD1
:100E2000E21AF20A86E0E816F10409F014CF18A2DB
:100E30001F8E81E090E09AA389A38E01015E1F4F6F
:100E40006E0193E2C90ED11C28E0B22EF801E190A8
:100E5000F1908F0180E80E94C402892B09F012CF23
:100E60001E8E1D8EBC8E1B8EE114F104E1F0EA94FF
:100E7000EF2809F007CF84E244E0BE01655E7F4FB2
:100E80000E942103C016D10609F7FCCE88E0B8CF36
:100E900080E1B6CF84E1B4CF80E0B2CF1B8E1C8E50
:100EA0001E8E1D8EB6CF80E2E7CFA1E21A2EAA1BBE
:100EB000BB1BFD010DC0AA1FBB1FEE1FFF1FA2170A
:100EC000B307E407F50720F0A21BB30BE40BF50B07
:100ED000661F771F881F991F1A9469F76095709590
:100EE000809590959B01AC01BD01CF010895EE0F57
:0E0EF000FF1F0590F491E02D0994F894FFCFB8
:100EFE0000000100020003000400050060616601AD
:100F0E007071760200000000BC011C01490109024B
:100F1E007A0158016C012D2D2D2D2D2D2D204341A3
:100F2E004E2052656164202D2D2D2D2D2D2D2D2D14
:100F3E002D000D0A0049442020444C43202020441B
:060F4E00415441002000A7
:00000001FF
