:100000000C9434000C9451000C9451000C94510049
:100010000C9451000C9451000C94B80A0C945100AB
:100020000C9451000C9451000C9451000C9451000C
:100030000C9451000C9451000C9451000C945100FC
:100040000C9472000C9451000C9451000C945100CB
:100050000C9451000C9451000C9451000C945100DC
:100060000C9451000C94510011241FBECFEFD8E026
:10007000DEBFCDBF11E0A0E0B1E0EEE5FAE102C0E5
:1000800005900D92A032B107D9F721E0A0E2B1E0CE
:1000900001C01D92A23BB207E1F70E94BB0A0C947B
:1000A0002D0D0C9400000E946303FDCF0E9463039A
:1000B000FDCF0F931F9310E000E021E040E850E0F7
:1000C00067E071E086E590E00E941C0821E040E8CE
:1000D00050E06DE071E083E590E00E941C081F9104
:1000E0000F9108951F920F920FB60F9211242F9324
:1000F0003F938F939F93AF93BF9380914F019091C4
:100100005001A0915101B091520130914E0123E074
:10011000230F2D3758F50196A11DB11D20934E01D7
:1001200080934F0190935001A0935101B0935201DD
:1001300080914A0190914B01A0914C01B0914D01E9
:100140000196A11DB11D80934A0190934B01A0938C
:100150004C01B0934D01BF91AF919F918F913F9111
:100160002F910F900FBE0F901F90189526E8230F28
:100170000296A11DB11DD2CF0FB6F8940F92FC01CB
:10018000928D0F900FBE81E0911180E00895E09173
:100190005501F09156018081811107C08FEF9FEFCB
:1001A00090934901809348010895E0915501F091A1
:1001B00056010580F681E02D80819181F1CFCF93AA
:1001C000DF93FC01A085B1858281938124813581F3
:1001D000EC013D832C83C481D5819B838A83119656
:1001E0008D919C9112978E179F0721F41296DC93A4
:1001F000CE931197118610868C9181508C93DF914C
:10020000CF9108950F931F93CF93DF938C01FB0140
:1002100080819181D80113968F3F9807F1F4E8010E
:10022000AF81B88512968D919C91139793838283A9
:10023000EC01FD83EC83B583A4831396FC93EE93CA
:10024000129711870087F80180818F5F8083DF918B
:10025000CF911F910F910895D90112962D913C9144
:100260001397E9014881598184179507A8F7DACFD8
:10027000FC010396928381832FEF3FEF3483238326
:10028000968385839087878310820895FC0173830A
:100290006283918780874617570790F0421B530B64
:1002A0008485958548175907C8F4BF016E5F7F4F55
:1002B00080912C0190912D010E94020180E008950F
:1002C0004217530718F46217730740F4BF016E5FBB
:1002D0007F4F80912E0190912F01EECF81E0089504
:1002E000EF92FF920F931F93CF93DF93EC018B015B
:1002F0007A016C857D85600F711F9801A701CE0181
:100300000E944601811107C0DF91CF911F910F918B
:10031000FF90EF9008958C859D85080F191FE8893F
:10032000F989CE010995E5CFEF92FF920F931F93C4
:10033000CF93DF938C017B01E0912E01F0912F018F
:100340000580F681E02DC681D781CE0102960E94FC
:10035000DF008A8982FF0FC0A701B801CE010E9489
:100360007001E889F989CE01DF91CF911F910F913A
:10037000FF90EF9009948E7F8A8BF3CFE0912E014E
:10038000F0912F01808181110DC080912C019091FD
:100390002D0190932F0180932E01F0932D01E09376
:1003A0002C0108950580F681E02D6FEF7FEF8081AD
:1003B00091810E949401E2CFBF92CF92DF92EF929F
:1003C000FF920F931F93CF93DF93EC01B62EC09053
:1003D0004601D09047010091550110915601E090DF
:1003E0005301F09054018091AB019091AC010296C1
:1003F0000E94DF00CF3FDC0709F042C0BB2009F4B8
:100400003FC0E0915801F0915901A091AB01B0912A
:10041000AC011596FC93EE931497A091AB01B091AB
:10042000AC018481958117969C938E931697809149
:10043000AB019091AC01A481B581029613969C9377
:100440008E9312978091AB019091AC0102969583A7
:100450008483E091AB01F091AC0187E591E0938753
:100460008287809157018F5F80935701DF91CF91F1
:100470001F910F91FF90EF90DF90CF90BF90089564
:10048000CC0DDD1DE091AB01F091AC01D383C283B3
:100490006091AB017091AC016E5F7F4FCC15DD05B3
:1004A00060F4C701DF91CF911F910F91FF90EF9002
:1004B000DF90CF90BF900C940201C8010E9402010E
:1004C0008091480190914901C817D90778F6D093D7
:1004D0004901C0934801CACFCF93DF93DC01159641
:1004E000ED91FC910680F781E02DA489B589868580
:1004F000978520893189EC013D832C83C089D1897E
:100500009B838A83CF010C9611962D913C91129773
:100510002817390721F41296DC93CE931197158A88
:10052000148A2C9121502C9320912801211157C01D
:10053000A285B3858481958126813781EC013D8335
:100540002C83C681D7819B838A83CF010296119623
:100550002D913C9112972817390721F41296DC93BC
:10056000CE931197138612862C9121502C93C68915
:100570002091A8012C1710F4C093A80129E02C9F0A
:10058000E0011124CC57DE4F0980DA81C02DD583DC
:10059000C4834C815D8157834683AC81BD811396B2
:1005A0009C938E9312979D838C83A689A29FD001E2
:1005B0001124AC57BE4FB387A2878C918F5F8C9369
:1005C000A091AB01B091AC01968956968C91891798
:1005D00030F581E080932901DF91CF910895A091BA
:1005E0006A01B0916B01B787A68714962D913C9153
:1005F0001597318B208B1496CD91DC9115979B83A9
:100600008A8315969C938E93149789E691E0958B37
:10061000848B809169018F5F80936901D1CF80E0E5
:10062000DBCFEF92FF920F931F93CF93DF93EC01F9
:100630000FB6F8940F921E8D7C0181E1E80EF11C3B
:1006400001E01116D4F08FEF8E8F0F900FBE0FB612
:10065000F8940F921D8D7E0188E0E80EF11C01E0F8
:100660001116B4F08FEF8D8F0F900FBEDF91CF91E9
:100670001F910F91FF90EF9008958989882319F3B6
:10068000C7010E946C028111009329011150D9CF3A
:100690008885882339F3C7010E946C028111009379
:1006A00029011150DDCF0FB6F8940F9280914601C9
:1006B000909147010F900FBE0895809128018F5FA0
:1006C0008093280108950F920FB6F8940F921F920D
:1006D00011242F923F924F925F926F927F928F924E
:1006E0009F92AF92BF92CF92DF92EF92FF920F93C1
:1006F0001F932F933F934F935F936F937F938F93AA
:100700009F93AF93BF93CF93DF93EF93FF93A0910A
:10071000AB01B091AC010DB60D920EB60D92809169
:100720002801882321F081E08093290161C0109283
:100730002901A091AB01B091AC01E091AB01F09126
:10074000AC012D913C918789908D82179307A8F079
:100750008091AB019091AC018091AB019091AC0183
:10076000259A2D9A2FEF87EA91E6215080409040FC
:10077000E1F700C000001D9AF5CF2091A80189E0A3
:1007800001C02150422F50E0849FF001859FF00D61
:100790001124EC57FE4F9081992399F3A181B281E6
:1007A00012966D917C9172836183289FC001112400
:1007B00089579E4F6817790721F485819681928326
:1007C000818389E0849FF001859FF00D1124EC570F
:1007D000FE4F0180F281E02D868197819093AC01DC
:1007E0008093AB012093A8018091AB019091AC0163
:1007F000A091AB01B091AC01CD91CDBFDD91DEBF39
:10080000FF91EF91DF91CF91BF91AF919F918F9128
:100810007F916F915F914F913F912F911F910F9118
:10082000FF90EF90DF90CF90BF90AF909F908F9010
:100830007F906F905F904F903F902F901F900F9000
:100840000FBE0F9008958F929F92BF92CF92DF922A
:10085000EF92FF920F931F93CF93DF930FB6F8940D
:100860000F92809128018150809328018091280166
:10087000882379F080E00F900FBEDF91CF911F9118
:100880000F91FF90EF90DF90CF90BF909F908F904F
:1008900008958091AD01882369F3E0906E01F09096
:1008A0006F01F0E0E0E039E041E080916901811101
:1008B0005EC0EF2B11F00E94C700E0902601F0907F
:1008C0002701E114F10409F47DC189E0D82ECC247C
:1008D000C3940FEF1FEF80912801811161C1C09176
:1008E0004601D09147014E018FEF881A980A9092E5
:1008F00047018092460181149104B9F48091550119
:10090000909156012091530130915401309356013A
:1009100020935501909354018093530180912501B8
:100920008F5F809325010E94C700809148019091BC
:100930004901B12C8816990608F026C1E091AB0157
:10094000F091AC01E689DE9EF0011124EC57FE4FD8
:100950008081823010F0BB24B394809129018111F1
:1009600003C0BB2009F425C1C092290122C1D701CF
:100970001696ED91FC91A489B58966857785808965
:100980009189EB019D838C8380899189EC017B8324
:100990006A83BF01645F7F4F11960D911C9112977E
:1009A0000617170721F412969C938E931197158AB8
:1009B000148A8C9181508C93A285B3858481958112
:1009C00066817781EC017D836C8366817781EB01A1
:1009D0009B838A83CF01029611960D911C911297E9
:1009E0000817190721F412967C936E9311971386BA
:1009F00012862C9121502C93A6892091A8012A17A8
:100A000010F4A093A8013A9FD0011124AC57BE4F17
:100A100011960D90BC91A02DB583A48314966D9171
:100A20007C9115977783668314966D917C911597C9
:100A3000EB019B838A8315969C938E9314979689DA
:100A4000939FD0011124AC57BE4FB387A2878C91DE
:100A50008F5F8C93A091AB01B091AC0156968C91B5
:100A6000891708F022CF409329011FCFE09155014B
:100A7000F09156010580F681E02D0680F781E02D8A
:100A8000828193818816990628F490934901809376
:100A9000480154CFC285D3858481958126813781D1
:100AA000DC0115963C932E93149726813781D9014A
:100AB00013969C938E931297CF01029649815A8187
:100AC0004817590711F43A8329831386128628811F
:100AD00021502883A489B5891097F9F02685378598
:100AE00040895189E9015D834C8340895189EA013C
:100AF0003B832A8311966D917C9112979F01245F0D
:100B00003F4F6217730721F412965C934E9311972F
:100B1000158A148A2C9121502C93A6892091A80122
:100B20002A1710F4A093A801DA9ED0011124AC5723
:100B3000BE4F11960D90BC91A02DB583A483149641
:100B40002D913C9115973783268314962D913C91D6
:100B50001597E9019B838A8315969C938E9314972E
:100B600096899D9DD0011124AC57BE4FB387A287B3
:100B70008C918F5F8C93E091AB01F091AC018689F1
:100B8000891710F4BB24B394E0915501F0915601FC
:100B9000808181116BCF1093490100934801CECE23
:100BA00080912601909127010196909327018093CF
:100BB0002601D1E0ED1AF10809F08DCE109227013F
:100BC0001092260180912901882309F453CE809147
:100BD000AB019091AC010E94630381E04CCE0F9277
:100BE0000FB6F8940F921F9211242F923F924F92BA
:100BF0005F926F927F928F929F92AF92BF92CF92AD
:100C0000DF92EF92FF920F931F932F933F934F9397
:100C10005F936F937F938F939F93AF93BF93CF9384
:100C2000DF93EF93FF93A091AB01B091AC010DB6B0
:100C30000D920EB60D9213BE809128018111F9C05C
:100C400080914601909147010196909347018093CE
:100C50004601009781F52091550130915601409150
:100C600053015091540150935601409355013093D4
:100C7000540120935301209125012F5F20932501DA
:100C8000E0915501F09156012081211107C02FEF0D
:100C90003FEF30934901209348010DC0E091550189
:100CA000F09156010580F681E02D2081318130934D
:100CB0004901209348012091480130914901821750
:100CC000930710F420E0A1C020E039E0D32EE0919A
:100CD0005501F09156013081311107C08FEF9FEF20
:100CE000909349018093480190C0E0915501F091A3
:100CF00056010580F681E02D0680F781E02D4281C6
:100D000053818417950728F4509349014093480173
:100D10007CC0A285B3854481558166817781EA01D3
:100D20007D836C8366817781EB015B834A83AF01AE
:100D30004E5F5F4F11960D911C9112970417150786
:100D400021F412967C936E931197138612863C9130
:100D500031503C93A489B5891097F9F06685778561
:100D600000891189EB011D830C8300891189E80139
:100D70007B836A831196ED90FC901297BF01645FAC
:100D80007F4FE616F70621F412961C930E931197E7
:100D9000158A148A3C9131503C93A6893091A80160
:100DA0003A1710F4A093A801DA9ED0011124AC5791
:100DB000BE4F11960D90BC91A02DB583A4831496BF
:100DC0006D917C9115977783668314966D917C91D4
:100DD0001597EB015B834A8315965C934E931497AA
:100DE00046894D9DD0011124AC57BE4FB387A287D1
:100DF0003C913F5F3C93E091AB01F091AC013689AF
:100E0000341708F064CF21E062CFE091AB01F0919C
:100E1000AC01E689D9E0ED9FF0011124EC57FE4FBB
:100E20008081823008F021E08091290181110EC07B
:100E30000AC0809126019091270101969093270185
:100E4000809326016CC0222309F469C08091280197
:100E5000882321F081E08093290161C0109229014B
:100E6000A091AB01B091AC01E091AB01F091AC016C
:100E70002D913C918789908D82179307A8F08091DE
:100E8000AB019091AC018091AB019091AC01259A9E
:100E90002D9A2FEF87EA91E6215080409040E1F7AC
:100EA00000C000001D9AF5CF2091A80189E001C083
:100EB0002150422F50E0849FF001859FF00D1124B6
:100EC000EC57FE4F9081992399F3A181B28112963C
:100ED0006D917C9172836183289FC0011124895791
:100EE0009E4F6817790721F48581968192838183CB
:100EF00089E0849FF001859FF00D1124EC57FE4F8F
:100F00000180F281E02D868197819093AC018093DE
:100F1000AB012093A8018091AB019091AC01A0910D
:100F2000AB01B091AC01CD91CDBFDD91DEBFFF91A2
:100F3000EF91DF91CF91BF91AF919F918F917F9171
:100F40006F915F914F913F912F911F910F91FF9062
:100F5000EF90DF90CF90BF90AF909F908F907F9059
:100F60006F905F904F903F902F901F900F900FBE0B
:100F70000F900895CF93DF93009751F0EC010E94FA
:100F80005D03CE010E948E0CDF91CF910C9423045F
:100F9000DF91CF91089500E010E08091220181114E
:100FA0000CC080918401823010F00E94630301150F
:100FB000110599F30E940000F0CF0FB6F8940F923C
:100FC000E0916501F0916601C681D781CE0102965C
:100FD0000E94DF008091AD0181508093AD0180912E
:100FE00022018150809322010F900FBE8F89988D2E
:100FF0000E94BA07CE010E94BA07CFCFCF93DF93EA
:10100000EC010E945D03CE010E94F20BEC010E94F4
:101010002304209769F4259A2D9A2FEF80E792E018
:10102000215080409040E1F700C000001D9AF5CFAC
:10103000CE01DF91CF9108957F928F929F92AF92D0
:10104000BF92CF92DF92EF92FF920F931F93CF93B5
:10105000DF93982EA92E762E872E7A01B22ECA0102
:101060000E94FE076C01892B09F4EDC080E390E03B
:101070000E94FE07EC01892B09F4E2C080E3DE0147
:101080001D928A95E9F7D88ECF8AA70165EA70E0AC
:10109000C6010E94260DB1E0EB1AF108EF89F88D28
:1010A000EE0DFF1D672D782DCE0149969B01205F27
:1010B0003F4FDB014D91BD01DC014D93CD01AB01F3
:1010C00041505109DA014C91442319F02617370792
:1010D00081F718A6BE8AB9A61B861A861D8A1C8AA5
:1010E000D987C88784E090E08B1991099D878C8708
:1010F000DB8BCA8B9082DF011197AC9211971C9207
:10110000119780E88C9311971C9257971C92119716
:101110001C92B397F983E8830115110519F0F801C2
:10112000D183C0830FB6F8940F928091AD018F5F89
:101130008093AD018091AB019091AC01892B09F0B6
:1011400091C0D093AC01C093AB018091AD018130CF
:1011500081F584E891E00E9438018DE891E00E94D9
:10116000380186E991E00E9438018FE991E00E9400
:1011700038018BE791E00E94380182E791E00E94FC
:10118000380189E691E00E94380180E691E00E94F2
:10119000380187E591E00E9438018BE791E0909358
:1011A00056018093550182E791E09093540180931A
:1011B00053018091A9018F5F8093A901AE8980912D
:1011C000A8018A1710F4A093A80129E02A9FD00152
:1011D0001124AC57BE4F11960D90BC91A02DBD832C
:1011E000AC8314968D919C9115979F838E83149652
:1011F000ED91FC911597CE0102969383828315960B
:101200009C938E931497EE89E29FF0011124EC5782
:10121000FE4FFB87EA8780818F5F80830F900FBE30
:101220008091AA01882351F0E091AB01F091AC01CB
:1012300096898E89981710F40E94630381E004C098
:10124000C6010E94BA078FEFDF91CF911F910F91D6
:10125000FF90EF90DF90CF90BF90AF909F908F90D6
:101260007F9008958091AA018111A3CFE091AB01F5
:10127000F091AC0196898E89891708F49ACFD093A2
:10128000AC01C093AB0195CFCF93DF9300D000D0DA
:101290001F92CDB7DEB785E0B82ECE0101967C0156
:1012A000E0912E01F0912F011081D12CC12C11233E
:1012B00029F00580F681E02DC080D1800E945D0379
:1012C0000E9453034C0180912301909124018816C0
:1012D000990608F089C00E94BE0190922401809274
:1012E00023010E942304D701EB2D1D92EA95E9F713
:1012F00000914401109145010FB6F8940F92D80166
:101300005A96DC905A97DD2009F42FC15C964C91D7
:101310005C974423F9F050E016968D919C911797B5
:10132000840F951F17969C938E93169714962D9164
:101330003C9115978217930738F08D919C911197E6
:1013400017969C938E931697F80166817781C70153
:101350000E941D0DDA94D8015A96DC925A9718967D
:101360008C91882339F0C80108960E946C02811183
:101370000E9463030F900FBEA980A7FCB9CF0C8118
:101380001D81D8011A968D919C91892B21F0C8015D
:1013900002960E94DF000E9453036C01809123019A
:1013A00090912401C816D90610F40E94BE01D09273
:1013B0002401C0922301EFEFEA0DE93008F098CF45
:1013C0000E2E000CFF0BE551F64FD80152968C9172
:1013D00052970C94170D6E0A6E0AB10A990AAB0A5D
:1013E0006E0A6E0AB10A990A909224018092230132
:1013F000112351F08C149D0470F00E942304B40159
:10140000C6010E9494016FCFE0912C01F0912D0153
:1014100061E08081811160E00091440110914501FB
:101420000FB6F8940F92D8015D968C915D978F3F1F
:1014300011F45D961C92F801868D8F3F09F4168E8B
:101440000F900FBED8015A968C915A9781113CC0CB
:101450005296ED91FC91A091AB01B091AC011F9619
:10146000FC93EE931E97A091AB01B091AC018481E7
:10147000958151969C938E9350978091AB0190915A
:10148000AC01A481B5810C9613969C938E93129710
:101490008091AB019091AC010C9695838483E0918F
:1014A000AB01F091AC01C8014196958B848BF8019A
:1014B00081898F5F818BC60188199909662311F094
:1014C0008FEF9FEF0E94DC01C8010E9411030E9470
:1014D0002304811108CF0E94630305CF8160F801C6
:1014E000828B8A809B8064857585680D791D940147
:1014F000A601C8010E944601882309F4F9CED8014B
:1015000052968C91529782FF10C01C966D917C91DF
:10151000680D791DA601C8010E947001D80150967E
:10152000ED91FC91C8010995E3CE8E7FF801828B85
:10153000F5CF816052968C9352976A817B811D967C
:101540007C936E931C976C0D7D1D9601A601C801BE
:101550000E944601CDCE81FD04C0C8010E94BA0799
:10156000C7CE8E7FF801828BC3CE0F900FBE98CE70
:101570000E94EF051895CF93DF93CDB7DEB7609744
:101580000FB6F894DEBF0FBECDBF789484B58260ED
:1015900084BD84B5816084BD85B5826085BD85B517
:1015A000816085BD80916E00816080936E00109295
:1015B0008100809181008260809381008091810010
:1015C00081608093810080918000816080938000A1
:1015D0008091B10084608093B1008091B0008160FF
:1015E0008093B00080917A00846080937A0080912B
:1015F0007A00826080937A0080917A008160809383
:101600007A0080917A00806880937A001092C100FD
:1016100020910501309106018FEF98E0821B930B1A
:1016200090930201809301010E945900A3E1B1E06F
:10163000FE013196BF018D918193882321F081E0D5
:10164000A332B807C1F70AE211E020E040EC50E015
:101650008BEC97E00E941C08882309F4B7C0813006
:1016600009F0B4C00FB6F8940F92809144019091A4
:101670004501892B09F050C089E391E00E943801AF
:1016800080E391E00E94380189E391E090932F017B
:1016900080932E0180E391E090932D0180932C01A3
:1016A00081E590E00E94FE078C01009789F14F963A
:1016B000F801918380838AE0838F85E0848F0FB661
:1016C000F8940F9280819181238D448DBC01249FD9
:1016D000600D711D112475836483128E9383828340
:1016E0002150330B429FB001439F700D1124860F90
:1016F000971F978386838FEF858F868FC801089603
:101700000E943801C80141960E9438010F900FBE17
:1017100010934501009344010F900FBE8091440146
:1017200090914501892B09F451C002E411E023E0B6
:101730004CE550E068E171E084E499E00E941C0807
:10174000813009F043C0F8942FEF3FEF3093490107
:10175000209348018093AA011092470110924601FC
:10176000A89588E190EC0FB6F894A8958093600056
:101770000FBE90936000A091AB01B091AC01CD91F0
:10178000CDBFDD91DEBFFF91EF91DF91CF91BF9192
:10179000AF919F918F917F916F915F914F913F9109
:1017A0002F911F910F91FF90EF90DF90CF90BF90FE
:1017B000AF909F908F907F906F905F904F903F90F1
:1017C0002F901F900F900FBE0F90089580910001F1
:1017D0000E94590000E010E001151105E9F30E9494
:1017E0000000FACF0F931F93CF93DF9382309105C0
:1017F00010F482E090E0E091B001F091B10130E0AE
:1018000020E0B0E0A0E0309799F42115310509F40B
:101810004AC0281B390B24303105D8F58A819B81B9
:101820006115710589F1FB0193838283FE0111C06B
:10183000408151810281138148175907E0F0481710
:10184000590799F4109761F012960C93129713961A
:101850001C933296CF01DF91CF911F910F91089584
:101860000093B0011093B101F4CF2115310551F06F
:101870004217530738F0A901DB019A01BD01DF01CE
:10188000F801C1CFEF01F9CF9093B1018093B0017E
:10189000CDCFFE01E20FF31F8193919322503109C6
:1018A00039832883D7CF2091AE013091AF01232B0C
:1018B00041F420910301309104013093AF01209352
:1018C000AE0120910101309102012115310541F451
:1018D0002DB73EB74091050150910601241B350BF1
:1018E000E091AE01F091AF01E217F307A0F42E1BD7
:1018F0003F0B2817390778F0AC014E5F5F4F241774
:10190000350748F04E0F5F1F5093AF014093AE0173
:10191000819391939FCFF0E0E0E09CCFCF93DF9352
:101920000097E9F0FC01329713821282A091B00176
:10193000B091B101ED0130E020E01097A1F42081D9
:101940003181820F931F2091AE013091AF01281792
:10195000390709F061C0F093AF01E093AE01DF9168
:10196000CF910895EA01CE17DF07E8F54A815B8140
:101970009E0141155105B1F7E901FB83EA834991C5
:101980005991C40FD51FEC17FD0761F48081918137
:101990000296840F951FE901998388838281938140
:1019A0009B838A83F0E0E0E012968D919C911397DF
:1019B0000097B9F52D913C911197CD010296820FB8
:1019C000931F2091AE013091AF012817390739F6E6
:1019D000309751F51092B1011092B001B093AF0160
:1019E000A093AE01BCCFD383C28340815181840FC9
:1019F000951FC817D90761F44E5F5F4F88819981A1
:101A0000480F591F518340838A819B81938382832E
:101A10002115310509F0B0CFF093B101E093B00189
:101A20009ECFFD01DC01C0CF13821282D7CFEE0F13
:101A3000FF1F0590F491E02D0994FB01DC0102C029
:101A400001900D9241505040D8F70895DC0101C03B
:0E1A50006D9341505040E0F70895F894FFCF99
:101A5E00030000B20180004E6F746831004E6F7447
:101A6E0068320049444C4500546D72205376630031
:00000001FF
