:100000000C945D000C9485000C9485000C94850084
:100010000C9485000C9485000C9485000C9485004C
:100020000C9485000C9485000C9485000C9485003C
:100030000C9485000C9485000C9485000C9485002C
:100040000C948B040C9485000C94FB040C94D50444
:100050000C9485000C9485000C9485000C9485000C
:100060000C9485000C94850000000008000201003B
:100070000003040700000000000000000000000072
:10008000250028002B0000000000240027002A0083
:10009000010204081020408001020408102001021F
:1000A00004081020040404040404040402020202EC
:1000B00002020303030303032D0511241FBECFEF28
:1000C000D8E0DEBFCDBF22E0AAECB1E001C01D92B6
:1000D000A43BB207E1F711E0A0E0B1E0E4EAF4E10B
:1000E00002C005900D92AA3CB107D9F710E0CDE50A
:1000F000D0E004C02197FE010E945808CC35D107FA
:10010000C9F70E94BE050C94500A0C94000090E0C0
:10011000FC01E057FF4F24918C559F4FFC018491C7
:10012000882399F090E0880F991FFC01EA57FF4F50
:10013000A591B491FC01E458FF4F859194918FB73C
:10014000F894EC91E22BEC938FBF089590E0FC01C2
:10015000E859FF4F2491FC01E057FF4F3491FC0117
:10016000EC55FF4FE491EE23C9F0222339F0233000
:1001700001F1A8F4213019F1223029F1F0E0EE0F5D
:10018000FF1FE458FF4FA591B4918FB7F894EC91FD
:10019000611126C030953E233C938FBF08952730D0
:1001A000A9F02830C9F0243049F7809180008F7D74
:1001B00003C0809180008F7780938000DFCF84B56B
:1001C0008F7784BDDBCF84B58F7DFBCF8091B0006E
:1001D0008F778093B000D2CF8091B0008F7DF9CF20
:1001E0003E2BDACF61E08091A2020C94A6003FB7CB
:1001F000F8948091FB019091FC01A091FD01B091D8
:10020000FE0126B5A89B05C02F3F19F00196A11D40
:10021000B11D3FBFBA2FA92F982F8827BC01CD0150
:10022000620F711D811D911D42E0660F771F881FAF
:10023000991F4A95D1F708958F929F92AF92BF92DE
:10024000CF92DF92EF92FF924B015C010E94F70088
:100250006B017C010E94F7006C197D098E099F09D2
:10026000683E734081059105A8F321E0821A910848
:10027000A108B10888EEC80E83E0D81EE11CF11C6D
:1002800081149104A104B10429F7FF90EF90DF904D
:10029000CF90BF90AF909F908F900895AF92BF92F4
:1002A000CF92DF92EF92FF920F931F93CF93DF9342
:1002B0006C017B018B01040F151FEB015E01AE1871
:1002C000BF08C017D10759F06991D601ED91FC9193
:1002D0000190F081E02DC6010995892B79F7C501C0
:1002E000DF91CF911F910F91FF90EF90DF90CF9012
:1002F000BF90AF900895FC01538D448D252F30E0C1
:10030000842F90E0821B930B541710F0CF96089522
:1003100001970895FC01918D828D981761F0A28D4F
:10032000AE0FBF2FB11D5D968C91928D9F5F9F7315
:10033000928F90E008958FEF9FEF0895FC01918DCB
:10034000828D981731F0828DE80FF11D858D90E038
:1003500008958FEF9FEF0895FC01918D228D892FD5
:1003600090E0805C9F4F821B91098F7399270895BD
:1003700083E092E00E94AC0121E0892B09F420E0A7
:10038000822F089580E090E0892B29F00E94B80127
:1003900081110C9400000895FC01A48DA80FB92FC1
:1003A000B11DA35ABF4F2C91848D90E001968F739D
:1003B0009927848FA689B7892C93A089B1898C91BC
:1003C000837080648C93938D848D981306C002880B
:1003D000F389E02D80818F7D80830895EF92FF92D5
:1003E0000F931F93CF93DF93EC0181E0888F9B8D58
:1003F0008C8D98131AC0E889F989808185FF15C012
:100400009FB7F894EE89FF896083E889F989808134
:100410008370806480839FBF81E090E0DF91CF9103
:100420001F910F91FF90EF900895F62E0B8D10E025
:100430000F5F1F4F0F731127E02E8C8D8E110CC094
:100440000FB607FCFACFE889F989808185FFF5CFDF
:10045000CE010E94CC01F1CFEB8DEC0FFD2FF11DF1
:10046000E35AFF4FF0829FB7F8940B8FEA89FB891C
:1004700080818062CFCFCF93DF93EC01888D88237A
:10048000B9F0AA89BB89E889F9898C9185FD03C0F7
:10049000808186FD0DC00FB607FCF7CF8C9185FFDC
:1004A000F2CF808185FFEDCFCE010E94CC01E9CF54
:1004B000DF91CF9108958EBD00000DB407FEFDCFF2
:1004C0008EB50895CF93DF93FC0101900020E9F7EA
:1004D0003197AF01481B590BBC0183E092E00E94A9
:1004E0004E01EC0142E050E063E371E083E092E012
:1004F0000E944E018C0F9D1FDF91CF9108950F93A5
:100500001F930091A3021091A4022091A5023091A3
:10051000A60240E052E16AE770E080E004171507A8
:100520002607370740F476956795579547958F5F6F
:100530008630A1F787E0982F906A96958095817014
:100540009CBD8DBD60E08091A2021F910F910C9423
:10055000A600CF93C82F0E947F0283E00E945B0217
:100560008C2F0E945B0280E00E945B02C82F0E94D9
:10057000F2008C2FCF9108951F93CF93DF93182F04
:10058000D62FC42F0E947F0285E00E945B02812F3C
:100590000E945B028D2F0E945B028C2F0E945B02E7
:1005A000DF91CF911F910C94F200CF92DF92EF92E6
:1005B000FF92CF93C82F482F60EE8FE00E94BC02BD
:1005C0008FB7F894C090FF01D0900002E090010234
:1005D000F09002028FBF8AE0C80ED11CE11CF11C12
:1005E0002FB7F8948091FF0190910002A091010231
:1005F000B09102022FBF8C159D05AE05BF0580F49A
:100600008EE00E94A902807EC813EACF81E091E0CB
:10061000892790E0CF91FF90EF90DF90CF900895E1
:1006200080E0F5CFCF93DF93D82FC62F0E947F02B3
:1006300082E00E945B028D2F0E945B028C2F0E9441
:100640005B02DF91CF910C94F200FF920F931F9306
:10065000CF93DF93C82FF62E172F042F0E947F020F
:1006600082E00E945B028C2F0E945B02CF2DD12F73
:100670000C0F1D2F111DC017D10721F089910E9469
:100680005B02F9CFDF91CF911F910F91FF900C94F6
:10069000F2004F925F926F927F928F929F92AF92F1
:1006A000BF92CF92DF92EF92FF920F931F93CF935F
:1006B000DF93CDB7DEB763970FB6F894DEBF0FBEFA
:1006C000CDBF6C0186E0E6E0F1E0DE011E96019010
:1006D0000D928A95E1F73E018EE0680E711C4E0185
:1006E000E4E18E0E911CF301E190F1903F0187014E
:1006F000000F111FF801EE0DFF1DE85EFE4FA080F8
:100700008A2D0E94A90283FD95C0F601B480F8E00D
:10071000FB1508F465C0F60180819181A281B38147
:10072000AC01BD01442777FD439555276627772700
:10073000242FAC01BD01442755276627707444243B
:100740004A94542C642CFFE17F2E211106C04424CE
:100750004A94E7E05E2E612C712C84219521A6211C
:10076000B721222309F43FC08C839B83CD01AA27A4
:10077000BB27282F220F220F220F207E382F337005
:100780003860232B2A8335E0969587953A95E1F7D3
:1007900089838B2D452B462B472B09F080648D8355
:1007A0004B2D50E0B601685F7F4FCE0106960E9448
:1007B000400A45E04B0D0E0D1F1DF801E85EFE4F8F
:1007C000BE016F5F7F4F81810E94250348E068E092
:1007D0008A2D0E94BC028A2D0E94A902807789F08E
:1007E00084E090E010C09C0193E0369527959A959F
:1007F000E1F729838295880F807E8A831C821B8281
:10080000C8CF90E080E063960FB6F894DEBF0FBECD
:10081000CDBFDF91CF911F910F91FF90EF90DF90AF
:10082000CF90BF90AF909F908F907F906F905F9090
:100830004F9008956814790409F055CF82E090E054
:10084000E2CFCF92DF92EF92FF920F931F93CF935D
:10085000DF93CDB7DEB762970FB6F894DEBF0FBE59
:10086000CDBF8C01CB01F80111821082138212825C
:10087000158214824AE09E012F5F3F4F6901B90142
:100880000E94EC07F60101900020E9F731977F0103
:10089000EC18FD08F80180819181009729F02281F0
:1008A00033812E153F0590F4B7016F5F7F4F0E9493
:1008B0008309F801009799F091838083F382E282A3
:1008C00024813581232B11F4FC011082F801F5827B
:1008D000E482B601808191810E94490A0DC0808125
:1008E0009181009711F00E94FA08F801118210829C
:1008F000158214821382128262960FB6F894DEBFBC
:100900000FBECDBFDF91CF911F910F91FF90EF9060
:10091000DF90CF9008951F920F920FB60F9211247F
:100920002F933F938F939F93AF93BF938091FF013A
:1009300090910002A0910102B09102023091FA015F
:1009400023E0230F2D3758F50196A11DB11D2093EB
:10095000FA018093FF0190930002A0930102B093EB
:1009600002028091FB019091FC01A091FD01B091E8
:10097000FE010196A11DB11D8093FB019093FC0126
:10098000A093FD01B093FE01BF91AF919F918F9114
:100990003F912F910F900FBE0F901F90189526E852
:1009A000230F0296A11DB11DD2CF1F920F920FB639
:1009B0000F9211242F933F934F935F936F937F93E5
:1009C0008F939F93AF93BF93EF93FF9383E092E056
:1009D0000E94CC01FF91EF91BF91AF919F918F91B8
:1009E0007F916F915F914F913F912F910F900FBE2B
:1009F0000F901F9018951F920F920FB60F9211240F
:100A00002F938F939F93EF93FF93E0911302F091B5
:100A100014028081E0911902F0911A0282FD1BC03C
:100A2000908180911C028F5F8F7320911D0282172D
:100A300041F0E0911C02F0E0ED5FFD4F958F809357
:100A40001C02FF91EF919F918F912F910F900FBEFC
:100A50000F901F9018958081F4CFCF9310920602CB
:100A60001092050288EE93E0A0E0B0E080930702C8
:100A700090930802A0930902B0930A0285E291E0E4
:100A8000909304028093030285EC90E0909310020F
:100A900080930F0284EC90E09093120280931102F5
:100AA00080EC90E0909314028093130281EC90E02C
:100AB000909316028093150282EC90E090931802B6
:100AC0008093170286EC90E090931A0280931902AB
:100AD00010921C0210921D0210921E0210921F0210
:100AE00081EA92E09093A8028093A702CFB7F8948E
:100AF0008091A002811124C0EEEAF0E08491EAE93D
:100B0000F0E09491E82FF0E0EE0FFF1FEA57FF4F5F
:100B1000A591B491EC91E92321F461E08AE00E946F
:100B2000A6008AE00E9487008CB580618CBD8CB5E0
:100B300080648CBD8DE00E9487008BE00E9487005E
:100B40008091A0028F5F8093A002CFBF8AE0809344
:100B5000A20280E896E9A8E9B0E08093A30290930E
:100B6000A402A093A502B093A6028AE00E94870087
:100B700061E08091A202CF910C94A600CF93DF9305
:100B8000CDB7DEB7A2970FB6F894DEBF0FBECDBFCC
:100B9000789484B5826084BD84B5816084BD85B558
:100BA000826085BD85B5816085BD80916E00816064
:100BB00080936E001092810080918100826080930A
:100BC000810080918100816080938100809180000C
:100BD0008160809380008091B10084608093B10037
:100BE0008091B00081608093B00080917A00846031
:100BF00080937A0080917A00826080937A0080915D
:100C00007A00816080937A0080917A008068809376
:100C10007A001092C100E0911302F091140282E078
:100C20008083E0910F02F09110021082E091110296
:100C3000F09112028FEC808310921B02E091170258
:100C4000F091180286E08083E0911502F09116027F
:100C5000808180618083E0911502F091160280818D
:100C600088608083E0911502F0911602808180688F
:100C70008083E0911502F091160280818F7D808340
:100C800086EF90E0A0E0B0E08093E8019093E90166
:100C9000A093EA01B093EB0188E08093EC018AE72E
:100CA0008093F00185E68093F1018EE68093F20156
:100CB00084E68093F30180E28093F4018093F50150
:100CC0008093F6018093F70180E1E8EEF1E0A8ED72
:100CD000B1E001900D928A95E1F70E947F0280ECCD
:100CE0000E945B020E94F2006AE070E080E090E007
:100CF0000E941C01CE0101966C018EE0F60111925A
:100D00008A95E9F74EE0B60180E30E9425034EE0A4
:100D1000B60180E40E9425034EE0B60180E50E9402
:100D2000250360E080E60E94120360E080E70E94F5
:100D3000120363EA8BE20E94120344E067E680E656
:100D40000E94BC0241E067E680E70E94BC028CE0A2
:100D5000ECE0F1E0DE011F9601900D928A95E1F73B
:100D60004E01FFE08F0E911CB12CA12C340198E0B4
:100D7000592EF401E190F1904F0180E80E94D502D4
:100D80008C01892B09F064C0F2E0EF16F10409F43C
:100D9000FFC050F4E114F10409F400C1EA94EF2813
:100DA00081F001E010E054C0E4E0EE16F10409F433
:100DB000F3C008F4EFC085E0E816F10491F788E18C
:100DC00001C084E091E0A916B10409F0E9C01E8ECB
:100DD0001D8E5C8E1B8E44E0BE01655E7F4F0E94BF
:100DE0002503EFEFAE1ABE0AF6E0AF16B10409F61E
:100DF00018A21F8E81E090E09AA389A37E018FE163
:100E0000E80EF11C5E0193E2A90EB11C88E0582E99
:100E1000F701819091907F0180E80E94D5028C01BA
:100E2000892BB1F41E8E1D8E5C8E1B8E8114910455
:100E300009F4BBC08A94892809F0B3CF84E244E066
:100E4000BE01655E7F4F0E942503AE14BF0401F70B
:100E500086E391E00115110511F087E491E00E940D
:100E6000620280E80E94D502892B61F460E08AE288
:100E70000E94120360E889E20E94120360E888E29F
:100E80000E9412038AE591E0012B11F080E791E0C6
:100E90000E94620280E00E94D502892B09F087C07F
:100EA00088E891E00E94620200E010E06091F801A1
:100EB0007091F901C3010E9421046091F8017091C1
:100EC000F9016F5F7F4FC6010E9421042F85388989
:100ED000E5EFF1E06B897C8990E080E08617970769
:100EE00081F0D901A80FB91F2115310521F4109205
:100EF000D001A0EDB1E04C91419301968330910572
:100F000069F729813A81E5EEF1E06D817E8190E01B
:100F100080E06817790709F04DC08091EC018930B5
:100F200020F488EE91E00E9449038091DC01893031
:100F300020F488ED91E00E9449038CEB91E00E943F
:100F400062028091F8019091F90102969093F90163
:100F50008093F80164E670E080E090E00E941C015C
:100F600089819A81009711F00E94FA088F859889EB
:100F7000009711F00E94FA080115110509F496CFA7
:100F80000E94B801882309F491CF0E9400008ECFFF
:100F900088E018CF80E116CF84E114CF80E012CF33
:100FA0001B8E1C8E1E8E1D8E16CF80E248CF81EACE
:100FB00091E078CFD901A80FB91F2115310521F48F
:100FC0001092D001A0EDB1E04C9141930196833095
:100FD000910509F09ECFA1CFBB274A3031F4992368
:100FE00022F4BDE2909581959F4F0C94F807BB27A2
:100FF000FB015527AA27880F991FAA1FA41710F0D5
:10100000A41B83955051B9F7A05DAA3308F0A95DE0
:10101000A193009779F7B111B1931192CB010C9480
:101020001108DC01FC01672F71917723E1F73297FA
:1010300004C07C916D9370836291AE17BF07C8F3B3
:1010400008952F923F924F925F926F927F928F926C
:101050009F92AF92BF92CF92DF92EF92FF920F9347
:101060001F93CF93DF93CDB7DEB7CA1BDB0B0FB651
:10107000F894DEBF0FBECDBF09942A88398848880E
:101080005F846E847D848C849B84AA84B984C884A4
:10109000DF80EE80FD800C811B81AA81B981CE0F9B
:1010A000D11D0FB6F894DEBF0FBECDBFED01089580
:1010B000EE0FFF1F0590F491E02D09940F931F93FD
:1010C000CF93DF938230910510F482E090E0E091BD
:1010D000B202F091B30230E020E0B0E0A0E030973F
:1010E00099F42115310509F44AC0281B390B243025
:1010F0003105D8F58A819B816115710589F1FB0164
:1011000093838283FE0111C040815181028113814A
:1011100048175907E0F04817590799F4109761F0FC
:1011200012960C93129713961C933296CF01DF916F
:10113000CF911F910F9108950093B2021093B302C3
:10114000F4CF2115310551F04217530738F0A901AA
:10115000DB019A01BD01DF01F801C1CFEF01F9CF39
:101160009093B3028093B202CDCFFE01E20FF31F42
:10117000819391932250310939832883D7CF2091CD
:10118000B0023091B102232B41F420910201309141
:1011900003013093B1022093B002209100013091FD
:1011A00001012115310541F42DB73EB740910401ED
:1011B00050910501241B350BE091B002F091B10272
:1011C000E217F307A0F42E1B3F0B2817390778F01E
:1011D000AC014E5F5F4F2417350748F04E0F5F1F7D
:1011E0005093B1024093B002819391939FCFF0E06E
:1011F000E0E09CCFCF93DF930097E9F0FC013297BA
:1012000013821282A091B202B091B302ED0130E0DC
:1012100020E01097A1F420813181820F931F20914B
:10122000B0023091B1022817390709F061C0F0937C
:10123000B102E093B002DF91CF910895EA01CE1799
:10124000DF07E8F54A815B819E0141155105B1F741
:10125000E901FB83EA8349915991C40FD51FEC172B
:10126000FD0761F4808191810296840F951FE90149
:1012700099838883828193819B838A83F0E0E0E075
:1012800012968D919C9113970097B9F52D913C91F1
:101290001197CD010296820F931F2091B0023091D9
:1012A000B1022817390739F6309751F51092B30279
:1012B0001092B202B093B102A093B002BCCFD3831C
:1012C000C28340815181840F951FC817D90761F4EB
:1012D0004E5F5F4F88819981480F591F518340832A
:1012E0008A819B81938382832115310509F0B0CFD8
:1012F000F093B302E093B2029ECFFD01DC01C0CFB8
:1013000013821282D7CFB0E0A0E0E9E8F9E00C94B4
:1013100023088C01009751F4CB010E945E088C01D8
:10132000C801CDB7DEB7E0E10C943F08FC01E60F41
:10133000F71F9C0122503109E217F30708F49DC002
:10134000D901CD91DC911197C617D70798F0C53018
:10135000D10530F3CE0104978617970708F3C61B13
:10136000D70B2297C193D1936D937C93CF010E94A9
:10137000FA08D6CF5B01AC1ABD0A4C018C0E9D1E3B
:10138000A091B202B091B302512C412CF12CE12C6E
:10139000109731F58091B0029091B10288159905AE
:1013A00009F05CC04616570608F058C0809100014D
:1013B00090910101009741F48DB79EB740910401CF
:1013C00050910501841B950BE817F90708F055C0EB
:1013D000F093B102E093B002F90171836083A0CF72
:1013E0008D919C91119712966C90129713967C9008
:1013F0001397A815B90559F56C0142E0C40ED11C2C
:10140000CA14DB0420F1AC014A195B09DA01129617
:10141000159780F06282738251834083D9016D9366
:101420007C93E114F10471F0D7011396FC93EE93D1
:10143000129776CF22968C0F9D1FF901918380839E
:10144000F301EFCFF093B302E093B20269CF4816F5
:10145000590608F42C017D01D3019ACFCB010E94DB
:101460005E087C01009749F0AE01B8010E94400A75
:10147000C8010E94FA08870153CF10E000E050CF66
:10148000FB01DC0102C001900D9241505040D8F7A1
:101490000895FB01DC0101900D920020E1F7089511
:0414A000F894FFCFEE
:1014A4000000B402800000000100020000000100FE
:1014B400020003000400050030313640414650511B
:1014C4005600000000EE014E017B013B02AC018A94
:1014D400019E010D0A004D435032353135207265AD
:1014E400736574204F4B004D4350323531352072B3
:1014F40065736574204641494C004D435032353183
:10150400352073657442697472617465204F4B00B1
:101514004D435032353135207365744269747261BC
:101524007465204641494C004D43503235313520D5
:101534007365744E6F726D616C4D6F6465204F4BB3
:10154400004D435032353135207365744E6F726DE2
:10155400616C4D6F6465204641494C004D65737361
:0A156400616765732073656E740003
:00000001FF
