S0290000616C7465726E6174696E675F6C6564735F627574746F6E5F696E746572727570742E7372656314
S11300000C9434000C9440000C943E000C943E007C
S11300100C943E000C943E000C943E000C943E0064
S11300200C943E000C943E000C943E000C943E0054
S11300300C943E000C943E000C943E000C943E0044
S11300400C943E000C943E000C943E000C943E0034
S11300500C943E000C943E000C943E000C943E0024
S11300600C943E000C943E0011241FBECFEFD8E048
S1130070DEBFCDBF0E94C4000C94D7000C940000D6
S11300801F920F9200905F000F9211242F933F93C1
S11300908F939F93EF93FF93CF93DF93CDB7DEB707
S11300A085E290E025E230E0F901308120E2232767
S11300B0FC01208385E290E025E230E0F901308103
S11300C020E12327FC0120830000DF91CF91FF91E1
S11300D0EF919F918F913F912F910F9000925F002C
S11300E00F901F901895CF93DF93CDB7DEB78AE2B8
S11300F090E02AE230E0F90120812B7FFC0120838B
S11301008BE290E02BE230E0F90120812460FC01D5
S1130110208389E690E029E630E0F901208123601C
S1130120FC0120838DE390E02DE330E0F901208190
S11301302160FC01208378940000DF91CF91089521
S1130140CF93DF93CDB7DEB784E290E024E230E0D2
S1130150F90120812863FC01208385E290E025E2F7
S113016030E0F90120812F7CFC01208385E290E0BE
S113017025E230E0F901308120E12327FC012083CE
S11301800000DF91CF910895CF93DF93CDB7DEB711
S11301900E94A0000E94730085E290E025E230E016
S11301A0F901308128E02327FC012083F5CFF8945E
S10501B0FFCF7B
S9030000FC
