:100000000C945C000C9479000C9479000C947900A9
:100010000C9479000C9479000C946D0C0C9479007C
:100020000C9479000C9479000C9479000C9479006C
:100030000C9479000C9479000C9479000C9479005C
:100040000C942E010C9479000C9479000C94790096
:100050000C9479000C9479000C9479000C9479003C
:100060000C9479000C947900000000080002010053
:100070000003040700000000000000000000000072
:10008000250028002B0000000000240027002A0083
:10009000040404040404040402020202020203032E
:1000A0000303030301020408102040800102040836
:1000B000102001020408102011241FBECFEFD8E049
:1000C000DEBFCDBF11E0A0E0B1E0E6EFFBE102C092
:1000D00005900D92A032B107D9F721E0A0E2B1E07E
:1000E00001C01D92A23BB207E1F70E94700C0C9474
:1000F000F90D0C94000090E0FC01EC55FF4F2491A9
:1001000080579F4FFC018491882399F090E0880FDD
:10011000991FFC01EA57FF4FA591B491FC01E458E7
:10012000FF4F859194918FB7F894EC91E22BEC936B
:100130008FBF089590E0FC01E859FF4F2491FC0126
:10014000EC55FF4F3491FC01E057FF4FE491EE2353
:10015000C9F0222339F0233001F1A8F4213019F13C
:10016000223029F1F0E0EE0FFF1FE458FF4FA59178
:10017000B4918FB7F894EC91611126C030953E236D
:100180003C938FBF08952730A9F02830C9F0243060
:1001900049F7809180008F7D03C0809180008F7728
:1001A00080938000DFCF84B58F7784BDDBCF84B5AB
:1001B0008F7DFBCF8091B0008F778093B000D2CF3E
:1001C0008091B0008F7DF9CF3E2BDACF2A9A2A9802
:1001D000FDCF8BE00E947B0061E08BE00E949A00E3
:1001E00082E190E00E94AB0660E08BE00E949A0002
:1001F00082E190E00E94AB06EFCF8CE00E947B0092
:1002000061E08CE00E949A008CE090E00E94AB06D6
:1002100060E08CE00E949A008CE090E00E94AB06C7
:10022000EFCF0F931F938AE00E947B0010E000E065
:1002300021E040E850E064E171E08DEF90E00E9441
:10024000E40821E040E850E06AE171E089EE90E0E6
:100250000E94E4081F910F910C94810B1F920F9242
:100260000FB60F9211242F933F938F939F93AF93C9
:10027000BF9380914F0190915001A0915101B09195
:10028000520130914E0123E0230F2D3758F501968E
:10029000A11DB11D20934E0180934F0190935001F9
:1002A000A0935101B093520180914A0190914B016A
:1002B000A0914C01B0914D010196A11DB11D8093FB
:1002C0004A0190934B01A0934C01B0934D01BF9113
:1002D000AF919F918F913F912F910F900FBE0F90F3
:1002E0001F90189526E8230F0296A11DB11DD2CFAD
:1002F0000FB6F8940F92FC01928D0F900FBE81E023
:10030000911180E00895E0915501F09156018081AE
:10031000811107C08FEF9FEF9093420180934101BD
:100320000895E0915501F09156010580F681E02D88
:1003300080819181F1CFCF93DF93FC01A085B185BE
:100340008281938124813581EC013D832C83C4819A
:10035000D5819B838A8311968D919C9112978E17DC
:100360009F0721F41296DC93CE9311971186108685
:100370008C9181508C93DF91CF9108950F931F93AF
:10038000CF93DF938C01FB0180819181D80113967B
:100390008F3F9807F1F4E801AF81B88512968D91EF
:1003A0009C91139793838283EC01FD83EC83B58347
:1003B000A4831396FC93EE93129711870087F8019C
:1003C00080818F5F8083DF91CF911F910F9108957E
:1003D000D90112962D913C911397E90148815981D9
:1003E00084179507A8F7DACFFC01039692838183DF
:1003F0002FEF3FEF34832383968385839087878312
:1004000010820895FC017383628391878087461769
:10041000570790F0421B530B848595854817590761
:10042000C8F4BF016E5F7F4F80913D0190913E0106
:100430000E94BE0180E008954217530718F4621726
:10044000730740F4BF016E5F7F4F80913F01909131
:100450004001EECF81E00895EF92FF920F931F933A
:10046000CF93DF93EC018B017A016C857D85600F62
:10047000711F9801A701CE010E940202811107C0DD
:10048000DF91CF911F910F91FF90EF9008958C8590
:100490009D85080F191FE889F989CE010995E5CFD7
:1004A000EF92FF920F931F93CF93DF938C017B0109
:1004B000E0913F01F09140010580F681E02DC68179
:1004C000D781CE0102960E949B018B8982FF0FC0CB
:1004D000A701B801CE010E942C02E889F989CE015A
:1004E000DF91CF911F910F91FF90EF9009948E7F34
:1004F0008B8BF3CFE0913F01F0914001808181111E
:100500000DC080913D0190913E01909340018093F8
:100510003F01F0933E01E0933D0108950580F6818F
:10052000E02D6FEF7FEF808191810E945002E2CF3A
:10053000BF92CF92DF92EF92FF920F931F93CF93D0
:10054000DF93EC01B62EC0904401D090450100919C
:10055000550110915601E0905301F09054018091A3
:10056000AB019091AC0102960E949B01CF3FDC074A
:1005700009F042C0BB2009F43FC0E0915801F0915E
:100580005901A091AB01B091AC011596FC93EE938B
:100590001497A091AB01B091AC018481958117961D
:1005A0009C938E9316978091AB019091AC01A4819E
:1005B000B581029613969C938E9312978091AB010E
:1005C0009091AC01029695838483E091AB01F09108
:1005D000AC0187E591E093878287809157018F5F17
:1005E00080935701DF91CF911F910F91FF90EF9072
:1005F000DF90CF90BF900895CC0DDD1DE091AB0151
:10060000F091AC01D383C2836091AB017091AC01D6
:100610006E5F7F4FCC15DD0560F4C701DF91CF9190
:100620001F910F91FF90EF90DF90CF90BF900C94AF
:10063000BE01C8010E94BE0180914101909142011A
:10064000C817D90778F6D0934201C0934101CACFA9
:10065000CF93DF93DC011596ED91FC910680F78135
:10066000E02DA489B5898685978520893189EC019B
:100670003D832C83C089D1899B838A83CF010C96CB
:1006800011962D913C9112972817390721F4129653
:10069000DC93CE931197158A148A2C9121502C93B8
:1006A00020914801211157C0A285B385848195818D
:1006B00026813781EC013D832C83C681D7819B83C2
:1006C0008A83CF01029611962D913C91129728179B
:1006D000390721F41296DC93CE9311971386128674
:1006E0002C9121502C93C6892091A8012C1710F42D
:1006F000C093A80129E02C9FE0011124CC57DE4FC4
:100700000980DA81C02DD583C4834C815D815783F4
:100710004683AC81BD8113969C938E9312979D83E3
:100720008C83A689A29FD0011124AC57BE4FB387FA
:10073000A2878C918F5F8C93A091AB01B091AC019B
:10074000968956968C91891730F581E080934901FE
:10075000DF91CF910895A0916A01B0916B01B787A5
:10076000A68714962D913C911597318B208B14966A
:10077000CD91DC9115979B838A8315969C938E93DC
:10078000149789E691E0958B848B809169018F5F46
:1007900080936901D1CF80E0DBCFEF92FF920F937E
:1007A0001F93CF93DF93EC010FB6F8940F921E8D39
:1007B0007C0181E1E80EF11C01E01116D4F08FEF0D
:1007C0008E8F0F900FBE0FB6F8940F921D8D7E0185
:1007D00088E0E80EF11C01E01116B4F08FEF8D8F68
:1007E0000F900FBEDF91CF911F910F91FF90EF906F
:1007F00008958989882319F3C7010E94280381116C
:10080000009349011150D9CF8885882339F3C70156
:100810000E9428038111009349011150DDCF0FB6CA
:10082000F8940F9280914401909145010F900FBE72
:100830000895809148018F5F8093480108950F9239
:100840000FB6F8940F921F9211242F923F924F925D
:100850005F926F927F928F929F92AF92BF92CF9250
:10086000DF92EF92FF920F931F932F933F934F933B
:100870005F936F937F938F939F93AF93BF93CF9328
:10088000DF93EF93FF93A091AB01B091AC010DB654
:100890000D920EB60D9280914801882321F081E0DF
:1008A0008093490161C010924901A091AB01B091C0
:1008B000AC01E091AB01F091AC012D913C918789A5
:1008C000908D82179307A8F08091AB019091AC01B5
:1008D0008091AB019091AC01259A2D9A2FEF87EA78
:1008E00091E6215080409040E1F700C000001D9A41
:1008F000F5CF2091A80189E001C02150422F50E09E
:10090000849FF001859FF00D1124EC57FE4F9081DC
:10091000992399F3A181B28112966D917C91728392
:100920006183289FC001112489579E4F681779075A
:1009300021F4858196819283818389E0849FF001EF
:10094000859FF00D1124EC57FE4F0180F281E02DC0
:10095000868197819093AC018093AB012093A8018D
:100960008091AB019091AC01A091AB01B091AC0131
:10097000CD91CDBFDD91DEBFFF91EF91DF91CF91A2
:10098000BF91AF919F918F917F916F915F914F91A7
:100990003F912F911F910F91FF90EF90DF90CF909B
:1009A000BF90AF909F908F907F906F905F904F908F
:1009B0003F902F901F900F900FBE0F9008958F9231
:1009C0009F92BF92CF92DF92EF92FF920F931F936D
:1009D000CF93DF930FB6F8940F9280914801815026
:1009E0008093480180914801882379F080E00F903E
:1009F0000FBEDF91CF911F910F91FF90EF90DF908D
:100A0000CF90BF909F908F9008958091AD018823E3
:100A100069F3E0906E01F0906F01F0E0E0E039E002
:100A200041E08091690181115EC0EF2B11F00E94BD
:100A30008301E0904601F0904701E114F10409F4CC
:100A40007DC189E0D82ECC24C3940FEF1FEF809195
:100A50004801811161C1C0914401D09145014E010D
:100A60008FEF881A980A9092450180924401811470
:100A70009104B9F480915501909156012091530150
:100A800030915401309356012093550190935401B5
:100A900080935301809143018F5F809343010E94B3
:100AA00083018091410190914201B12C88169906F1
:100AB00008F026C1E091AB01F091AC01E689DE9E21
:100AC000F0011124EC57FE4F8081823010F0BB24DE
:100AD000B39480914901811103C0BB2009F425C161
:100AE000C092490122C1D7011696ED91FC91A489CB
:100AF000B5896685778580899189EB019D838C8393
:100B000080899189EC017B836A83BF01645F7F4F99
:100B100011960D911C9112970617170721F4129642
:100B20009C938E931197158A148A8C9181508C9383
:100B3000A285B3858481958166817781EC017D836F
:100B40006C8366817781EB019B838A83CF01029658
:100B500011960D911C9112970817190721F41296FE
:100B60007C936E931197138612862C9121502C93AF
:100B7000A6892091A8012A1710F4A093A8013A9FF2
:100B8000D0011124AC57BE4F11960D90BC91A02DF1
:100B9000B583A48314966D917C91159777836683B2
:100BA00014966D917C911597EB019B838A83159622
:100BB0009C938E9314979689939FD0011124AC57E0
:100BC000BE4FB387A2878C918F5F8C93A091AB01AE
:100BD000B091AC0156968C91891708F022CF4093C2
:100BE00049011FCFE0915501F09156010580F68132
:100BF000E02D0680F781E02D828193818816990689
:100C000028F4909342018093410154CFC285D3854B
:100C10008481958126813781DC0115963C932E9342
:100C2000149726813781D90113969C938E9312973E
:100C3000CF01029649815A814817590711F43A8326
:100C4000298313861286288121502883A489B58997
:100C50001097F9F02685378540895189E9015D8330
:100C60004C8340895189EA013B832A8311966D9117
:100C70007C9112979F01245F3F4F6217730721F405
:100C800012965C934E931197158A148A2C912150D9
:100C90002C93A6892091A8012A1710F4A093A801EB
:100CA000DA9ED0011124AC57BE4F11960D90BC9125
:100CB000A02DB583A48314962D913C91159737836D
:100CC000268314962D913C911597E9019B838A8385
:100CD00015969C938E93149796899D9DD00111240F
:100CE000AC57BE4FB387A2878C918F5F8C93E091F6
:100CF000AB01F091AC018689891710F4BB24B39441
:100D0000E0915501F0915601808181116BCF1093D4
:100D1000420100934101CECE80914601909147015E
:100D200001969093470180934601D1E0ED1AF108B6
:100D300009F08DCE10924701109246018091490131
:100D4000882309F453CE8091AB019091AC010E94AD
:100D50001F0481E04CCECF93DF93EC010E94190475
:100D600060E0CE010E9498020E94DF04811102C05F
:100D70000E941F04DF91CF9108950F920FB6F8944F
:100D80000F921F9211242F923F924F925F926F9277
:100D90007F928F929F92AF92BF92CF92DF92EF920B
:100DA000FF920F931F932F933F934F935F936F93F4
:100DB0007F938F939F93AF93BF93CF93DF93EF93E3
:100DC000FF93A091AB01B091AC010DB60D920EB6A0
:100DD0000D9213BE809148018111F9C080914401A8
:100DE00090914501019690934501809344010097AD
:100DF00081F5209155013091560140915301509158
:100E0000540150935601409355013093540120935F
:100E10005301209143012F5F20934301E09155013D
:100E2000F09156012081211107C02FEF3FEF309341
:100E30004201209341010DC0E0915501F09156010E
:100E40000580F681E02D208131813093420120938D
:100E5000410120914101309142018217930710F422
:100E600020E0A1C020E039E0D32EE0915501F091BF
:100E700056013081311107C08FEF9FEF90934201EF
:100E80008093410190C0E0915501F0915601058099
:100E9000F681E02D0680F781E02D42815381841791
:100EA000950728F450934201409341017CC0A285EC
:100EB000B3854481558166817781EA017D836C83A6
:100EC00066817781EB015B834A83AF014E5F5F4FA1
:100ED00011960D911C9112970417150721F4129683
:100EE0007C936E931197138612863C9131503C93FC
:100EF000A489B5891097F9F06685778500891189ED
:100F0000EB011D830C8300891189E8017B836A83CF
:100F10001196ED90FC901297BF01645F7F4FE6162B
:100F2000F70621F412961C930E931197158A148AD2
:100F30003C9131503C93A6893091A8013A1710F4A6
:100F4000A093A801DA9ED0011124AC57BE4F119690
:100F50000D90BC91A02DB583A48314966D917C91C6
:100F600015977783668314966D917C911597EB01A5
:100F70005B834A8315965C934E93149746894D9DE7
:100F8000D0011124AC57BE4FB387A2873C913F5F7D
:100F90003C93E091AB01F091AC013689341708F035
:100FA00064CF21E062CFE091AB01F091AC01E68922
:100FB000D9E0ED9FF0011124EC57FE4F8081823083
:100FC00008F021E08091490181110EC00AC0809192
:100FD0004601909147010196909347018093460105
:100FE0006CC0222309F469C080914801882321F054
:100FF00081E08093490161C010924901A091AB0149
:10100000B091AC01E091AB01F091AC012D913C911C
:101010008789908D82179307A8F08091AB019091FA
:10102000AC018091AB019091AC01259A2D9A2FEFE4
:1010300087EA91E6215080409040E1F700C000002F
:101040001D9AF5CF2091A80189E001C02150422FBF
:1010500050E0849FF001859FF00D1124EC57FE4F66
:101060009081992399F3A181B28112966D917C911F
:1010700072836183289FC001112489579E4F68178E
:10108000790721F4858196819283818389E0849F09
:10109000F001859FF00D1124EC57FE4F0180F28185
:1010A000E02D868197819093AC018093AB012093D2
:1010B000A8018091AB019091AC01A091AB01B091DE
:1010C000AC01CD91CDBFDD91DEBFFF91EF91DF91FE
:1010D000CF91BF91AF919F918F917F916F915F91D0
:1010E0004F913F912F911F910F91FF90EF90DF90C3
:1010F000CF90BF90AF909F908F907F906F905F90B8
:101100004F903F902F901F900F900FBE0F9008951B
:10111000CF93DF93009751F0EC010E941904CE01A8
:101120000E945A0DDF91CF910C94DF04DF91CF9193
:10113000089580913801811108C080918401823026
:1011400010F00E941F040E94E6000FB6F8940F9260
:10115000E0916501F0916601C681D781CE010296CA
:101160000E949B018091AD0181508093AD018091DF
:1011700038018150809338010F900FBE8F89988D70
:101180000E948808CE010E948808D3CFCF93DF93B6
:10119000EC010E941904CE010E94BE0CEC010E94D9
:1011A000DF04209769F4259A2D9A2FEF80E792E0CB
:1011B000215080409040E1F700C000001D9AF5CF1B
:1011C000CE01DF91CF9108957F928F929F92AF923F
:1011D000BF92CF92DF92EF92FF920F931F93CF9324
:1011E000DF93982EA92E762E872E7A01B22ECA0171
:1011F0000E94C6086C01892B09F4EEC082E390E0DE
:101200000E94C608EC01892B09F4E3C082E3DE01E9
:101210001D928A95E9F7D88ECF8AA70165EA70E01A
:10122000C6010E94F20DB1E0EB1AF108EF89F88DCA
:10123000EE0DFF1D672D782DCE0149969B01205F95
:101240003F4FDB014D91BD01DC014D93CD01AB0161
:1012500041505109DA014C91442319F02617370700
:1012600081F718A6BE8ABBA61B861A861D8A1C8A11
:10127000D987C88784E090E08B1991099D878C8776
:10128000DB8BCA8B9082DF011197AC9211971C9275
:10129000119780E88C9311971C9257971C92119785
:1012A0001C92B397F983E8830115110519F0F80131
:1012B000D183C0830FB6F8940F928091AD018F5FF8
:1012C0008093AD018091AB019091AC01892B09F025
:1012D00092C0D093AC01C093AB018091AD0181303D
:1012E00081F584E891E00E94F4018DE891E00E948C
:1012F000F40186E991E00E94F4018FE991E00E94F7
:10130000F4018BE791E00E94F40182E791E00E94F2
:10131000F40189E691E00E94F40180E691E00E94E8
:10132000F40187E591E00E94F4018BE791E090934E
:1013300056018093550182E791E090935401809388
:1013400053018091A9018F5F8093A90189A7AE897C
:101350008091A8018A1710F4A093A80129E02A9F80
:10136000D0011124AC57BE4F11960D90BC91A02D09
:10137000BD83AC8314968D919C9115979F838E832A
:101380001496ED91FC911597CE010296938382837A
:1013900015969C938E931497EE89E29FF001112489
:1013A000EC57FE4FFB87EA8780818F5F80830F9029
:1013B0000FBE8091AA01882351F0E091AB01F0911A
:1013C000AC0196898E89981710F40E941F0481E061
:1013D00004C0C6010E9488088FEFDF91CF911F9152
:1013E0000F91FF90EF90DF90CF90BF90AF909F90C4
:1013F0008F907F9008958091AA018111A2CFE091F2
:10140000AB01F091AC0196898E89891708F499CFC8
:10141000D093AC01C093AB0194CFCF93DF9300D0B6
:1014200000D01F92CDB7DEB785E0B82ECE01019671
:101430007C01E0913F01F09140011081D12CC12C41
:10144000112329F00580F681E02DC080D1800E9413
:1014500019040E940F044C018091390190913A01C6
:101460008816990608F089C00E947A0290923A0183
:10147000809239010E94DF04D701EB2D1D92EA957D
:10148000E9F700913B0110913C010FB6F8940F92DF
:10149000D8015A96DC905A97DD2009F42FC15C964A
:1014A0004C915C974423F9F050E016968D919C91F5
:1014B0001797840F951F17969C938E9316971496E3
:1014C0002D913C9115978217930738F08D919C913F
:1014D000119717969C938E931697F80166817781E2
:1014E000C7010E94E90DDA94D8015A96DC925A9706
:1014F00018968C91882339F0C80108960E94280319
:1015000081110E941F040F900FBEA980A7FCB9CFC4
:101510000C811D81D8011A968D919C91892B21F007
:10152000C80102960E949B010E940F046C018091E9
:10153000390190913A01C816D90610F40E947A0236
:10154000D0923A01C0923901EFEFEA0DE93008F08C
:1015500098CF0E2E000CFF0BEC54F54FD80153968C
:101560008C9153970C94E30D370B370B7A0B620B6E
:10157000740B370B370B7A0B620B90923A01809207
:101580003901112351F08C149D0470F00E94DF0486
:10159000B401C6010E9450026FCFE0913D01F0916D
:1015A0003E0161E08081811160E000913B0110917A
:1015B0003C010FB6F8940F92D8015D968C915D971F
:1015C0008F3F11F45D961C92F801868D8F3F09F4D0
:1015D000168E0F900FBED8015A968C915A97811192
:1015E0003CC05296ED91FC91A091AB01B091AC0141
:1015F0001F96FC93EE931E97A091AB01B091AC01A6
:101600008481958151969C938E9350978091AB01E4
:101610009091AC01A481B5810C9613969C938E9306
:1016200012978091AB019091AC010C9695838483C5
:10163000E091AB01F091AC01C8014196958B848B90
:10164000F80181898F5F818BC6018819990966230A
:1016500011F08FEF9FEF0E949802C8010E94CD0306
:101660000E94DF04811108CF0E941F0405CF816012
:10167000F801838B8A809B8064857585680D791D50
:101680009401A601C8010E940202882309F4F9CE40
:10169000D80153968C91539782FF10C01C966D9180
:1016A0007C91680D791DA601C8010E942C02D80109
:1016B0005096ED91FC91C8010995E3CE8E7FF8011B
:1016C000838BF5CF816053968C9353976A817B818E
:1016D0001D967C936E931C976C0D7D1D9601A60143
:1016E000C8010E940202CDCE81FD04C0C8010E9443
:1016F0008808C7CE8E7FF801838BC3CE0F900FBEB4
:1017000098CE0F931F93CF93DF93CDB7DEB760973B
:101710000FB6F894DEBF0FBECDBFA7E0B1E0FE016B
:10172000319627E131E0BF018D918193882319F033
:101730002A173B07C9F702E211E020E040EC50E035
:1017400089E998E00E94E408882309F4B9C081304F
:1017500009F0B6C00FB6F8940F9280913B019091BA
:101760003C01892B09F052C08DE291E00E94F40106
:1017700084E291E00E94F4018DE291E090934001B7
:1017800080933F0184E291E090933E0180933D017C
:1017900083E590E00E94C6088C01009799F181963C
:1017A000F801918380838AE0838F85E0848F0FB670
:1017B000F8940F9280819181238D448DBC01249FE8
:1017C000600D711D112475836483128E938382834F
:1017D0002150330B429FB001439F700D1124860F9F
:1017E000971F978386838FEF858F868FC801089612
:1017F0000E94F401C80141960E94F4010F900FBEAF
:10180000F80110A210933C0100933B010F900FBE12
:1018100080913B0190913C01892B09F451C006E372
:1018200011E023E04CE550E06CE071E08DE09AE0DF
:101830000E94E408813009F043C0F8942FEF3FEF95
:1018400030934201209341018093AA0110924501F7
:1018500010924401A89588E190EC0FB6F894A895F1
:10186000809360000FBE90936000A091AB01B09197
:10187000AC01CD91CDBFDD91DEBFFF91EF91DF9146
:10188000CF91BF91AF919F918F917F916F915F9118
:101890004F913F912F911F910F91FF90EF90DF900B
:1018A000CF90BF90AF909F908F907F906F905F9000
:1018B0004F903F902F901F900F900FBE0F90089564
:1018C0008091000160960FB6F894DEBF0FBECDBFC9
:1018D000DF91CF911F910F9108950E94BD06189539
:1018E000789484B5826084BD84B5816084BD85B5FB
:1018F000826085BD85B5816085BDEEE6F0E08081C2
:1019000081608083E1E8F0E01082808182608083E2
:10191000808181608083E0E8F0E080818160808365
:10192000E1EBF0E0808184608083E0EBF0E0808197
:1019300081608083EAE7F0E0808184608083808139
:1019400082608083808181608083808180688083E1
:101950001092C10020910501309106018FEF98E0AF
:10196000821B930B90930201809301010E9411014D
:101970000E94810B0E9411010E94E6000F931F93A9
:10198000CF93DF938230910510F482E090E0E091F4
:10199000B001F091B10130E020E0B0E0A0E030977C
:1019A00099F42115310509F44AC0281B390B24305C
:1019B0003105D8F58A819B816115710589F1FB019B
:1019C00093838283FE0111C0408151810281138182
:1019D00048175907E0F04817590799F4109761F034
:1019E00012960C93129713961C933296CF01DF91A7
:1019F000CF911F910F9108950093B0011093B10101
:101A0000F4CF2115310551F04217530738F0A901E1
:101A1000DB019A01BD01DF01F801C1CFEF01F9CF70
:101A20009093B1018093B001CDCFFE01E20FF31F7F
:101A3000819391932250310939832883D7CF209104
:101A4000AE013091AF01232B41F42091030130917D
:101A500004013093AF012093AE0120910101309138
:101A600002012115310541F42DB73EB74091050122
:101A700050910601241B350BE091AE01F091AF01AE
:101A8000E217F307A0F42E1B3F0B2817390778F055
:101A9000AC014E5F5F4F2417350748F04E0F5F1FB4
:101AA0005093AF014093AE01819391939FCFF0E0AB
:101AB000E0E09CCFCF93DF930097E9F0FC013297F1
:101AC00013821282A091B001B091B101ED0130E01A
:101AD00020E01097A1F420813181820F931F209183
:101AE000AE013091AF012817390709F061C0F093BA
:101AF000AF01E093AE01DF91CF910895EA01CE17D7
:101B0000DF07E8F54A815B819E0141155105B1F778
:101B1000E901FB83EA8349915991C40FD51FEC1762
:101B2000FD0761F4808191810296840F951FE90180
:101B300099838883828193819B838A83F0E0E0E0AC
:101B400012968D919C9113970097B9F52D913C9128
:101B50001197CD010296820F931F2091AE01309113
:101B6000AF012817390739F6309751F51092B101B6
:101B70001092B001B093AF01A093AE01BCCFD3835C
:101B8000C28340815181840F951FC817D90761F422
:101B90004E5F5F4F88819981480F591F5183408361
:101BA0008A819B81938382832115310509F0B0CF0F
:101BB000F093B101E093B0019ECFFD01DC01C0CFF5
:101BC00013821282D7CFEE0FFF1F0590F491E02D04
:101BD0000994FB01DC0102C001900D92415050407C
:101BE000D8F70895DC0101C06D9341505040E0F7F3
:061BF0000895F894FFCFF8
:101BF600030000B201800049444C4500546D722038
:101C0600537663007461736B31007461736B3200D9
:00000001FF
