:100000000C947B000C94A3000C94A3000C94A3000C
:100010000C94A3000C94A3000C94A3000C94A300D4
:100020000C94A3000C94A3000C94A3000C94A300C4
:100030000C94A3000C94A3000C94A3000C94A300B4
:100040000C9427180C94A3000C9497180C94711816
:100050000C94A3000C94A3000C94A3000C94A30094
:100060000C94C9180C94A300000000002400270081
:100070002A00564C35334C305820415049205369A2
:100080006D706C652052616E67696E67206578617E
:100090006D706C650A0A004661696C656420746F56
:1000A00020626F6F7420564C35334C30580000007E
:1000B0000000250028002B000404040404040404A8
:1000C0000202020202020303030303030102040803
:1000D00010204080010204081020010204081020B2
:1000E00000000008000201000003040700000000F7
:1000F00000000000E81911241FBECFEFD8E0DEBFDA
:10010000CDBF12E0A0E0B1E0E8E3F1E402C0059069
:100110000D92A238B107D9F725E0A2E8B2E001C0FC
:100120001D92A53BB207E1F710E0CBE7D0E004C099
:100130002197FE010E948D20CA37D107C9F70E947E
:10014000311A0C949A200C940000CF93DF9300D0C6
:1001500000D0CDB7DEB719821A821B821C8289813A
:100160009A81AB81BC818A3F9105A105B10568F4F4
:10017000000089819A81AB81BC810196A11DB11DCE
:1001800089839A83AB83BC83EACF80E00F900F9082
:100190000F900F90DF91CF9108954F925F926F92E1
:1001A0007F928F929F92AF92BF92CF92DF92EF9207
:1001B000FF920F931F93CF93F9010FEF1FEF980159
:1001C00000831183228333834A015B01B3E0B69439
:1001D000A79497948794BA95D1F76A017B0127E099
:1001E000C222DD24EE24FF2495018401C0E0063004
:1001F00011052105310508F041C0C1113FC0DC01E6
:10020000A00FB11F6C91412C512C32018016910628
:10021000A206B30649F470E00C2C02C075956795F0
:100220000A94E2F726013701462F50E060FF17C01D
:10023000B901A801A3E0440F551F661F771FAA95B7
:10024000D1F7440E551E661E771E4082518262828F
:100250007382C1E00F5F1F4F2F4F3F4FC8CFBA01CE
:10026000759567954FEF441A540A640A740A48E07A
:100270004416510461047104B9F6ECCFCF911F917B
:100280000F91FF90EF90DF90CF90BF90AF909F9035
:100290008F907F906F905F904F90089590E0FC0159
:1002A000E052FF4F2491FC01E453FF4F3491FC01D5
:1002B000E854FF4FE491EE23C9F0222339F02330B4
:1002C00001F1A8F4213019F1223029F1F0E0EE0F0C
:1002D000FF1FE255FF4FA591B4918FB7F894EC91B1
:1002E000611126C030953E233C938FBF089527307F
:1002F000A9F02830C9F0243049F7809180008F7D23
:1003000003C0809180008F7780938000DFCF84B519
:100310008F7784BDDBCF84B58F7DFBCF8091B0001C
:100320008F778093B000D2CF8091B0008F7DF9CFCE
:100330003E2BDACF3FB7F89480915A0390915B033C
:10034000A0915C03B0915D0326B5A89B05C02F3F2B
:1003500019F00196A11DB11D3FBFBA2FA92F982FEB
:100360008827BC01CD01620F711D811D911D42E0E6
:10037000660F771F881F991F4A95D1F70895089532
:100380000895AF92BF92CF92DF92EF92FF920F93B8
:100390001F93CF93DF936C017B018B01040F151F1B
:1003A000EB015E01AE18BF08C017D10759F0699183
:1003B000D601ED91FC910190F081E02DC6010995E7
:1003C000892B79F7C501DF91CF911F910F91FF9094
:1003D000EF90DF90CF90BF90AF900895FC01538DC8
:1003E000448D252F30E0842F90E0821B930B54170F
:1003F00010F0CF96089501970895FC01918D828D9C
:10040000981761F0A28DAE0FBF2FB11D5D968C9134
:10041000928D9F5F9F73928F90E008958FEF9FEF73
:100420000895FC01918D828D981731F0828DE80F2F
:10043000F11D858D90E008958FEF9FEF0895FC01E9
:10044000918D228D892F90E0805C9F4F821B9109B6
:100450008F73992708958EE593E00E941F0221E093
:10046000892B09F420E0822F089580E090E0892B09
:1004700029F00E942B0281110C9400000895FC01C8
:10048000A48DA80FB92FB11DA35ABF4F2C91848DF5
:1004900090E001968F739927848FA689B7892C9352
:1004A000A089B1898C91837080648C93938D848DA5
:1004B000981306C00288F389E02D80818F7D8083A8
:1004C0000895EF92FF920F931F93CF93DF93EC0168
:1004D00081E0888F9B8D8C8D98131AC0E889F989EB
:1004E000808185FF15C09FB7F894EE89FF896083EE
:1004F000E889F98980818370806480839FBF81E06F
:1005000090E0DF91CF911F910F91FF90EF900895B0
:10051000F62E0B8D10E00F5F1F4F0F731127E02E8B
:100520008C8D8E110CC00FB607FCFACFE889F989C3
:10053000808185FFF5CFCE010E943F02F1CFEB8D88
:10054000EC0FFD2FF11DE35AFF4FF0829FB7F89497
:100550000B8FEA89FB8980818062CFCFCF93DF93B5
:10056000EC01888D8823B9F0AA89BB89E889F989CB
:100570008C9185FD03C0808186FD0DC00FB607FC00
:10058000F7CF8C9185FFF2CF808185FFEDCFCE0133
:100590000E943F02E9CFDF91CF9108952091C302DD
:1005A000260F3327331F21323105ECF420910E033F
:1005B000FC0190E080E0243069F082E00895A09191
:1005C000C3022191AC014D555D4FA40FB52FB11D54
:1005D0002C930196861798F38091C302680F60935D
:1005E000C30280E0089581E0089510920E0381E037
:1005F00080930D031092080361E082E10E944E0196
:1006000061E083E10E944E01E9EBF0E080818E7FA2
:10061000808380818D7F808388E48093B80085E427
:100620008093BC000895CF93DF9391E09093A20252
:100630008823B9F0C091B800D091BA008091BC0075
:100640008A7B8093BC0060E082E10E944E0160E002
:1006500083E10E944E010E94F502D093BA00C0933C
:10066000B800DF91CF9108950895E0913B03809108
:100670003A03E81730F4F0E0EC5EFC4F808190E044
:1006800008958FEF9FEF089590913B0380913A0377
:100690002FEF3FEF981748F4E92FF0E0EC5EFC4FA6
:1006A000208130E09F5F90933B03C90108958091C2
:1006B0003A0390913B03891B990B0895CF92DF92E7
:1006C000EF92FF920F931F93CF93DF937C01CB01A7
:1006D0008A012091E702222389F0EB016B01C40E0D
:1006E000D51ECC15DD0569F06991D701ED91FC911E
:1006F0000190F081E02DC7010995F3CF642F0E948E
:10070000CE02C801DF91CF911F910F91FF90EF9022
:10071000DF90CF900895CF93DF931F92CDB7DEB7D0
:1007200069832091E7022223F9F0209138032032D7
:1007300058F021E030E0FC013383228390E080E038
:100740000F90DF91CF91089580913903E82FF0E069
:10075000EE57FD4F998190838F5F8093390380938B
:10076000380381E090E0ECCF61E0CE0101960E9479
:10077000CE02F7CFCF92DF92EF92FF920F931F93AB
:10078000CF93DF93D091380381E0D13208F09CC041
:10079000C091E6020E949A016B017C0180910E03D8
:1007A00081116CC082E080930E0381E080930D0381
:1007B0008FEF80930C0310920B03D0930A03A2E8EF
:1007C000B2E0E8EEF2E080E0D8138DC010920903A9
:1007D00080910903CC0FC82BC093090380910803B3
:1007E000813009F084C0109208030E949A016B01C5
:1007F0007C01809109038093BB008091100390914C
:100800001103A0911203B0911303892B8A2B8B2B18
:10081000A1F00E949A010091100310911103209100
:100820001203309113036C197D098E099F09061775
:1008300017072807390708F442C08091BC0083FDE0
:10084000D8CF85EC8093BC000E949A016B017C019B
:1008500080910E03823009F44CC080910C038F3FCD
:1008600009F469C080910C03803209F466C080915C
:100870000C03803309F463C084E026C08091100328
:1008800090911103A0911203B0911303892B8A2B2D
:100890008B2B09F483CF0E949A01009110031091D1
:1008A000110320911203309113036C197D098E09F5
:1008B0009F09061717072807390708F06FCF80919F
:1008C0000F030E94130385E010923903109238033E
:1008D0001092E702DF91CF911F910F91FF90EF905F
:1008E000DF90CF9008959D9191938F5F6DCF85EEAE
:1008F000A9CF8091100390911103A0911203B091A0
:100900001303892B8A2B8B2B09F4A2CF0E949A0107
:1009100000911003109111032091120330911303E1
:100920006C197D098E099F090617170728073907D3
:1009300008F08ECFC4CF80E0C7CF82E0C5CF83E080
:10094000C3CF8F929F92AF92BF92CF92DF92EF92DE
:10095000FF920F931F93CF93DF936A014801E70142
:1009600091E09093E7028093E6021092390310928F
:100970003803E881F9810190F081E02DC7010995E4
:100980008C0C9D1CC814D90459F0E881F9810190A0
:10099000F081E02DD6016D916D01CE010995F2CF68
:1009A000CE010E94BA0390E080E0DF91CF911F91C9
:1009B0000F91FF90EF90DF90CF90BF90AF909F90FE
:1009C0008F900895EF92FF920F931F93CF93DF9331
:1009D00000D0CDB7DEB7FC01EF5BFE4F70813496DF
:1009E000E080F1804A83598302E010E020E030E0AB
:1009F000AE014F5F5F4F872F0E94A104892B51F0FA
:100A00008CEE0F900F90DF91CF911F910F91FF907F
:100A1000EF90089580E0F5CFEF92FF920F931F9330
:100A2000CF93DF931F92CDB7DEB7FC01EF5BFE4F94
:100A300070813496E080F180498301E010E020E08D
:100A400030E0AE014F5F5F4F872F0E94A104892BDA
:100A500049F08CEE0F90DF91CF911F910F91FF9095
:100A6000EF90089580E0F6CFEF92FF920F931F93DF
:100A7000AB01FC01EB5BFE4FE080F1808F5B9E4F92
:100A800006E010E020E030E060EBFC0180810E9495
:100A9000A104892B31F08CEE1F910F91FF90EF9004
:100AA000089580E0F9CF90E080E0089542E050E0C2
:100AB00067E272E08EE593E00C94C1010F931F93FF
:100AC000CF93DF938C01D0E0C0E0F801EC0FFD1F65
:100AD0006491662341F08EE593E00E946102892BC8
:100AE00011F02196F2CF0E9456058C0F9D1FDF91C9
:100AF000CF911F910F9108954F925F926F927F92C5
:100B00008F929F92AF92BF92CF92DF92EF92FF921D
:100B10000F931F93CF93DF93D82F6A01480181E091
:100B20008093E702D093E6021092390310923803C3
:100B3000D701ED91FC910190F081E02DC70109955D
:100B4000C7010E94BA030E949A012B013C018091C7
:100B50000E03811166C0C82D81E080930E0380933F
:100B60000D039FEF90930C0310920B03980D90933D
:100B70000A038093090380910903DD0FD82BD093DA
:100B8000090380910803813009F086C010920803A0
:100B90000E949A012B013C01809109038093BB00C4
:100BA0008091100390911103A0911203B09113034F
:100BB000892B8A2B8B2BA1F00E949A0100911003A4
:100BC00010911103209112033091130364197509D8
:100BD00086099709061717072807390708F442C03E
:100BE0008091BC0083FDD8CF85EC8093BC000E942F
:100BF0009A012B013C0180910E03813009F44EC013
:100C000080910B038C1710F4C0910B03E8EEF2E017
:100C1000A4E1B3E080E08C1751F191919D938F5F37
:100C2000FACF8091100390911103A0911203B0911B
:100C30001303892B8A2B8B2B09F489CF0E949A01ED
:100C400000911003109111032091120330911303AE
:100C500064197509860997090617170728073907C0
:100C600008F075CF80910F030E941303C0E010922B
:100C70003B03C0933A038C0C9D1CC814D90481F12A
:100C8000D701ED91FC910284F385E02DC701099510
:100C9000F60181936F01F1CF85EEA7CF809110030C
:100CA00090911103A0911203B0911303892B8A2B09
:100CB0008B2B09F4A0CF0E949A0100911003109190
:100CC00011032091120330911303641975098609E9
:100CD0009709061717072807390708F08CCFC2CFE6
:100CE00090E080E0DF91CF911F910F91FF90EF9006
:100CF000DF90CF90BF90AF909F908F907F906F903C
:100D00005F904F9008952F923F924F925F926F9213
:100D10007F928F929F92AF92BF92CF92DF92EF928B
:100D2000FF920F931F93CF93DF93CDB7DEB72F972B
:100D30000FB6F894DEBF0FBECDBF9C878B876D8743
:100D40005F874E873901170128012F82388649862F
:100D50005A8610E000E0EE24E394F12C0A151B05FE
:100D600009F461C09E01295F3F4FB201A1018E8548
:100D70009F850E94CD004F81588569857A854F3FB8
:100D80002FEF52076207720709F49CC0DB01CA010A
:100D90008C549F4FAF4FBF4FE6E0B695A795979500
:100DA0008795EA95D1F7880F991F880F991F8D5065
:100DB0009E4F21E0FC0180819181A281B381892B2A
:100DC0008A2B8B2B09F420E0FD85F2137BC01A01DE
:100DD0002B0133E056944794379427943A95D1F7F2
:100DE000DB01CA0187709927AA27BB2726E02216B4
:100DF00031044104510468F4F301E20DF31D97013D
:100E000002C0220F331F8A95E2F7C9019081892B16
:100E100080831A012B013FEF231A330A430A530A36
:100E20000F5F1F4F9BCFB12CF40120823182428291
:100E30005382B1102DC0B3018B859C850E9434056F
:100E4000B82E811125C0EB85FC85EB5BFE4FE08061
:100E5000F180EB85FC85EF5BFE4F06E010E020E0C3
:100E600030E0AE014F5F5F4F60EB80810E947C05F8
:100E7000892B11F09CEEB92EF301DE011196C3010E
:100E8000069631912D91321320C0E817F907C9F762
:100E90008B2D2F960FB6F894DEBF0FBECDBFDF911E
:100EA000CF911F910F91FF90EF90DF90CF90BF9067
:100EB000AF909F908F907F906F905F904F903F90FA
:100EC0002F9008952EECB22EAFCF8EECB82EE0CF3F
:100ED000CF92DF92EF92FF920F931F93CF93DF9306
:100EE00000D000D0CDB7DEB76A01FC01EB5BFE4F4E
:100EF000E080F1808F5B9E4F04E010E020E030E066
:100F0000AE014F5F5F4FFC0180810E947C054981EB
:100F10005A8154274527542770E060E0762F652FCB
:100F2000542F44272B81422B762F652F542F442793
:100F30002C81422BF6014083518362837383892B7A
:100F400071F480E00F900F900F900F90DF91CF9190
:100F50001F910F91FF90EF90DF90CF9008958CEE4E
:100F6000F1CFCF92DF92EF92FF920F931F93CF9327
:100F7000DF9300D0CDB7DEB76A01FC01EB5BFE4F1B
:100F8000E080F1808F5B9E4F02E010E020E030E0D7
:100F9000AE014F5F5F4FFC0180810E947C0529817B
:100FA0003A81322723273227F60131832083892B88
:100FB00061F480E00F900F90DF91CF911F910F911E
:100FC000FF90EF90DF90CF9008958CEEF3CFEF92EB
:100FD000FF920F931F93CF93DF9300D0CDB7DEB76F
:100FE0008C017A016330710509F449C090F46130D5
:100FF000710509F162307105E1F1F80181A992A949
:10100000A3A9B4A9F70180839183A283B38380E06D
:1010100049C06630710588F7AE014F5F5F4F64E6E7
:101020000E94B10781113EC0298180E0922F990F63
:10103000B0E0A0E0E7CFAE014F5F5F4F64E40E94F5
:10104000B10781112FC0998120E0392F330FA901F9
:1010500070E060E0232BD1F0F7014083518362837D
:101060007383F80145AB56AB67AB70AF91E096A3C5
:1010700019C0FC0181AD92ADA3ADB4ADC3CFFC01ED
:10108000FD9680819181A281B381BCCFF80145A9F1
:1010900056A967A970ADF7014083518362837383BA
:1010A000F80116A20F900F90DF91CF911F910F9131
:1010B000FF90EF9008952F923F924F925F926F9220
:1010C0007F928F929F92AF92BF92CF92DF92EF92D8
:1010D000FF920F931F93CF93DF93CDB7DEB7EC97BB
:1010E0000FB6F894DEBF0FBECDBF6C015B01FC01F3
:1010F000EB5BFE4FE080F18034970CE010E020E0E5
:1011000030E0AE01465E5F4F64E180810E947C0565
:10111000892B09F06FC2D50156961C925697F5019E
:1011200010821182128213822CA130E0322F2227EA
:101130006DA1260F311D14961D921D921D921C92B9
:101140001797E9A1F0E0FE2FEE27FF0F2F01712C7A
:10115000612C1C964D925D926D927C921F978BA193
:1011600090E0982F8827990FAC0170E060E05096CE
:101170004D935D936D937C9353970C8D10E0102FDE
:1011800000278D8D7801E80EF11CFCAEEBAE559674
:10119000FC92EE9254979A8CD601A75CBE4F4D916B
:1011A0005C9111975B978C90483E03E05007E1F10A
:1011B000249FC001259F900D349F900D11248C50C9
:1011C0009E4F68EE73E00E943D209B01D6015D9624
:1011D000ED90FD900D911C9190975A964C9144235F
:1011E00019F16BAD7CAD6E9DA0016F9D500D7E9D84
:1011F000500D1124452F5527E417F50741F420EE33
:101200003AE8882009F407C128EB32E210C0DF0178
:101210000E94732083017F01E41AF50A0109110974
:10122000A80197010E945120882009F4F4C0C90147
:101230009695879596958795D50119969C938E934B
:1012400018972295220F220F207C57962C931FA6C9
:101250001EA6892D90E07C0173E0F594E7947A95C1
:10126000E1F7FAAEE9AE09AD0F70902E09F4D8C0DF
:1012700089AD8D7011E018AB853029F084EF800FB7
:10128000843008F018AA41E06FEFC6010E940C05F7
:10129000811107C0AE01425D5F4F66EBC6010E943F
:1012A000B1079EA520E0392F330F790110E000E04F
:1012B000E9AAFAAA0BAB1CAB811105C040E06FEFA5
:1012C000C6010E940C05F601EE5CFE4FE9A8FAA8E3
:1012D0000BA91CA9E082F1820283138381117FC1D3
:1012E000D60195968C909597882009F4A5C0F501B4
:1012F000E484F584068517855A968C9120E030E0C9
:10130000A901882399F0A489B589F601258D368D28
:10131000478D50A10E9482209B01AC0120583F4F75
:101320004F4F5F4F232F342F452F55272E0D3F1D35
:10133000401F511FA8EEB3E00E94822070588F4FCB
:101340009F4FBC0188279927F601E65DFE4F672B6A
:10135000682B692B09F067C08EEA97E8AFE8B2E026
:1013600080839183A283B3831EEAE12E17E8F12ED6
:101370000FE812E0EDAAFEAA0FAB18AFD5011B963D
:101380001C921E921A97AE01465D5F4F70E060E0BE
:10139000C6010E94E7074AA55BA56CA57DA541157E
:1013A00051056105710559F0FF24F3940DA91EA99B
:1013B0002FA938AD401751076207730708F0F12CC9
:1013C000212C312C81110FC1D60197963C903320EE
:1013D000A9F1AE014A5D5F4F62E070E0C6010E9474
:1013E000E7074EA15FA168A579A5411551056105E3
:1013F000710559F0EE24E39409A91AA92BA93CA977
:10140000401751076207730708F0E12C8823B9F0F1
:10141000212C90E046C0F50131872087178A17CF2D
:1014200001E008AB30CF10821182128213821DAA14
:101430001EAA1FAA18AEA2CFF12CC6CFE12CD6014E
:1014400098962C90222009F4AAC00BAD1CAD011572
:10145000110509F4A0C0962D852D742D66279801DD
:1014600050E040E00E94512029013A01AE014F5F57
:101470005F4F63E070E0C6010E94E70749815A812F
:101480006B817C81411551056105710531F091E059
:10149000441655066606770608F090E0882309F49E
:1014A0007FC0D5011B961C921E921A9780E0811076
:1014B00002C0FF24F394F60136A1F3A6F4E09F16D0
:1014C00009F4B2C021E0311120E0D6019C962C93A2
:1014D000311002C0EE24E394F601E5A6211001C00C
:1014E00091E0D6019E969C93F501808FFAE4CF0E91
:1014F000D11C99E1F601DE01119601900D929A95A9
:10150000E1F7F501A085B1859789028513854484AB
:1015100055846684778440895189628973892489D6
:10152000358984809580A680B7808D829E82AF8227
:10153000B886BA87A9871C870B874D865E866F861B
:10154000788A498B5A8B6B8B7C8B3E8B2D8B988F3B
:10155000898F89E1FE013196D60101900D928A951D
:10156000E1F780E0EC960FB6F894DEBF0FBECDBF7A
:10157000DF91CF911F910F91FF90EF90DF90CF906F
:10158000BF90AF909F908F907F906F905F904F90A3
:101590003F902F900895412C512C320167CF90E05D
:1015A00018A98FEF113009F482CF890D8330F0F044
:1015B00026E0921609F139E09316F1F089AD8D70AD
:1015C0008830B1F041E0E41699F054E0951621F12D
:1015D0009130E9F0F416E9F09F2DEF2C62CF212C29
:1015E000312C812CF12C90E0E12C5BCF85E05FCF9A
:1015F00083E05DCF8CEEB6CF84E081105CCFD60166
:1016000096963C91969721E09B962C935BCF82E037
:10161000F4CFE92E81E0F1CF82E081104CCF81E060
:10162000F60183A7E12C82E021E04FCF8F929F92B9
:10163000AF92BF92CF92DF92EF92FF920F931F93E0
:10164000CF93DF9300D0CDB7DEB7962ED42E822E67
:10165000FC01EF5BFE4FC0805C012BEBA21A2EEF6A
:10166000B20AF501E080F18001E010E020E030E016
:10167000AE014E5F5F4F8C2D0E947C05892BA9F433
:101680002A812D2128292A83F501E080F1802983F0
:1016900001E010E020E030E0AE014F5F5F4F692DC8
:1016A0008C2D0E94A104892B81F08CEE0F900F905D
:1016B000DF91CF911F910F91FF90EF90DF90CF902E
:1016C000BF90AF909F908F90089580E0EFCFEF9202
:1016D000FF920F931F93FC01EB5BFE4FE080F180C4
:1016E0008F5B9E4F01E010E020E030E0FC01808144
:1016F0000E947C05892B31F08CEE1F910F91FF9099
:10170000EF90089580E0F9CF9F92AF92BF92CF9271
:10171000DF92EF92FF920F931F93CF93DF931F926D
:10172000CDB7DEB77C015B016A01922E198241E0E0
:101730006FEF0E940C05182F40E060E0C7010E9487
:101740000C05182B40E06FEFC7010E940C05182B09
:10175000992031F0A5016BECC7010E94670B182B93
:10176000002341F0AE014F5F5F4F6EEEC7010E9454
:10177000670B182B41E06FEFC7010E940C05182B77
:1017800041E060E0C7010E940C05182B40E06FEFBC
:10179000C7010E940C0599819F7EF6019083812BE1
:1017A0000F90DF91CF911F910F91FF90EF90DF90FD
:1017B000CF90BF90AF909F900895EF92FF920F93BC
:1017C0001F93CF93DF931F92CDB7DEB77C0100E06C
:1017D00041E06BE0C7010E940C05182F40E06BE070
:1017E000C7010E940C05182BAE014F5F5F4F63E1EC
:1017F000C7010E94670B812B0F5F9981977061F081
:10180000033061F0882321F30F90DF91CF911F9176
:101810000F91FF90EF9008950330B1F784EFF4CF6C
:101820000F931F93CF93DF931F92CDB7DEB78A013B
:10183000AE014F5F5F4F613081F060E50E94670B42
:10184000811105C099819F5F990FF80190830F90D6
:10185000DF91CF911F910F91089560E7EFCFCF9265
:10186000DF92EF92FF921F93CF93DF931F92CDB73A
:10187000DEB77C0140E063E80E940C05182F81115F
:1018800017C0D12CC12CAE014F5F5F4F63E8C70179
:101890000E94670B182F898181110AC0111108C09D
:1018A0008FEFC81AD80A88ECC816D10461F719EF6F
:1018B00041E063E8C7010E940C05812B0F90DF9186
:1018C000CF911F91FF90EF90DF90CF900895CF922E
:1018D000DF92EF92FF920F931F93CF93DF931F92AC
:1018E000CDB7DEB77C0110E000E06C018EECC80ED5
:1018F000D11CF6018081AE014F5F5F4F8430A9F4A7
:1019000063E1C7010E94670B9981292F27709871A5
:1019100011F58823D9F00F90DF91CF911F910F918E
:10192000FF90EF90DF90CF90089564E1C7010E948F
:10193000670B8111F0CF998190FDEDCF0F5F1F4FA5
:10194000083C110531F00E94A500D3CF2430B1F737
:10195000E2CF89EFE0CF8AEFDECFCF93DF93EC01C8
:10196000462F416060E00E940C05811111C0CE013C
:101970000E94670C81110CC0CE010E94DD0B811109
:1019800007C040E060E0CE01DF91CF910C940C05E0
:10199000DF91CF9108950F931F93CF93DF931F9201
:1019A000CDB7DEB78B011982AE014F5F5F4F61E0AB
:1019B0000E94670B811116C0998194FB332730F97F
:1019C000F801308393FB332730F9328392FB3327BE
:1019D00030F9318396FB222720F92383991F992719
:1019E000991F94830F90DF91CF911F910F910895CC
:1019F0002F923F924F925F926F927F928F929F921F
:101A0000AF92BF92CF92DF92EF92FF921F93CF934C
:101A1000DF93CDB7DEB72B970FB6F894DEBF0FBEBE
:101A2000CDBF6C011A011B861F821E82623009F035
:101A30006EC0AE01465F5F4F60E00E94100C182F31
:101A4000811108C0AE01455F5F4F66E4C6010E9488
:101A5000670B182FAA85B0E020E03FE24AE350E090
:101A60000E9482202B013C0124EF420E21E0521EF5
:101A7000611C711CCB84D12CF12CE12C8FEFC81A86
:101A8000D80AE80AF80A98EE892E93E0992EA12C3C
:101A9000B12CC301B201A50194010E945120CA01D9
:101AA000B901A70196010E942D206B017C01C301A1
:101AB000B20120ED37E040E050E00E945120C70124
:101AC000B601620F731F841F951FA50194010E9428
:101AD0005120F1012083318342835383812F2B9640
:101AE0000FB6F894DEBF0FBECDBFDF91CF911F912F
:101AF000FF90EF90DF90CF90BF90AF909F908F902E
:101B00007F906F905F904F903F902F90089563303B
:101B100009F043C0AE01465F5F4F60E00E94100CC9
:101B2000182F20E030E0A9018111D3CFAE01465F2C
:101B30005F4F60E0C6010E94100C182F811108C091
:101B4000AE014A5F5F4F61E5C6010E94B107182FE1
:101B5000EE81FF81AA85B0E020E03FE24AE350E059
:101B60000E9482202B013C0124EF420E21E0521EF4
:101B7000611C711C6F01DD24F12CE12C04C0CC0C24
:101B8000DD1CEE1CFF1CFA95D2F78FEFC81AD80A9D
:101B9000E80AF80AEE24FF2476CFBE016F5F7F4F7C
:101BA0000E94CB0C8C81882351F1AE01465F5F4FC0
:101BB00060E0C6010E94100C182FF12CE12C81115D
:101BC0001BC0AE014A5F5F4F61E5C6010E94B107CD
:101BD000182F2E813F81C9019927B0E0A0E004C0F1
:101BE000880F991FAA1FBB1F3A95D2F70196A11D16
:101BF000B11D7C01112329F0D12CC12C25C0F12C61
:101C0000E12CAE01465F5F4F61E0C6010E94100CFF
:101C1000182F8111F1CFAE01485F5F4F61E7C60118
:101C20000E94B107182F28853985C9019927B0E08E
:101C3000A0E004C0880F991FAA1FBB1F3A95D2F7D6
:101C40000196A11DB11D6C01AA85B0E020E03FE224
:101C50004AE350E00E9482202B013C01E4EF4E0E4B
:101C6000E1E05E1E611C711C88EE882E83E0982ED8
:101C7000A12CB12CC301B201A50194010E945120F5
:101C8000D601AE19BF090E9482200FCF4F925F92FA
:101C90006F927F92BF92CF92DF92EF92FF920F935B
:101CA0001F93CF93DF9300D000D0CDB7DEB78A016A
:101CB000AE014F5F5F4F0E94F80CB82E81112AC011
:101CC00069817A818B819C8128EE422E23E0522EFD
:101CD000612C712CA30192010E94512069017A01AB
:101CE0009B01AC01AFEFBFEF0E9482206C507E4F92
:101CF0008F4F9F4FA30192010E9451207601DD2456
:101D0000CC24C20ED31EE41EF51EF801C082D1827F
:101D1000E282F3828B2D0F900F900F900F90DF9146
:101D2000CF911F910F91FF90EF90DF90CF90BF90D8
:101D30007F906F905F904F9008955F926F927F9227
:101D40008F929F92AF92BF92CF92DF92EF92FF92CB
:101D50000F931F93CF93DF93CDB7DEB761970FB685
:101D6000F894DEBF0FBECDBF7C018B01FC018089E2
:101D7000FB018083AE014A5F5F4F68EFC7010E949D
:101D8000B107582E81113AC1AE014F5F5F4F64E039
:101D9000C7010E946807582E811130C12E813F81F2
:101DA0002115310569F050E040E069817A818B812D
:101DB0009C810E945120F8012683378340875187F8
:101DC000F80186819781A085B185F701868B978B75
:101DD000A08FB18FF8011286AE014F5F5F4F60E2B6
:101DE000C7010E94B107582E811108C189819A81CB
:101DF000009709F01AC1F701858D968DA78DB0A1C6
:101E0000F80185879687A787B08BF701128EAE0100
:101E10004F5F5F4F68E2C7010E94B107582E8111E2
:101E2000EDC089819A819F708115F8E09F0708F0C5
:101E300090514AEF489F9001499F300D1124C901EC
:101E4000330FAA0BBB0BF801818B928BA38BB48B46
:101E50005801F1E2AF0EB11C470125E2820E911C40
:101E6000380185E1680E711CD12CC12CA501B60189
:101E7000C7010E94E707582E8111C0C0F40181916B
:101E80004F01F30181933F01FFEFCF1ADF0A24E0F6
:101E9000A20EB11C86E0C816D10441F7AE014F5F17
:101EA0005F4F61E0C7010E94670B582E8111A6C0E9
:101EB0008981F701E35EFE4F808387FFCAC081E01E
:101EC000F80181AFF80181ADF701E75BFF4F808337
:101ED00080ED97E0A0E0B0E08A879B87AC87BD8764
:101EE0001E821F821886198686E39BE0A0E0B0E080
:101EF000F80182839383A483B583BE016F5F7F4F14
:101F0000C7010E94CB0C582E811178C089818111A4
:101F100007C08A81811104C08B81882309F43EC0E7
:101F2000AE01465F5F4F62E0C7010E94F80C81116D
:101F3000C1C089818823A9F08A859B85AC85BD8530
:101F4000825B9D4FAF4FBF4FF80142815381648147
:101F50007581840F951FA61FB71F82839383A48367
:101F6000B5838B81882309F477C08A859B85AC85EE
:101F7000BD858E549D4FAF4FBF4F880F991FAA1F2D
:101F8000BB1FF8014281538164817581840F951FC5
:101F9000A61FB71F82839383A483B5838C8181118D
:101FA00068C08D81882301F1AE01425F5F4F64E01C
:101FB000C7010E94F80C8E849F84A888B988F6E235
:101FC0008F0EF2E09F1EA11CB11CF80142815381CB
:101FD00064817581480D591D6A1D7B1D42835383A1
:101FE00064837583811166C0F80182819381A48125
:101FF000B581F701828B938BA48BB58B852D619670
:102000000FB6F894DEBF0FBECDBFDF91CF911F9109
:102010000F91FF90EF90DF90CF90BF90AF909F9087
:102020008F907F906F905F90089533E0880F991F95
:102030003A95E1F7B0E0A0E0F80185879687A78799
:10204000B08BF701858F968FA78FB0A381E0828F29
:10205000DECEF80111AE36CF8A81882309F49ECFF7
:102060008A859B85AC85BD858C569D4FAF4FBF4FF4
:1020700088CFAE014A5F5F4F63E0C7010E94F80C52
:102080008E809F80A884B984F4E98F0EF2E09F1EB1
:10209000A11CB11CF8014281538164817581480DF6
:1020A000591D6A1D7B1D4283538364837583882376
:1020B00009F477CF582EA2CF2F923F924F925F9282
:1020C0006F927F928F929F92AF92BF92CF92DF9248
:1020D000EF92FF920F931F93CF93DF93CDB7DEB7AD
:1020E00069970FB6F894DEBF0FBECDBF00ED17E0C5
:1020F00020E030E00B871C872D873E871F86188ADB
:10210000198A1A8A40322EE4520761057105E0F4FB
:102110005CEFB52E8B2D69960FB6F894DEBF0FBE1F
:10212000CDBFDF91CF911F910F91FF90EF90DF9086
:10213000CF90BF90AF909F908F907F906F905F9067
:102140004F903F902F9008954E8B5F8B688F798FC3
:102150008C01BE016A5F7F4F0E94CB0CB82E8111AB
:10216000D9CFCE88DF88E88CF98C88EEC81A88E051
:10217000D80AE108F1088E81811106C08F81811192
:1021800003C088858823C1F1AE01455F5F4F62E0DF
:10219000C8010E94F80C81110AC18E81882391F038
:1021A0008B859C85AD85BE85825B9D4FAF4FBF4FB4
:1021B0008C159D05AE05BF0508F0AACFC81AD90A2F
:1021C000EA0AFB0A8885882309F471C08B859C85FF
:1021D000AD85BE858E549D4FAF4FBF4F880F991F61
:1021E000AA1FBB1F8C159D05AE05BF0508F090CF3B
:1021F000C81AD90AEA0AFB0A89858823D9F0AE01F0
:10220000415F5F4F63E0C8010E94F80C4F85588919
:1022100069897A894C565D4F6F4F7F4F4C155D052C
:102220006E057F0508F074CF8111C1C0C41AD50AAC
:10223000E60AF70A8A85882309F46CCFBE016F5F2E
:102240007F4FC8010E94CB0C8C818823E9F1AE013D
:102250004B5E5F4F60E0C8010E94100CB82E8111E8
:102260001CC0AE014D5E5F4F61E5C8010E94B10721
:10227000B82E8B899C891C013324512C412C04C01D
:10228000220C331C441C551C9A95D2F79FEF291A37
:10229000390A490A590ABB20C9F08E899F89A88D3D
:1022A000B98DF801828B938BA48BB58B33CF8F8143
:1022B000882309F4A1CF8B859C85AD85BE858C567E
:1022C0009D4FAF4FBF4F8ECF312C212CAE014B5EB7
:1022D0005F4F61E0C8010E94100CB82E8111DDCF64
:1022E000A6E2CA1AA2E0DA0AE108F108AD89B0E074
:1022F00020E03FE24AE350E00E9482204B015C0173
:10230000B4EF8B0EB1E09B1EA11CB11CA8EEB3E094
:10231000A70196010E9482202B013C01C501B40156
:1023200020ED37E040E050E00E945120420E531E65
:10233000641E751EC501B40128EE33E040E050E094
:102340000E945120C301B2010E945120220E331E6F
:1023500021143104E1F04101B12CA12CE1E08E1AED
:102360009108A108B10890E080E0B501A4014427DC
:10237000452B462B472B31F0B694A794979487941E
:102380000196F3CF982F88271C01280C391CA10136
:1023900061E7C8010E94E204B82E81117ECFF801E6
:1023A000E153FF4FC082D182E282F38276CFB82E12
:1023B000B1CE7F928F929F92AF92BF92CF92DF92D7
:1023C000EF92FF920F931F93CF93DF931F92CDB79E
:1023D000DEB77C015B016A01722E4C0183EE881A24
:1023E0008EEF980AF4011081198241E061E0C70183
:1023F0000E940C0581114AC060E4C7010E94AD0C27
:10240000811144C0F1E07F121AC000E021E0AE016A
:102410004F5F5F4FB501C7010E94840B882389F08D
:102420000F90DF91CF911F910F91FF90EF90DF9070
:10243000CF90BF90AF909F908F907F900895F501BF
:10244000108242E061E0C7010E940C05811124C0A6
:1024500060E0C7010E94AD0C81111EC0F1E07F1247
:1024600018C001E020E0A601BE016F5F7F4FC701E9
:102470000E94840B8111D4CF412F61E0C7010E94DB
:102480000C058111CDCFF4011083CACFF501108264
:10249000C7CFF6011082F0CFF601F9CF7F928F926D
:1024A0009F92AF92BF92CF92DF92EF92FF920F93E3
:1024B0001F93CF93DF93CDB7DEB769970FB6F8942C
:1024C000DEBF0FBECDBF8C016B017C0183EEE81A2D
:1024D0008EEFF80AF701708040EC61E0C8010E94BD
:1024E0000C05811145C0F801108A41E060E8C8017F
:1024F0000E940C0541E06FEFC8010E940C0540E00E
:1025000060E0C8010E940C05F801E95DFE4F4081C2
:1025100061E9C8010E940C0541E060E0C8010E9429
:102520000C0540E06FEFC8010E940C0540E060E838
:10253000C8010E940C0541E060E0C8010E940C0542
:10254000811116C091E09983812C912C5401FFEFE9
:102550008F1A9F0AAF0ABF0A998190FF25C0811187
:1025600061C088EC88169104A104B104A9F489EF34
:1025700069960FB6F894DEBF0FBECDBFDF91CF9145
:102580001F910F91FF90EF90DF90CF90BF90AF9091
:102590009F908F907F900895AE014F5F5F4F60E0F6
:1025A000C8010E94670BD3CF98EC89169104A1044F
:1025B000B104E9F28111DCCFC8010E94670C8111DE
:1025C000D7CF83E0F801E15EFE4F8083BE016F5FED
:1025D0007F4FC8010E945B088111CACFC8010E94C9
:1025E000DD0B8111C5CF41E06FEFC8010E940C05E2
:1025F0008111BECFA60166EBC8010E94B10781110F
:10260000B7CF40E06FEFC8010E940C058111B0CF39
:10261000472D61E0C8010E940C058111A9CFF70187
:102620007082A6CFF8EC8F169104A104B10409F0D2
:102630009FCF9DCF2F923F924F925F926F927F924A
:102640008F929F92AF92BF92CF92DF92EF92FF92C2
:102650000F931F93CF93DF93CDB7DEB7AC970FB631
:10266000F894DEBF0FBECDBF1C017FA36EA359A798
:1026700048A71F82188619861A861B861C861D8607
:102680001E86198A1A8AFC01E85DFE4F208131817D
:10269000398F288FAC014F5E5E4F5B8F4A8FDA0116
:1026A0001C922C01BEEE4B1ABEEF5B0AF2011082A7
:1026B0003C01FDEE6F1AFEEF7F0AD3011C92FC0174
:1026C000EC5EFE4F1082319610823196108241E00E
:1026D0006FEF0E940C058B8B81111DC140E06FE4F0
:1026E000C1010E940C058B8B811115C14CE26EE477
:1026F000C1010E940C058B8B81110DC140E06FEF71
:10270000C1010E940C058B8B811105C144EB66EB66
:10271000C1010E940C058B8B8111FDC040E060E877
:10272000C1010E940C058B8B8111F5C020E0AE0128
:102730004E5E5F4FBE016F5E7F4FC1010E94D91197
:102740008B8B8111E8C01F82188619861A86F101C9
:10275000E95EFE4FFD8FEC8F9E01295F3F4F4901DF
:10276000A3E0AA2EB12CC12CD12CE12CF12C870195
:102770002A8D3B8DAF0160E0C1010E9483068B8BE7
:102780008111C9C04F81588569857A854C8B5D8BD5
:102790006E8B7F8BBE01615F7F4FC1010E944E1225
:1027A0008B8B8111B8C08F859889688D798D68175A
:1027B000790708F0D3C0AA8DBB8D1C92F20110825C
:1027C000D3011C923296108231961082319610827B
:1027D0008C899D89AE89BF898C549F4FAF4FBF4F65
:1027E000E6E0B695A79597958795EA95D1F7880F76
:1027F000991F880F991F8D509E4FFC0180819181F8
:10280000A281B381892B8A2B8B2B91F42C893D8952
:102810004E895F892C3231054105510548F42F5FFF
:102820003F4F4F4F5F4F2C8B3D8B4E8B5F8BD0CFED
:10283000AE01495F5F4F4A0173E0A72EB12CC12C56
:10284000D12CEC88FD880E891F892A8D3B8D4C8DFB
:102850005D8D61E0C1010E948306811159C16F81C4
:10286000788589859A856C8B7D8B8E8B9F8BBE013D
:10287000615F7F4FC1010E944E12811149C18F8556
:102880009889A88DB98D11E063E0462E512C612CFA
:10289000712CA817B90720F010E0412C512C3201FF
:1028A000C12CD12C7601C39460C0D501C40101961E
:1028B000A11DB11D8C8B9D8BAE8BBF8B86E0EAA5D5
:1028C000FBA5ACA5B02F01900D928A95E1F74E8C37
:1028D0005F8C68A079A04AA35BA36CA37DA36FC0A3
:1028E0004E8C5F8C68A079A0AEA1BFA14D925D9285
:1028F0006D927C921397E8A5F9A51083F101EC5F26
:10290000FE4F81E0808332978C918083A8A5B9A582
:102910008C91319680838B89AC960FB6F894DEBF8C
:102920000FBECDBFDF91CF911F910F91FF90EF9020
:10293000DF90CF90BF90AF909F908F907F906F90DF
:102940005F904F903F902F900895BEECBB8BE3CFEC
:10295000EEECEB8BE0CFFEECFB8BDDCF10E0412CFF
:10296000512C3201C12CD12C76018F859889288D6C
:10297000398D8217930708F0B7CF46E0EA8DFB8DBB
:102980009E012F5F3F4FD90101900D924A95E1F7CB
:10299000E88DF98D8E1B9F0BAC0170E060E04AA3BF
:1029A0005BA36CA37DA353E0452E512C612C712CAD
:1029B000B1016F5E7E4F7BA76AA72CA7032F9E01F4
:1029C000255F3F4F4C895D896E897F898C8D9D8DF8
:1029D0000E94CD008B849C84AD84BE847FEF8716DB
:1029E0009706A706B70609F4B0CFD301C201019636
:1029F000A11DB11D8E8F9F8FA8A3B9A3D501C401BE
:102A00008C549F4FAF4FBF4F36E0B695A795979523
:102A100087953A95D1F7880F991F880F991F8D5088
:102A20009E4F11E0FC0180819181A281B381892BAD
:102A30008A2B8B2B09F410E0812F90E0B0E0A0E00E
:102A40008C159D05AE05BF0509F082CFD501C401E7
:102A500023E0B695A795979587952A95D1F7B50167
:102A6000A401477055276627772786309105A10571
:102A7000B10508F070CFEA8DFB8DE80FF91F21E05A
:102A800030E001C0220F4A95EAF78081822B8083D3
:102A90006A8D7B8DC1010E943405811139C0BE0150
:102AA000615F7F4FC1010E944E12811131C08F853D
:102AB0009889288D398DAC01421B530B82179307DF
:102AC00011F450E040E070E060E0A88DB98DA817E7
:102AD000B90708F0EACE8AA19BA1ACA1BDA18417D9
:102AE0009507A607B70708F0FBCEBE016F5F7F4FC3
:102AF000C1010E94340596E0FE013196D101AF5E1E
:102B0000BE4F01900D929A95E1F7882309F4ECCE1F
:102B10008B8B01CF9F92AF92BF92CF92DF92EF92B9
:102B2000FF920F931F93CF93DF93CDB7DEB7A0979C
:102B30000FB6F894DEBF0FBECDBF6C012FEDC20EF5
:102B4000D11CF601A080F7E0F12CAF1609F4EEC01D
:102B5000B62E8C0141E060E80E940C05F82E41E0A1
:102B60006FEFC8010E940C05F82A40E060E0C80140
:102B70000E940C05F82A46E06FEFC8010E940C0580
:102B8000F82AAE01425E5F4F63E8C8010E94670BFE
:102B9000F82A4E8D446063E8C8010E940C05F82AAB
:102BA00047E06FEFC8010E940C05F82A41E061E898
:102BB000C8010E940C05F82A0E94A500F82A41E0ED
:102BC00060E8C8010E940C05F82A21E0B212C1C0D9
:102BD000A0FC02C24BE664E9C8010E940C05E82E85
:102BE000C8010E942F0C8E29F82AAE01465E5F4F65
:102BF00060E9C8010E946807F82A8A8D9B8DAC8D18
:102C0000BD8D992EE89497F897FBEE24E0F844E206
:102C100064E9C8010E940C05F82AC8010E942F0C23
:102C2000F82AAE01465E5F4F60E9C8010E9468075E
:102C3000F82A8A8D9B8D2C8D3D8D3C8B2D8B9E8B08
:102C40008F8B45E264E9C8010E940C05F82AC8018F
:102C50000E942F0CF82AAE01465E5F4F60E9C80162
:102C60000E946807F82A8C8D9D8D988F898F40E08F
:102C700061E8C8010E940C05F82A46E06FEFC80120
:102C80000E940C05F82AAE01425E5F4F63E8C8015E
:102C90000E94670BF82A4E8D4B7F63E8C8010E94A3
:102CA0000C05F82A41E06FEFC8010E940C05F82AD4
:102CB00041E060E0C8010E940C05F82A40E06FEF97
:102CC000C8010E940C05F82A40E060E8C8010E9493
:102CD0000C05F82A59F5F1E0BF1699F0A1FC23C0C4
:102CE000F801E052FF4F8F8D8083319688A1808359
:102CF000BE016F5F7F4FC8018E519F4F0E9493208E
:102D000012C0A0FC10C0F801EE5FFE4F9082319619
:102D1000E082DE0154967496035E1E4F8D9181937E
:102D20000E171F07D9F7BA28F601B0828F2DA0968B
:102D30000FB6F894DEBF0FBECDBFDF91CF911F91CC
:102D40000F91FF90EF90DF90CF90BF90AF909F904A
:102D50000895A1FC41C142E064E9C8010E940C054C
:102D6000E82EC8010E942F0C8E29F82AAE01415E80
:102D70005F4F60E9C8010E94670BF82A4BE764E9DE
:102D8000C8010E940C05F82AC8010E942F0CF82ADD
:102D9000AE01405E5F4F60E9C8010E94670BF82AF0
:102DA00047E764E9C8010E940C05F82AC8010E949F
:102DB0002F0CF82AAE01465E5F4F60E9C8010E9401
:102DC0006807F82A4A8D5B8D6C8D7D8DDB01CA0109
:102DD00029E1B695A795979587952A95D1F7898387
:102DE000DB01CA0132E1B695A795979587953A958B
:102DF000D1F78F778A83DB01CA01EBE0B695A795FF
:102E000097958795EA95D1F78F778B83DB01CA0178
:102E1000F4E0B695A79597958795FA95D1F78F77B2
:102E20008C83440F440F440F48774E8F48E764E982
:102E3000C8010E940C05F82AC8010E942F0CF82A2C
:102E4000AE01465E5F4F60E9C8010E946807F82A3C
:102E50008A8D9B8DAC8DBD8DAC01BD012DE176952C
:102E60006795579547952A95D1F72E8D240F2D8379
:102E7000AC01BD0136E176956795579547953A9532
:102E8000D1F74F774E83AC01BD01EFE076956795A2
:102E900057954795EA95D1F74F774F83292F2F778D
:102EA0002887AC01BD0176956795579547954F7773
:102EB0004987982F9295990F990F90749E8F49E7A3
:102EC00064E9C8010E940C05F82AC8010E942F0C71
:102ED000F82AAE01465E5F4F60E9C8010E946807AC
:102EE000F82A8A8D9B8DAC8DBD8DAC01BD012AE188
:102EF00076956795579547952A95D1F72E8D240F8E
:102F00002A87AC01BD0133E17695679557954795C2
:102F10003A95D1F74F774B87AC01BD01ECE0769540
:102F2000679557954795EA95D1F74F774C87AC0150
:102F3000BD01F5E07695679557954795FA95D1F7D8
:102F40004F774D87982F990F990F9C779E8F4AE75F
:102F500064E9C8010E940C05F82AC8010E942F0CE0
:102F6000F82AAE01465E5F4F60E9C8010E9468071B
:102F7000F82A8A8D9B8DAC8DBD8DAC01BD012EE1F3
:102F800076956795579547952A95D1F72E8D240FFD
:102F90002E87AC01BD0137E176956795579547952A
:102FA0003A95D1F74F774F872A2F2F77288BAC018F
:102FB000BD01E9E07695679557954795EA95D1F774
:102FC0004F77498BF2E0B695A79597958795FA9537
:102FD000D1F78F778A8B1B8AE12C912C48CE85ED17
:102FE0008093BC008091100390911103A091120373
:102FF000B09113030796A11DB11D23E0B695A795C7
:10300000979587952A95D1F72091BC0024FD03C0A0
:1030100010920E0308954091100350911103609196
:10302000120370911303452B462B472B69F300972E
:10303000A105B10541F02AE22A95F1F700C00197F8
:10304000A109B109E1CF80910F030C9413031F92E2
:103050000F920FB60F9211242F933F938F939F934C
:10306000AF93BF938091560390915703A09158035B
:10307000B09159033091550323E0230F2D3758F5B4
:103080000196A11DB11D2093550380935603909383
:103090005703A0935803B093590380915A0390911A
:1030A0005B03A0915C03B0915D030196A11DB11D6E
:1030B00080935A0390935B03A0935C03B0935D03EA
:1030C000BF91AF919F918F913F912F910F900FBE24
:1030D0000F901F90189526E8230F0296A11DB11D91
:1030E000D2CF1F920F920FB60F9211242F933F93BE
:1030F0004F935F936F937F938F939F93AF93BF9300
:10310000EF93FF938EE593E00E943F02FF91EF91D2
:10311000BF91AF919F918F917F916F915F914F91EF
:103120003F912F910F900FBE0F901F9018951F92F7
:103130000F920FB60F9211242F938F939F93EF93BB
:10314000FF93E0916E03F0916F038081E09174032F
:10315000F091750382FD1BC09081809177038F5F92
:103160008F7320917803821741F0E0917703F0E0AC
:10317000E25AFC4F958F80937703FF91EF919F91D7
:103180008F912F910F900FBE0F901F9018958081F7
:10319000F4CF1F920F920FB60F9211242F933F93EB
:1031A0004F935F936F937F938F939F93AF93BF934F
:1031B000EF93FF938091B900887F803609F44AC06D
:1031C000F0F5883209F4A7C018F5803109F49BC0E6
:1031D000B8F4882309F4F9C0883009F494C0FF9149
:1031E000EF91BF91AF919F918F917F916F915F917F
:1031F0004F913F912F910F900FBE0F901F901895F8
:10320000883109F488C0803251F780930C0314C0D0
:10321000803409F49DC040F48033B9F38833F9F663
:1032200080930C0385ECB0C0803509F485C08835E7
:1032300009F496C0883499F60E94EF17D0CF8839E8
:1032400009F48CC038F5883729F050F4883611F02D
:10325000803729F683E080930E031092E50257C071
:10326000883809F47BC0803919F0803809F0B7CF6D
:103270008091E502803208F071C0E091E50281E0C2
:103280008E0F8093E5028091BB00F0E0EB53FD4F81
:1032900080833DC0803B39F0E0F4803A09F479C086
:1032A000883A09F09CCF84E080930E031092C40208
:1032B0001092C302E0913603F09137030995809193
:1032C000C30281110FC081E08093C3021092A30258
:1032D00009C0803C09F4A6CF883C09F4A3CF883B01
:1032E00009F07DCFE091C40281E08E0F8093C4028B
:1032F000F0E0ED55FD4F80818093BB009091C402BA
:103300008091C30229C0809109038093BB0085ECA2
:103310008093BC0064CF90910B0380910A039817AF
:1033200058F5E0910B0381E08E0F80930B03F0E0E2
:10333000E851FD4F8081E9CFE0910B0381E08E0FD2
:1033400080930B038091BB00F0E0E851FD4F808338
:1033500090910B0380910A039817C8F285E8D8CFA3
:10336000E0910B0381E08E0F80930B038091BB00F3
:10337000F0E0E851FD4F808380910D0381115CCF17
:1033800081E08093080384EA8093BC0010920E03CE
:1033900026CF85EC8093BC0010920E038091E5024D
:1033A000803230F4E091E502F0E0EB53FD4F108203
:1033B0006091E50270E0E0913403F091350385EC13
:1033C00092E009951092E5020ACF10920C0334CFD7
:1033D000EEE5F3E01382128288EE93E0A0E0B0E025
:1033E00084839583A683B78327E032E031832083EB
:1033F00025EC30E03587248724EC30E037872687BA
:1034000020EC30E0318B208B21EC30E0338B228BB1
:1034100022EC30E0358B248B26EC30E0378B268B8A
:10342000118E128E138E148EEBEFF3E01382128244
:1034300084839583A683B78389E192E09183808317
:103440008EEA91E0E7E0F4E0DF019C011D9221505B
:103450003040E1F788E094E09093500580934F0569
:103460000895CF93DF93CDB7DEB7C155D1090FB61D
:10347000F894DEBF0FBECDBF789484B5826084BD62
:1034800084B5816084BD85B5826085BD85B5816068
:1034900085BD80916E00816080936E0010928100E6
:1034A00080918100826080938100809181008160A1
:1034B0008093810080918000816080938000809162
:1034C000B10084608093B1008091B00081608093EE
:1034D000B00080917A00846080937A0080917A00B5
:1034E000826080937A0080917A00816080937A0074
:1034F00080917A00806880937A001092C100E091F8
:103500006E03F0916F0382E08083E0916A03F09193
:103510006B031082E0916C03F0916D038FEC80835C
:1035200010927603E0917203F091730386E080833A
:10353000E0917003F0917103808180618083E0915C
:103540007003F0917103808188608083E091700343
:10355000F0917103808180688083E0917003F09125
:10356000710380818F7D8083E9EDF0E02491E5ECAB
:10357000F0E08491882399F090E0880F991FFC0176
:10358000E859FF4FA591B491FC01E255FF4F859199
:1035900094918FB7F894EC91E22BEC938FBF45E1B7
:1035A00050E06AE272E08EE593E00E94C1010E9461
:1035B0005605E0914F05F0915005EF5BFE4F89E213
:1035C0008083E0914F05F0915005EE5BFE4F81E066
:1035D0008083E0914F05F0915005ED5BFE4F80E94F
:1035E00091E091838083E0914F05F0915005EB5B72
:1035F000FE4F8BEF93E09183808310923B031092F8
:103600003A0310923903109238030E94F5028FEBAF
:1036100091E0909337038093360380EC91E0909390
:1036200035038093340321E04EEF69E888E094E0AD
:103630000E94160B811106C040E068E888E094E023
:103640000E940C05AE01455C5F4F60EC88E094E0A1
:103650000E94670B1092E70488EE93E09093420576
:103660008093410580E991E0909344058093430560
:1036700085E89BE6A1E0B0E0809345059093460580
:10368000A0934705B093480584EA90E7A9E0B0E02D
:103690008093D0049093D104A093D204B093D30428
:1036A00010922504109226041092270410922804E8
:1036B000CE0101962C01BC0188E094E00E949D0E91
:1036C000182F81110AC019821A828AE3F201A8E137
:1036D000B4E001900D928A95E1F784E690E0909332
:1036E0002A058093290584E893E090932C05809324
:1036F0002B0584EF91E090932E0580932D0580E0BB
:103700009AE0909331058093300581E080934005E5
:1037100041E060E888E094E00E940C05D82E41E08A
:103720006FEF88E094E00E940C05D82AD12A40E08F
:1037300060E088E094E00E940C05D82AAE01415C6C
:103740005F4F61E988E094E00E94670BD82A8FAD53
:1037500080932F0541E060E088E094E00E940C0532
:10376000D82A40E06FEF88E094E00E940C05D82A48
:1037700040E060E888E094E00E940C05D82A10E060
:1037800000E0FF24F394D11096C10330110509F431
:103790009CC07CF401301105D9F00230110509F408
:1037A00091C0F0922D04F801E95FFB4FF6A280E092
:1037B00025C00430110509F48BC020E04FEE053020
:1037C000110579F760E688E094E00E94160B14C0BA
:1037D00040913D0450913E0460913F04709140043B
:1037E00089E076956795579547958A95D1F764E472
:1037F00088E094E00E94E2048823A9F20F5F1F4F43
:10380000D82E0630110509F0BECF81116EC010927E
:103810002F041092300422E04EEF60E688E094E03E
:103820000E94160B811161C01092310420E14FEE0D
:1038300060E688E094E00E94160B811156C0109259
:10384000320480E090E0A2E1B0E0809339049093EC
:103850003A04A0933B04B0933C0480912E04811160
:103860003AC080E090E4A0E0B0E080933D04909303
:103870003E04A0933F04B093400480E090E0A3E2B4
:10388000B0E08093410490934204A0934304B0932A
:10389000440410924504109246041092470410927A
:1038A00048048FEF809325054FEF61E088E094E0B6
:1038B0000E940C0591E090932705811116C010928B
:1038C0000C0513C0F0922F046ECFF09230046BCF32
:1038D00020E04EEF77CF40E250E064E488E094E0EF
:1038E0000E94E204882309F4BCCF8093070449E2D4
:1038F0006AE880914F05909150050E940C058093D5
:1039000007040E949A014B015C01BAE0CB2ED12C36
:10391000E12CF12C0E949A01681979098A099B0906
:10392000683E734081059105A8F391E0C91AD1085A
:10393000E108F108E8EE8E0EE3E09E1EA11CB11C2A
:10394000C114D104E104F10429F780910704811125
:10395000B4C0E0914F05F0915005EF5BFE4F89E256
:10396000808362E088E094E00E948A15882309F44D
:10397000A9C08093070481110BC08091B2058130EA
:1039800021F48091B305813019F08BEF8093070407
:10399000809107048111F2C060904F05709050052E
:1039A00025961FAE1EAE259728961FAE2897279600
:1039B0001FAE279723961CAE1DAE1EAE1FAE2397DB
:1039C00061E0C3010E948A15F301EE5FFE4F208083
:1039D000A22CB12CD12CC12C3196308021E02315A2
:1039E00008F4BDC03212B4C081E2A816B104C1040B
:1039F000D10408F0B4C041E06FEFC3010E940C0590
:103A000081111AC040E06FE4C3010E940C058111CE
:103A100013C04CE26EE4C3010E940C0581110CC07E
:103A200040E06FEFC3010E940C05811105C044EB1B
:103A300066EBC3010E940C0593012F5E3E4FF90116
:103A40001082319610823196108231961082319612
:103A5000108231961082E12CF12C8701332009F479
:103A600013C1D801C7018C549F4FAF4FBF4FF6E031
:103A7000B695A79597958795FA95D1F7880F991FD1
:103A8000880F991F8D509E4FFC0180819181A281EA
:103A9000B381892B8A2B8B2B09F0F6C0FCE2EF1641
:103AA000F1040105110509F4EFC08FEFE81AF80AD7
:103AB0000F4F1F4FD6CF8D2D18CF87E990E00E9472
:103AC0005E05FFCF8091E80481112AC069E272E0AF
:103AD00081E995E00E94932060E472E081E595E041
:103AE0000E94932069E772E081E795E00E949320AD
:103AF00041EB55E060EC88E094E00E94670B811197
:103B000038CFA20162EC88E094E00E94670B91E05C
:103B10009093B205998192959F709093B30529CFA8
:103B20001091E9046AEE74E081E995E00E94932027
:103B3000112391F2133238F46CE472E0103271F612
:103B400068E572E0CBCF64E672E0173238F6F8CF62
:103B50009DE0A916B104C104D10408F44CCFAE0114
:103B60004A5B5F4FBE01615C7F4FC3010E941A1325
:103B7000982E992009F49CC0909207048091070424
:103B800081110CC0AE014D5B5F4FB20180914F05BA
:103B9000909150050E941A138093070480910704A6
:103BA00081110FC021E0AE01455C5F4FBE01615C39
:103BB0007F4F80914F05909150050E94D9118093BD
:103BC000070480910704811178CFE0914F05F091AF
:103BD0005005108AE0914F05F0915005FF24F394B1
:103BE000F5A200914F0510915005F80145A956A97D
:103BF00067A970AD99E076956795579547959A9521
:103C0000D1F764E4C8010E94E204811102C0F80106
:103C1000F6A280930704811150CFE0914F05F091F7
:103C2000500581E080A7E0914F05F0915005FD9689
:103C300084ED98E0A0E0B0E080839183A283B38319
:103C400080910704811139CF82E790E00E945E05E0
:103C500000E010E061E08DE00E944E0160E08DE048
:103C60000E944E016CE373E080914F0590915005E6
:103C70000E945B080115110569F30E942B0288233D
:103C800049F30E940000E6CF4201A301495E5E4F66
:103C9000632DC3010E948306982E81116ACF81E0B3
:103CA000F301EC5FFE4F80833297208231963082A1
:103CB000F301E85CFE4F80818111CAC13297A08078
:103CC000B18030E020E01301FBEB2F1AFEEF3F0A3A
:103CD000C3018F5B9E4F2A969FAF8EAF2A97F30149
:103CE000ED5DFE4F2C96FFAFEEAF2C9780972E9692
:103CF0009FAF8EAF2E9732966096FFAFEEAF609774
:103D0000079662969FAF8EAF629703C0ECEF9E2E30
:103D10009601F501E20FF31F0081002309F484C02E
:103D200091102ACF69019FEFC91AD90AD501AC0DAC
:103D3000BD1D6C910F3F09F04DC0690182E0C80EB6
:103D4000D11CD501AC0DBD1D8C91613029F198F0CD
:103D5000623089F16330D1F6690194E0C90ED11C5B
:103D6000238190E0982F8827820F911D6296EEADF7
:103D7000FFAD62970EC0690194E0C90ED11C23818A
:103D800090E0982F8827820F911D2E96EEADFFAD03
:103D90002E9791838083BCCF690194E0C90ED11C1A
:103DA000238190E0982F8827820F911D2C96EEADED
:103DB000FFAD2C97EECF690194E0C90ED11C238191
:103DC00090E0982F8827820F911D6096EEADFFAD91
:103DD0006097DFCF053008F099CF2E5F3F4FD501B8
:103DE000A20FB31FF201C02ED12CCF018419950967
:103DF0008C159D051CF48D918193F7CFC20ED31EB7
:103E0000F101E080F18010E030E020E0A2012A968C
:103E1000EEADFFAD2A9780810E94A104892B09F4A1
:103E200077CF7CEE972E74CF9110A6CE44E06AE057
:103E3000C3010E940C05982E81119ECE20E04FEE0A
:103E400064E8C3010E94160B982E811195CE84E080
:103E5000F301E253FF4F8083C3010E94DD0B982ED4
:103E600081118ACE41E06FEFC3010E940C05982EAC
:103E7000AE014D5B5F4F64E8C3010E94B107982A11
:103E800040E06FEFC3010E940C05982A09F074CE40
:103E9000F301E853FF4F25968EAD9FAD259724E0A3
:103EA000880F991F2A95E1F7B0E0A0E08083918305
:103EB000A283B383B201C3010E949D0E982E81118B
:103EC0005BCEAE01495B5F4F69E0C3010E94670BA7
:103ED000982E811151CE28968FAD28978170289603
:103EE0008FAF2897F301E25EFE4F80838AE3F201F1
:103EF000D301509601900D928A95E1F7AE01495B8E
:103F00005F4F61E0C3010E94670B982E811134CE90
:103F10008301035E1E4F28968FAD2897F80180839A
:103F20001BAEAE01455C5F4F61E0C3010E94670BB1
:103F3000982E8BAD911020CEF82EE894F4F884FFE3
:103F400012C04F2D61E0C3010E940C05982E811113
:103F500013CEF801F082F30142895389648975898F
:103F6000C3010E945C101BAEAE01455C5F4F61E077
:103F7000C3010E94670B982E8BAD9110FDCDF82EDA
:103F8000E894F2F882FF12C04F2D61E0C3010E9455
:103F90000C05982E8111F0CDF801F082F3014289D1
:103FA000538964897589C3010E945C1083E0F30121
:103FB000E15EFE4F8083AE014B5B5F4F60E0C3016B
:103FC0000E94100C982E8111D7CD26968FAD269782
:103FD000F301E852FF4F8083AE014B5B5F4F61E01E
:103FE000C3010E94100C982E8111C6CD26968FAD6C
:103FF0002697F301ED52FF4F8083AE01455C5F4F82
:1040000063E0C3010E94460E982E8111B5CD8BADA1
:104010009CADADADBEADF301EC52FF4F80839183FB
:10402000A283B383AE01455C5F4F64E0C3010E948D
:10403000460E982E8111A0CDF301E153FF4F8BADB9
:104040009CADADADBEAD80839183A283B38394CD8F
:1040500080E0A82E81E0B82E34CEDB018F939F93B1
:104060000E948220BF91AF91A29F800D911DA39FBE
:10407000900DB29F900D11240895AA1BBB1B51E116
:1040800007C0AA1FBB1FA617B70710F0A61BB70BC8
:10409000881F991F5A95A9F780959095BC01CD016D
:1040A0000895A1E21A2EAA1BBB1BFD010DC0AA1F79
:1040B000BB1FEE1FFF1FA217B307E407F50720F091
:1040C000A21BB30BE40BF50B661F771F881F991F0C
:1040D0001A9469F760957095809590959B01AC0155
:1040E000BD01CF010895A29FB001B39FC001A39F5E
:1040F000700D811D1124911DB29F700D811D112421
:10410000911D08950E947320A59F900DB49F900D5E
:10411000A49F800D911D11240895EE0FFF1F05909F
:10412000F491E02D0994FB01DC0101900D92002037
:08413000E1F70895F894FFCFB8
:1041380001FF0101000001FF000109000110000159
:1041480011000124010125FF01750001FF01014E45
:104158002C01480001302001FF0001300901540002
:104168000131040132030140830146250160000149
:1041780027000150060151000152960156080157C7
:10418800300161000162000164000165000166A060
:1041980001FF010122320147140149FF014A0001D0
:1041A800FF00017A0A017B0001782101FF01012348
:1041B800340142000144FF01452601460501404003
:1041C800010E0601201A01434001FF0001340301DA
:1041D800354401FF01013104014B09014C05014D32
:1041E8000401FF0001440001452001470801482857
:1041F8000167000170040171010172FE017600017E
:10420800770001FF01010D0101FF0001800101019B
:10421800F801FF01018E0101000101FF000180008A
:104228000000000A00000005000000000000000572
:10423800000000000000006102C101EE01AE021F93
:1042480002FD011102000000008B035E03530534D8
:10425800035703440335030D0A0041646166727510
:10426800697420564C35334C30582074657374008B
:10427800564C35334C30582054533000564C353357
:104288004C30582054533100564C35334C3058205C
:1042980054533200564C35334C3058204553312056
:1042A8006F72206C6174657200564C35334C30580F
:0242B800000004
:00000001FF
