:100000000C945D000C9485000C9485000C94850084
:100010000C9485000C9485000C9485000C9485004C
:100020000C9485000C9485000C9485000C9485003C
:100030000C9485000C9485000C9485000C9485002C
:100040000C94ED010C9485000C9485000C948500B3
:100050000C9485000C9485000C9485000C9485000C
:100060000C9485000C94850000000008000201003B
:100070000003040700000000000000000000000072
:10008000250028002B0000000000240027002A0083
:10009000040404040404040402020202020203032E
:1000A0000303030301020408102040800102040836
:1000B0001020010204081020600411241FBECFEF9D
:1000C000D8E0DEBFCDBF11E0A0E0B1E0E0E8F9E0AC
:1000D00002C005900D92AC31B107D9F721E0ACE137
:1000E000B1E001C01D92A834B207E1F710E0CDE500
:1000F000D0E004C02197FE010E94AF04CC35D107A7
:10010000C9F70E9437020C94BE040C94000090E0E2
:10011000FC01EC55FF4F249180579F4FFC018491C7
:10012000882399F090E0880F991FFC01EA57FF4F50
:10013000A591B491FC01E458FF4F859194918FB73C
:10014000F894EC91E22BEC938FBF089590E0FC01C2
:10015000E859FF4F2491FC01EC55FF4F3491FC010D
:10016000E057FF4FE491EE23C9F0222339F023300A
:1001700001F1A8F4213019F1223029F1F0E0EE0F5D
:10018000FF1FE458FF4FA591B4918FB7F894EC91FD
:10019000611126C030953E233C938FBF08952730D0
:1001A000A9F02830C9F0243049F7809180008F7D74
:1001B00003C0809180008F7780938000DFCF84B56B
:1001C0008F7784BDDBCF84B58F7DFBCF8091B0006E
:1001D0008F778093B000D2CF8091B0008F7DF9CF20
:1001E0003E2BDACF61E0809141010C94A6003FB72D
:1001F000F8948091390190913A01A0913B01B0911E
:100200003C0126B5A89B05C02F3F19F00196A11D02
:10021000B11D3FBFBA2FA92F982F8827BC01CD0150
:10022000620F711D811D911D42E0660F771F881FAF
:10023000991F4A95D1F708958EBD00000DB407FEB1
:10024000FDCF8EB508950F931F9300914201109139
:100250004301209144013091450140E052E16AE7B9
:1002600070E080E0041715072607370740F47695FD
:100270006795579547958F5F8630A1F787E0982F50
:10028000906A9695809581709CBD8DBD60E080914F
:1002900041011F910F910C94A600CF93C82F0E948B
:1002A000230183E00E941C018C2F0E941C0180E02E
:1002B0000E941C01C82F0E94F2008C2FCF9108953C
:1002C0001F93CF93DF93182FD62FC42F0E942301A3
:1002D00085E00E941C01812F0E941C018D2F0E942D
:1002E0001C018C2F0E941C01DF91CF911F910C9457
:1002F000F200CF92DF92EF92FF92CF93C82F482F58
:1003000060EE8FE00E9460018FB7F894C0903D01CD
:10031000D0903E01E0903F01F09040018FBF8AE015
:10032000C80ED11CE11CF11C2FB7F89480913D013F
:1003300090913E01A0913F01B09140012FBF8C15DB
:100340009D05AE05BF0580F48EE00E944D01807EC4
:10035000C813EACF81E091E0892790E0CF91FF9028
:10036000EF90DF90CF90089580E0F5CFCF93DF93AB
:10037000D82FC62F0E94230182E00E941C018D2FDE
:100380000E941C018C2F0E941C01DF91CF910C94C4
:10039000F200FF920F931F93CF93DF93C82FF62E97
:1003A000172F042F0E94230182E00E941C018C2F32
:1003B0000E941C01CF2DD12F0C0F1D2F111DC01716
:1003C000D10721F089910E941C01F9CFDF91CF91D3
:1003D0001F910F91FF900C94F2001F920F920FB695
:1003E0000F9211242F933F938F939F93AF93BF93BB
:1003F00080913D0190913E01A0913F01B09140015B
:100400003091380123E0230F2D3758F50196A11DB7
:10041000B11D2093380180933D0190933E01A0933C
:100420003F01B09340018091390190913A01A09130
:100430003B01B0913C010196A11DB11D8093390192
:1004400090933A01A0933B01B0933C01BF91AF91CF
:100450009F918F913F912F910F900FBE0F901F9002
:10046000189526E8230F0296A11DB11DD2CFCF9378
:10047000DF93CDB7DEB7A6970FB6F894DEBF0FBEF9
:10048000CDBF789484B5826084BD84B5816084BD1D
:1004900085B5826085BD85B5816085BD80916E0022
:1004A000816080936E001092810080918100826053
:1004B0008093810080918100816080938100809190
:1004C00080008160809380008091B100846080937F
:1004D000B1008091B00081608093B00080917A007B
:1004E000846080937A0080917A00826080937A00A1
:1004F00080917A00816080937A0080917A00806890
:1005000080937A001092C10086EF90E0A0E0B0E006
:100510008093280190932901A0932A01B0932B0185
:1005200088E080932C018EE88093300197E89093C7
:10053000310192E3909332019AEF9093330196E266
:1005400090933401809335018EEB8093360186E8D9
:10055000809337010E94230180EC0E941C010E94BD
:10056000F2000E94F7004B015C010AE0C02ED12C82
:10057000E12CF12C0E94F700681979098A099B097E
:10058000683E734081059105A8F321E0C21AD108A5
:10059000E108F10848EE840E43E0941EA11CB11C52
:1005A000C114D104E104F10429F7BE016F5F7F4F4C
:1005B0007B018EE0DB011D928A95E9F74EE080E336
:1005C0000E94C9014EE0B70180E40E94C9014EE0DB
:1005D000B70180E50E94C90160E080E60E94B60193
:1005E00060E080E70E94B60163EA8BE20E94B601F8
:1005F00044E067E680E60E94600141E067E680E74C
:100600000E9460018CE0E0E0F1E0DE011F960190C5
:100610000D928A95E1F75E01BFE0AB0EB11CD12CC3
:10062000C12C4A2C3B2C18E0912EF501019111911F
:100630005F0180E80E947901892B71F40230110575
:1006400009F411C108F0C5C00115110509F4CDC0A8
:100650000130110509F40DC180E80E947901892B50
:1006600061F463E08AE20E94B60160EF89E20E94D1
:10067000B60166E888E20E94B60180E00E94790136
:1006800083E00E94870060E083E00E94A6003E01B4
:10069000E5E16E0E711CA0E08A2EA0E09A2E4B9A26
:1006A0004B9A80912C018930F0F786E0ECE0F1E084
:1006B000DE011F9601900D928A95E1F7C42CD32C90
:1006C000D601AD90BD906D018501000F111FF8019D
:1006D000EA0DFB1DEE5EFE4F5080852D0E944D0100
:1006E00083FDE9C0D0902C01B8E0BD15D0F2809117
:1006F000280190912901A0912A01B0912B01AC0110
:10070000BD01442777FD4395552766277727242F7A
:10071000AC01BD0144275527662770744BA35CA329
:100720006DA37EA34FEF5FEF6FEF7FE1211104C058
:100730004FEF57E060E070E084239523A623B723B2
:10074000222309F4A8C08C839B83CD01AA27BB2751
:10075000282F220F220F220F207E382F337038606F
:10076000232B2A8335E0969587953A95E1F789837F
:100770006BA17CA18DA19EA1672B682B692B09F42D
:1007800098C08D2D80648D834D2D50E060E371E025
:10079000CE0106960E94B50445E04D0D0A0D1B1DC5
:1007A000F801EE5EFE4FB70181810E94C90148E069
:1007B00068E0852D0E946001852D0E944D018077A3
:1007C00009F06FCF8114910409F469CF0E940000F1
:1007D00066CF0430110509F44AC008F446C005305C
:1007E000110509F039CF88E101C080E0F1E0CF16B2
:1007F000D10409F040C01E8E1D8E9C8E1B8E44E0DD
:10080000BE01655E7F4F0E94C9012FEFC21AD20A56
:1008100046E0C416D10409F008CF18A21F8E81E06B
:1008200090E09AA389A38E01015E1F4F6E0153E2EF
:10083000C50ED11CB8E09B2ED801AD90BD908D01A6
:1008400080E80E947901892B09F006CF1E8E1D8E4B
:100850009C8E1B8EA114B10499F0AA94AB2809F0C8
:10086000FBCE84E20EC088E0C1CF80E1BFCF84E13F
:10087000BDCF84E0BBCF1B8E1C8E1E8E1D8EBFCFC6
:1008800080E244E0BE01655E7F4F0E94C9010C1505
:100890001D0591F6E1CE9C0193E0369527959A953A
:1008A000E1F729838295880F807E8A831C821B82D0
:1008B0005FCF8D2D68CFC614D70409F001CFF1CEDC
:1008C000CF9381E291E09093470180934601CFB7A7
:1008D000F89480912001811124C0EAE9F0E084912C
:1008E000EEEAF0E09491E82FF0E0EE0FFF1FEA57F8
:1008F000FF4FA591B491EC91E92321F461E08AE0E6
:100900000E94A6008AE00E9487008CB580618CBDA1
:100910008CB580648CBD8DE00E9487008BE00E94C6
:100920008700809120018F5F80932001CFBF8AE0F4
:100930008093410180E896E9A8E9B0E08093420104
:1009400090934301A0934401B09345018AE00E9433
:10095000870061E080914101CF910C94A600EE0FD9
:10096000FF1F0590F491E02D0994FB01DC0102C00A
:1009700001900D9241505040D8F70895F894FFCF60
:100980000000010002000300040005000000010057
:0C09900002003031364041465051560004
:00000001FF
