:100000000C9434000C9451000C9451000C94510049
:100010000C9451000C9451000C9451000C9451001C
:100020000C9451000C9451000C9451000C9451000C
:100030000C9451000C9451000C9472000C945100DB
:100040000C9451000C9451000C9451000C945100EC
:100050000C9451000C9451000C9451000C945100DC
:100060000C9451000C94510011241FBECFEFD8E026
:10007000DEBFCDBF11E0A0E0B1E0E0E9F1E002C0F9
:1000800005900D92A230B107D9F721E0A2E0B1E0CE
:1000900001C01D92A530B207E1F70E94A4000C94A4
:1000A000C6000C94000084B5826084BD89EF87BDD2
:1000B000EEE6F0E080818260808385B5836085BD57
:1000C00078940895FC01208131812F5F3F4F318367
:1000D00020832417350728F081E0DB018C931182FF
:1000E000108208951F920F920FB60F9211242F9332
:1000F0003F934F935F936F937F938F939F93AF93B0
:10010000BF93EF93FF93409100015091010162E092
:1001100071E083E091E00E946200FF91EF91BF9156
:10012000AF919F918F917F916F915F914F913F918F
:100130002F910F900FBE0F901F90189584B1806380
:1001400084B954985C9A08950E949E000E945300BE
:1001500044EF51E062E370E020E290E14C9911C07D
:100160007093010160930001809102018823B1F333
:1001700085B1822785B985B1892785B91092020199
:10018000EDCF5093010140930001EECFF894FFCFE3
:02019000F40178
:00000001FF
