:100000000C9434000C9451000C9451000C94510049
:100010000C9451000C9451000C9451000C9451001C
:100020000C9451000C9451000C9451000C9451000C
:100030000C9451000C9451000C9453000C945100FA
:100040000C9451000C9451000C9451000C945100EC
:100050000C9451000C9451000C9451000C945100DC
:100060000C9451000C94510011241FBECFEFD8E026
:10007000DEBFCDBF11E0A0E0B1E0ECE5F1E002C0F1
:1000800005900D92A230B107D9F721E0A2E0B1E0CE
:1000900001C01D92A530B207E1F70E947C000C94CC
:1000A000AC000C9400001F920F920FB60F92112417
:1000B0002F933F938F939F932091000130910101E3
:1000C0008091020190910301019690930301809326
:1000D00002018217930738F081E0809304011092A7
:1000E0000301109202019F918F913F912F910F90E8
:1000F0000FBE0F901F90189584B1806384B95498F7
:1001000084B5826084BD85B5856085BD8EE087BD80
:1001100080916E00826080936E00789444EF51E08D
:1001200062E370E020E290E14C9911C0709301010C
:1001300060930001809104018823B1F385B1822787
:1001400085B985B1892785B910920401EDCF509307
:0C015000010140930001EECFF894FFCFB6
:02015C00F401AC
:00000001FF
