:100000000C9434000C9446000C9446000C9446006A
:100010000C9446000C9446000C9446000C94460048
:100020000C9446000C9446000C9446000C94460038
:100030000C9446000C9446000C9467000C94460007
:100040000C9446000C9446000C9446000C94460018
:100050000C9446000C9446000C9446000C94460008
:100060000C9446000C94460011241FBECFEFD8E03C
:10007000DEBFCDBF21E0A0E0B1E001C01D92A630FF
:10008000B207E1F70E9499000C94B2000C940000B2
:1000900084B5826084BD89EF87BDEEE6F0E08081A3
:1000A0008260808385B5836085BD78940895FC0166
:1000B000208131812F5F3F4F318320832417350703
:1000C00028F081E0DB018C931182108208951F9249
:1000D0000F920FB60F9211242F933F934F935F937C
:1000E0006F937F938F939F93AF93BF93EF93FF9300
:1000F00044EF51E061E071E084E091E00E9457003C
:1001000048EE53E060E071E082E091E00E94570029
:10011000FF91EF91BF91AF919F918F917F916F91DF
:100120005F914F913F912F910F900FBE0F901F90B5
:100130001895259A249A0E94480020E290E1809127
:100140000101882329F085B1822785B91092010128
:1001500080910001882399F385B1892785B9109290
:080160000001EDCFF894FFCF80
:00000001FF
