:100000000C945C000C9479000C9479000C947900A9
:100010000C9479000C9479000C94C90C0C94790020
:100020000C9479000C9479000C9479000C9479006C
:100030000C9479000C9479000C9479000C9479005C
:100040000C9496010C9479000C9479000C9479002E
:100050000C9479000C9479000C9479000C9479003C
:100060000C9479000C947900000000080002010053
:100070000003040700000000000000000000000072
:10008000250028002B0000000000240027002A0083
:10009000040404040404040402020202020203032E
:1000A0000303030301020408102040800102040836
:1000B000102001020408102011241FBECFEFD8E049
:1000C000DEBFCDBF11E0A0E0B1E0EAECFCE102C090
:1000D00005900D92A632B107D9F721E0A6E2B1E072
:1000E00001C01D92A83BB207E1F70E94CC0C0C9412
:1000F000630E0C94000090E0FC01EC55FF4F24913E
:1001000080579F4FFC018491882399F090E0880FDD
:10011000991FFC01EA57FF4FA591B491FC01E458E7
:10012000FF4F859194918FB7F894EC91E22BEC936B
:100130008FBF089590E0FC01E859FF4F2491FC0126
:10014000EC55FF4F3491FC01E057FF4FE491EE2353
:10015000C9F0222339F0233001F1A8F4213019F13C
:10016000223029F1F0E0EE0FFF1FE458FF4FA59178
:10017000B4918FB7F894EC91611126C030953E236D
:100180003C938FBF08952730A9F02830C9F0243060
:1001900049F7809180008F7D03C0809180008F7728
:1001A00080938000DFCF84B58F7784BDDBCF84B5AB
:1001B0008F7DFBCF8091B0008F778093B000D2CF3E
:1001C0008091B0008F7DF9CF3E2BDACF3FB7F89406
:1001D0008091550190915601A0915701B09158011D
:1001E00026B5A89B05C02F3F19F00196A11DB11D92
:1001F0003FBFBA2FA92F982F8827BC01CD01620FCE
:10020000711D811D911D42E0660F771F881F991F88
:100210004A95D1F708958F929F92AF92BF92CF9255
:10022000DF92EF92FF924B015C010E94E6006B01AE
:100230007C010E94E6006C197D098E099F09683EC9
:10024000734081059105A8F321E0821A9108A10865
:10025000B10888EEC80E83E0D81EE11CF11C8114A1
:100260009104A104B10429F7FF90EF90DF90CF90A3
:10027000BF90AF909F908F9008952A9A2A98FDCFB3
:1002800061E08BE00E949A0062E170E080E090E023
:100290000E940B0160E08BE00E949A0062E170E036
:1002A00080E090E00E940B01EBCF61E08CE00E94C7
:1002B0009A006CE070E080E090E00E940B0160E04A
:1002C0008CE00E949A006CE070E080E090E00E9478
:1002D0000B01EBCF0F931F938CE00E947B008BE010
:1002E0000E947B008AE00E947B0010E000E022E098
:1002F00040E850E064E171E085E591E00E9440094A
:1003000022E040E850E06AE171E080E491E00E9480
:10031000400921E040E850E060E271E08DE391E0C7
:100320000E9440091F910F910C94DD0B1F920F92B8
:100330000FB60F9211242F933F938F939F93AF93F8
:10034000BF938091510190915201A0915301B091BE
:1003500054013091500123E0230F2D3758F50196B9
:10036000A11DB11D20935001809351019093520122
:10037000A0935301B093540180915501909156017F
:10038000A0915701B09158010196A11DB11D809314
:10039000550190935601A0935701B0935801BF9116
:1003A000AF919F918F913F912F910F900FBE0F9022
:1003B0001F90189526E8230F0296A11DB11DD2CFDC
:1003C0000FB6F8940F92FC01928D0F900FBE81E052
:1003D000911180E00895E0915B01F0915C018081D2
:1003E000811107C08FEF9FEF9093480180934701E1
:1003F0000895E0915B01F0915C010580F681E02DAC
:1004000080819181F1CFCF93DF93FC01A085B185ED
:100410008281938124813581EC013D832C83C481C9
:10042000D5819B838A8311968D919C9112978E170B
:100430009F0721F41296DC93CE93119711861086B4
:100440008C9181508C93DF91CF9108950F931F93DE
:10045000CF93DF938C01FB0180819181D8011396AA
:100460008F3F9807F1F4E801AF81B88512968D911E
:100470009C91139793838283EC01FD83EC83B58376
:10048000A4831396FC93EE93129711870087F801CB
:1004900080818F5F8083DF91CF911F910F910895AD
:1004A000D90112962D913C911397E9014881598108
:1004B00084179507A8F7DACFFC010396928381830E
:1004C0002FEF3FEF34832383968385839087878341
:1004D00010820895FC017383628391878087461799
:1004E000570790F0421B530B848595854817590791
:1004F000C8F4BF016E5F7F4F80914301909144012A
:100500000E94260280E008954217530718F46217EC
:10051000730740F4BF016E5F7F4F8091450190915A
:100520004601EECF81E00895EF92FF920F931F9363
:10053000CF93DF93EC018B017A016C857D85600F91
:10054000711F9801A701CE010E946A02811107C0A4
:10055000DF91CF911F910F91FF90EF9008958C85BF
:100560009D85080F191FE889F989CE010995E5CF06
:10057000EF92FF920F931F93CF93DF938C017B0138
:10058000E0914501F09146010580F681E02DC6819C
:10059000D781CE0102960E9403028B8982FF0FC091
:1005A000A701B801CE010E949402E889F989CE0121
:1005B000DF91CF911F910F91FF90EF9009948E7F63
:1005C0008B8BF3CFE0914501F09146018081811141
:1005D0000DC0809143019091440190934601809316
:1005E0004501F0934401E093430108950580F681AD
:1005F000E02D6FEF7FEF808191810E94B802E2CF02
:10060000BF92CF92DF92EF92FF920F931F93CF93FF
:10061000DF93EC01B62EC0904A01D0904B010091BF
:100620005B0110915C01E0905901F0905A018091BA
:10063000B1019091B20102960E940302CF3FDC0704
:1006400009F042C0BB2009F43FC0E0915E01F09187
:100650005F01A091B101B091B2011596FC93EE93A8
:100660001497A091B101B091B20184819581179640
:100670009C938E9316978091B1019091B201A481C1
:10068000B581029613969C938E9312978091B10137
:100690009091B201029695838483E091B101F0912B
:1006A000B2018DE591E09387828780915D018F5F34
:1006B00080935D01DF91CF911F910F91FF90EF909B
:1006C000DF90CF90BF900895CC0DDD1DE091B1017A
:1006D000F091B201D383C2836091B1017091B201F4
:1006E0006E5F7F4FCC15DD0560F4C701DF91CF91C0
:1006F0001F910F91FF90EF90DF90CF90BF900C94DF
:100700002602C8010E94260280914701909148016B
:10071000C817D90778F6D0934801C0934701CACFCC
:10072000CF93DF93DC011596ED91FC910680F78164
:10073000E02DA489B5898685978520893189EC01CA
:100740003D832C83C089D1899B838A83CF010C96FA
:1007500011962D913C9112972817390721F4129682
:10076000DC93CE931197158A148A2C9121502C93E7
:1007700020914E01211157C0A285B38584819581B6
:1007800026813781EC013D832C83C681D7819B83F1
:100790008A83CF01029611962D913C9112972817CA
:1007A000390721F41296DC93CE93119713861286A3
:1007B0002C9121502C93C6892091AE012C1710F456
:1007C000C093AE0129E02C9FE0011124C657DE4FF3
:1007D0000980DA81C02DD583C4834C815D81578324
:1007E0004683AC81BD8113969C938E9312979D8313
:1007F0008C83A689A29FD0011124A657BE4FB38730
:10080000A2878C918F5F8C93A091B101B091B201BE
:10081000968956968C91891730F581E080934F0127
:10082000DF91CF910895A0917001B0917101B787C8
:10083000A68714962D913C911597318B208B149699
:10084000CD91DC9115979B838A8315969C938E930B
:1008500014978FE691E0958B848B80916F018F5F69
:1008600080936F01D1CF80E0DBCFEF92FF920F93A7
:100870001F93CF93DF93EC010FB6F8940F921E8D68
:100880007C0181E1E80EF11C01E01116D4F08FEF3C
:100890008E8F0F900FBE0FB6F8940F921D8D7E01B4
:1008A00088E0E80EF11C01E01116B4F08FEF8D8F97
:1008B0000F900FBEDF91CF911F910F91FF90EF909E
:1008C00008958989882319F3C7010E949003811133
:1008D00000934F011150D9CF8885882339F3C70180
:1008E0000E949003811100934F011150DDCF0FB68C
:1008F000F8940F9280914A0190914B010F900FBE96
:10090000089580914E018F5F80934E0108950F925C
:100910000FB6F8940F921F9211242F923F924F928C
:100920005F926F927F928F929F92AF92BF92CF927F
:10093000DF92EF92FF920F931F932F933F934F936A
:100940005F936F937F938F939F93AF93BF93CF9357
:10095000DF93EF93FF93A091B101B091B2010DB677
:100960000D920EB60D9280914E01882321F081E008
:1009700080934F0161C010924F01A091B101B091DD
:10098000B201E091B101F091B2012D913C918789C2
:10099000908D82179307A8F08091B1019091B201D8
:1009A0008091B1019091B201259A2D9A2FEF87EA9B
:1009B00091E6215080409040E1F700C000001D9A70
:1009C000F5CF2091AE0189E001C02150422F50E0C7
:1009D000849FF001859FF00D1124E657FE4F908112
:1009E000992399F3A181B28112966D917C917283C2
:1009F0006183289FC001112483579E4F6817790790
:100A000021F4858196819283818389E0849FF0011E
:100A1000859FF00D1124E657FE4F0180F281E02DF5
:100A2000868197819093B2018093B1012093AE01AA
:100A30008091B1019091B201A091B101B091B20148
:100A4000CD91CDBFDD91DEBFFF91EF91DF91CF91D1
:100A5000BF91AF919F918F917F916F915F914F91D6
:100A60003F912F911F910F91FF90EF90DF90CF90CA
:100A7000BF90AF909F908F907F906F905F904F90BE
:100A80003F902F901F900F900FBE0F9008958F9260
:100A90009F92BF92CF92DF92EF92FF920F931F939C
:100AA000CF93DF930FB6F8940F9280914E0181504F
:100AB00080934E0180914E01882379F080E00F9061
:100AC0000FBEDF91CF911F910F91FF90EF90DF90BC
:100AD000CF90BF909F908F9008958091B30188230D
:100AE00069F3E0907401F0907501F0E0E0E039E026
:100AF00041E080916F0181115EC0EF2B11F00E94E7
:100B0000EB01E0904C01F0904D01E114F10409F487
:100B10007DC189E0D82ECC24C3940FEF1FEF8091C4
:100B20004E01811161C1C0914A01D0914B014E012A
:100B30008FEF881A980A90924B0180924A01811493
:100B40009104B9F480915B0190915C01209159016D
:100B500030915A0130935C0120935B0190935A01CC
:100B600080935901809149018F5F809349010E94D0
:100B7000EB018091470190914801B12C88169906AC
:100B800008F026C1E091B101F091B201E689DE9E44
:100B9000F0011124E657FE4F8081823010F0BB2413
:100BA000B39480914F01811103C0BB2009F425C18A
:100BB000C0924F0122C1D7011696ED91FC91A489F4
:100BC000B5896685778580899189EB019D838C83C2
:100BD00080899189EC017B836A83BF01645F7F4FC9
:100BE00011960D911C9112970617170721F4129672
:100BF0009C938E931197158A148A8C9181508C93B3
:100C0000A285B3858481958166817781EC017D839E
:100C10006C8366817781EB019B838A83CF01029687
:100C200011960D911C9112970817190721F412962D
:100C30007C936E931197138612862C9121502C93DE
:100C4000A6892091AE012A1710F4A093AE013A9F15
:100C5000D0011124A657BE4F11960D90BC91A02D26
:100C6000B583A48314966D917C91159777836683E1
:100C700014966D917C911597EB019B838A83159651
:100C80009C938E9314979689939FD0011124A65715
:100C9000BE4FB387A2878C918F5F8C93A091B101D7
:100CA000B091B20156968C91891708F022CF4093EB
:100CB0004F011FCFE0915B01F0915C010580F6814F
:100CC000E02D0680F781E02D8281938188169906B8
:100CD00028F4909348018093470154CFC285D3856F
:100CE0008481958126813781DC0115963C932E9372
:100CF000149726813781D90113969C938E9312976E
:100D0000CF01029649815A814817590711F43A8355
:100D1000298313861286288121502883A489B589C6
:100D20001097F9F02685378540895189E9015D835F
:100D30004C8340895189EA013B832A8311966D9146
:100D40007C9112979F01245F3F4F6217730721F434
:100D500012965C934E931197158A148A2C91215008
:100D60002C93A6892091AE012A1710F4A093AE010E
:100D7000DA9ED0011124A657BE4F11960D90BC915A
:100D8000A02DB583A48314962D913C91159737839C
:100D9000268314962D913C911597E9019B838A83B4
:100DA00015969C938E93149796899D9DD00111243E
:100DB000A657BE4FB387A2878C918F5F8C93E0912B
:100DC000B101F091B2018689891710F4BB24B39464
:100DD000E0915B01F0915C01808181116BCF1093F8
:100DE000480100934701CECE80914C0190914D0176
:100DF000019690934D0180934C01D1E0ED1AF108DA
:100E000009F08DCE10924D0110924C0180914F014E
:100E1000882309F453CE8091B1019091B2010E94D0
:100E2000870481E04CCE0F920FB6F8940F921F9278
:100E300011242F923F924F925F926F927F928F92E6
:100E40009F92AF92BF92CF92DF92EF92FF920F9359
:100E50001F932F933F934F935F936F937F938F9342
:100E60009F93AF93BF93CF93DF93EF93FF93A091A3
:100E7000B101B091B2010DB60D920EB60D9213BE36
:100E800080914E018111F9C080914A0190914B01EE
:100E9000019690934B0180934A01009781F5209130
:100EA0005B0130915C014091590150915A0150937E
:100EB0005C0140935B0130935A01209359012091CA
:100EC00049012F5F20934901E0915B01F0915C01A2
:100ED0002081211107C02FEF3FEF3093480120936D
:100EE00047010DC0E0915B01F0915C010580F68146
:100EF000E02D2081318130934801209347012091DA
:100F00004701309148018217930710F420E0A1C0F7
:100F100020E039E0D32EE0915B01F0915C0130815B
:100F2000311107C08FEF9FEF9093480180934701E5
:100F300090C0E0915B01F0915C010580F681E02DAD
:100F40000680F781E02D428153818417950728F4AC
:100F500050934801409347017CC0A285B3854481EA
:100F6000558166817781EA017D836C836681778113
:100F7000EB015B834A83AF014E5F5F4F11960D918A
:100F80001C9112970417150721F412967C936E9307
:100F90001197138612863C9131503C93A489B589F0
:100FA0001097F9F06685778500891189EB011D831B
:100FB0000C8300891189E8017B836A831196ED9087
:100FC000FC901297BF01645F7F4FE616F70621F48D
:100FD00012961C930E931197158A148A3C913150E6
:100FE0003C93A6893091AE013A1710F4A093AE015C
:100FF000DA9ED0011124A657BE4F11960D90BC91D8
:10100000A02DB583A48314966D917C911597778359
:10101000668314966D917C911597EB015B834A83EF
:1010200015965C934E93149746894D9DD0011124DB
:10103000A657BE4FB387A2873C913F5F3C93E09198
:10104000B101F091B2013689341708F064CF21E084
:1010500062CFE091B101F091B201E689D9E0ED9F54
:10106000F0011124E657FE4F8081823008F021E024
:1010700080914F0181110EC00AC080914C01909166
:101080004D01019690934D0180934C016CC0222339
:1010900009F469C080914E01882321F081E080939A
:1010A0004F0161C010924F01A091B101B091B20106
:1010B000E091B101F091B2012D913C918789908D21
:1010C00082179307A8F08091B1019091B2018091AD
:1010D000B1019091B201259A2D9A2FEF87EA91E6FE
:1010E000215080409040E1F700C000001D9AF5CFEC
:1010F0002091AE0189E001C02150422F50E0849F31
:10110000F001859FF00D1124E657FE4F9081992341
:1011100099F3A181B28112966D917C917283618362
:10112000289FC001112483579E4F6817790721F427
:10113000858196819283818389E0849FF001859FD8
:10114000F00D1124E657FE4F0180F281E02D8681DB
:1011500097819093B2018093B1012093AE01809169
:10116000B1019091B201A091B101B091B201CD91C4
:10117000CDBFDD91DEBFFF91EF91DF91CF91BF91A8
:10118000AF919F918F917F916F915F914F913F911F
:101190002F911F910F91FF90EF90DF90CF90BF9014
:1011A000AF909F908F907F906F905F904F903F9007
:1011B0002F901F900F900FBE0F900895CF93DF9345
:1011C000009751F0EC010E948104CE010E94C40DF1
:1011D000DF91CF910C944705DF91CF91089500E006
:1011E00010E080913E0181110CC080918A01823013
:1011F00010F00E9487040115110599F30E94000068
:10120000F0CF0FB6F8940F92E0916B01F0916C0162
:10121000C681D781CE0102960E9403028091B3015C
:1012200081508093B30180913E01815080933E01B3
:101230000F900FBE8F89988D0E94DE08CE010E940C
:10124000DE08CFCFCF93DF93EC010E948104CE0163
:101250000E94280DEC010E944705209769F4259A09
:101260002D9A2FEF80E792E0215080409040E1F7E7
:1012700000C000001D9AF5CFCE01DF91CF910895F7
:101280007F928F929F92AF92BF92CF92DF92EF9216
:10129000FF920F931F93CF93DF93982EA92E762E54
:1012A000872E7A01B22ECA010E9422096C01892B75
:1012B00009F4EEC082E390E00E942209EC01892B40
:1012C00009F4E3C082E3DE011D928A95E9F7D88E26
:1012D000CF8AA70165EA70E0C6010E945C0EB1E00A
:1012E000EB1AF108EF89F88DEE0DFF1D672D782DB3
:1012F000CE0149969B01205F3F4FDB014D91BD011F
:10130000DC014D93CD01AB0141505109DA014C9103
:10131000442319F02617370781F718A6BE8ABBA603
:101320001B861A861D8A1C8AD987C88784E090E0AC
:101330008B1991099D878C87DB8BCA8B9082DF018B
:101340001197AC9211971C92119780E88C9311978A
:101350001C9257971C9211971C92B397F983E883BC
:101360000115110519F0F801D183C0830FB6F89467
:101370000F928091B3018F5F8093B3018091B1018F
:101380009091B201892B09F092C0D093B201C09321
:10139000B1018091B301813081F58AE891E00E942A
:1013A0005C0283E991E00E945C028CE991E00E947A
:1013B0005C0285EA91E00E945C0281E891E00E9473
:1013C0005C0288E791E00E945C028FE691E00E9457
:1013D0005C0286E691E00E945C028DE591E00E944D
:1013E0005C0281E891E090935C0180935B0188E767
:1013F00091E090935A01809359018091AF018F5FE2
:101400008093AF0189A7AE898091AE018A1710F44D
:10141000A093AE0129E02A9FD0011124A657BE4F08
:1014200011960D90BC91A02DBD83AC8314968D9127
:101430009C9115979F838E831496ED91FC9115973F
:10144000CE0102969383828315969C938E93149774
:10145000EE89E29FF0011124E657FE4FFB87EA87F1
:1014600080818F5F80830F900FBE8091B0018823B1
:1014700051F0E091B101F091B20196898E899817EF
:1014800010F40E94870481E004C0C6010E94DE08B7
:101490008FEFDF91CF911F910F91FF90EF90DF9031
:1014A000CF90BF90AF909F908F907F900895809144
:1014B000B0018111A2CFE091B101F091B201968902
:1014C0008E89891708F499CFD093B201C093B101E6
:1014D00094CFCF93DF9300D000D01F92CDB7DEB76B
:1014E00085E0B82ECE0101967C01E0914501F09196
:1014F00046011081D12CC12C112329F00580F681E1
:10150000E02DC080D1800E9481040E9477044C01AC
:1015100080913F01909140018816990608F089C09A
:101520000E94E2029092400180923F010E94470592
:10153000D701EB2D1D92EA95E9F700914101109139
:1015400042010FB6F8940F92D8015A96DC905A9740
:10155000DD2009F42FC15C964C915C974423F9F08F
:1015600050E016968D919C911797840F951F1796B2
:101570009C938E93169714962D913C9115978217F4
:10158000930738F08D919C91119717969C938E93A9
:101590001697F80166817781C7010E94530EDA948D
:1015A000D8015A96DC925A9718968C91882339F074
:1015B000C80108960E94900381110E9487040F9031
:1015C0000FBEA980A7FCB9CF0C811D81D8011A9646
:1015D0008D919C91892B21F0C80102960E940302F3
:1015E0000E9477046C0180913F0190914001C816E0
:1015F000D90610F40E94E202D0924001C0923F014D
:10160000EFEFEA0DE93008F098CF0E2E000CFF0B3B
:10161000E05FF44FD80153968C9153970C944D0E84
:10162000930B930BD60BBE0BD00B930B930BD60BDC
:10163000BE0B9092400180923F01112351F08C1417
:101640009D0470F00E944705B401C6010E94B802D3
:101650006FCFE0914301F091440161E080818111FD
:1016600060E000914101109142010FB6F8940F9291
:10167000D8015D968C915D978F3F11F45D961C9219
:10168000F801868D8F3F09F4168E0F900FBED8019A
:101690005A968C915A9781113CC05296ED91FC91CB
:1016A000A091B101B091B2011F96FC93EE931E97E9
:1016B000A091B101B091B2018481958151969C9322
:1016C0008E9350978091B1019091B201A481B58120
:1016D0000C9613969C938E9312978091B1019091E2
:1016E000B2010C9695838483E091B101F091B2012F
:1016F000C8014196958B848BF80181898F5F818B1E
:10170000C60188199909662311F08FEF9FEF0E9497
:101710000003C8010E9435040E944705811108CFCB
:101720000E94870405CF8160F801838B8A809B80AB
:1017300064857585680D791D9401A601C8010E9414
:101740006A02882309F4F9CED80153968C915397F5
:1017500082FF10C01C966D917C91680D791DA601C9
:10176000C8010E949402D8015096ED91FC91C801E5
:101770000995E3CE8E7FF801838BF5CF8160539678
:101780008C9353976A817B811D967C936E931C97F3
:101790006C0D7D1D9601A601C8010E946A02CDCE86
:1017A00081FD04C0C8010E94DE08C7CE8E7FF8010B
:1017B000838BC3CE0F900FBE98CE0F931F93CF9302
:1017C000DF93CDB7DEB760970FB6F894DEBF0FBEDC
:1017D000CDBFA7E0B1E0FE01319627E131E0BF01C6
:1017E0008D918193882319F02A173B07C9F708E2E6
:1017F00011E020E040EC50E08FEE98E00E944009BC
:10180000882309F4B9C0813009F0B6C00FB6F89446
:101810000F928091410190914201892B09F052C0B1
:1018200083E391E00E945C028AE291E00E945C0204
:1018300083E391E090934601809345018AE291E031
:10184000909344018093430183E590E00E94220934
:101850008C01009799F18196F801918380838AE049
:10186000838F85E0848F0FB6F8940F9280819181E9
:10187000238D448DBC01249F600D711D112475833F
:101880006483128E938382832150330B429FB00175
:10189000439F700D1124860F971F978386838FEFC8
:1018A000858F868FC80108960E945C02C801419608
:1018B0000E945C020F900FBEF80110A2109342012B
:1018C000009341010F900FBE809141019091420120
:1018D000892B09F451C00CE311E023E04CE550E002
:1018E0006CE071E089E69AE00E944009813009F0DD
:1018F00043C0F8942FEF3FEF309348012093470106
:101900008093B00110924B0110924A01A89588E192
:1019100090EC0FB6F894A895809360000FBE90935A
:101920006000A091B101B091B201CD91CDBFDD9128
:10193000DEBFFF91EF91DF91CF91BF91AF919F916A
:101940008F917F916F915F914F913F912F911F9157
:101950000F91FF90EF90DF90CF90BF90AF909F904E
:101960008F907F906F905F904F903F902F901F903F
:101970000F900FBE0F9008958091000160960FB6F2
:10198000F894DEBF0FBECDBFDF91CF911F910F91B5
:1019900008950E9413071895789484B5826084BDD9
:1019A00084B5816084BD85B5826085BD85B5816063
:1019B00085BD80916E00816080936E0010928100E1
:1019C000809181008260809381008091810081609C
:1019D000809381008091800081608093800080915D
:1019E000B10084608093B1008091B00081608093E9
:1019F000B00080917A00846080937A0080917A00B0
:101A0000826080937A0080917A00816080937A006E
:101A100080917A00806880937A001092C1002091B2
:101A20000501309106018FEF98E0821B930B909394
:101A30000201809301010E946A010E94DD0B0E9455
:101A40006A01C0E0D0E02097F1F30E940000FBCFD4
:101A50000F931F93CF93DF938230910510F482E0B0
:101A600090E0E091B601F091B70130E020E0B0E005
:101A7000A0E0309799F42115310509F44AC0281BDC
:101A8000390B24303105D8F58A819B8161157105A8
:101A900089F1FB0193838283FE0111C04081518152
:101AA0000281138148175907E0F04817590799F444
:101AB000109761F012960C93129713961C9332961E
:101AC000CF01DF91CF911F910F9108950093B6013F
:101AD0001093B701F4CF2115310551F04217530788
:101AE00038F0A901DB019A01BD01DF01F801C1CF86
:101AF000EF01F9CF9093B7018093B601CDCFFE01EE
:101B0000E20FF31F81939193225031093983288387
:101B1000D7CF2091B4013091B501232B41F420910E
:101B20000301309104013093B5012093B401209159
:101B30000101309102012115310541F42DB73EB765
:101B40004091050150910601241B350BE091B40131
:101B5000F091B501E217F307A0F42E1B3F0B2817F5
:101B6000390778F0AC014E5F5F4F2417350748F016
:101B70004E0F5F1F5093B5014093B4018193919331
:101B80009FCFF0E0E0E09CCFCF93DF930097E9F0A8
:101B9000FC01329713821282A091B601B091B70175
:101BA000ED0130E020E01097A1F420813181820F17
:101BB000931F2091B4013091B5012817390709F01E
:101BC00061C0F093B501E093B401DF91CF91089526
:101BD000EA01CE17DF07E8F54A815B819E014115D6
:101BE0005105B1F7E901FB83EA8349915991C40F8B
:101BF000D51FEC17FD0761F4808191810296840F57
:101C0000951FE90199838883828193819B838A83CD
:101C1000F0E0E0E012968D919C9113970097B9F552
:101C20002D913C911197CD010296820F931F209127
:101C3000B4013091B5012817390739F6309751F5BD
:101C40001092B7011092B601B093B501A093B40100
:101C5000BCCFD383C28340815181840F951FC817A5
:101C6000D90761F44E5F5F4F88819981480F591FF2
:101C7000518340838A819B8193838283211531051F
:101C800009F0B0CFF093B701E093B6019ECFFD010C
:101C9000DC01C0CF13821282D7CFEE0FFF1F059059
:101CA000F491E02D0994FB01DC0102C001900D923A
:101CB00041505040D8F70895DC0101C06D93415068
:0A1CC0005040E0F70895F894FFCFBC
:101CCA00030000B801800049444C4500546D72205D
:101CDA00537663007461736B31007461736B320005
:061CEA007461736B33000E
:00000001FF
