S01100006C65645F626C696E6B2E737265636F
S11300000C9434000C943E000C943E000C943E007E
S11300100C943E000C943E000C943E000C943E0064
S11300200C943E000C943E000C943E000C943E0054
S11300300C943E000C943E000C943E000C943E0044
S11300400C943E000C943E000C943E000C943E0034
S11300500C943E000C943E000C943E000C943E0024
S11300600C943E000C943E0011241FBECFEFD8E048
S1130070DEBFCDBF0E9440000C9473000C940000BE
S1130080CF93DF9300D000D0CDB7DEB784E290E009
S113009024E230E0F90120812062FC01208385E222
S11300A090E025E230E0F901308120E22327FC01D1
S11300B0208319821A821B821C820BC089819A8137
S11300C0AB81BC810196A11DB11D89839A83AB8349
S11300D0BC8389819A81AB81BC8180349D40A340DB
S10D00E0B10560F3DCCFF894FFCF04
S9030000FC
