:100000000C945A010C9482010C9482010C9482018C
:100010000C9482010C9482010C9482010C94820154
:100020000C9482010C9482010C9482010C94820144
:100030000C9482010C9482010C9482010C94820134
:100040000C9463050C9482010C9482010C9482013F
:100050000C9482010C9482010C9482010C94820114
:100060000C9482010C9482010001020408102040CB
:10007000801B36637C777BF26B6FC53001672BFE8C
:10008000D7AB76CA82C97DFA5947F0ADD4A2AF9CEE
:10009000A472C0B7FD9326363FF7CC34A5E5F171C5
:1000A000D8311504C723C31896059A071280E2EBCE
:1000B00027B27509832C1A1B6E5AA0523BD6B3295E
:1000C000E32F8453D100ED20FCB15B6ACBBE394AEB
:1000D0004C58CFD0EFAAFB434D338545F9027F50F2
:1000E0003C9FA851A3408F929D38F5BCB6DA2110F1
:1000F000FFF3D2CD0C13EC5F974417C4A77E3D6489
:100100005D197360814FDC222A908846EEB814DEB8
:100110005E0BDBE0323A0A4906245CC2D3AC629142
:1001200095E479E7C8376D8DD54EA96C56F4EA652C
:100130007AAE08BA78252E1CA6B4C6E8DD741F4B2B
:10014000BD8B8A703EB5664803F60E613557B98699
:10015000C11D9EE1F8981169D98E949B1E87E9CE46
:100160005528DF8CA1890DBFE6426841992D0FB05B
:1001700054BB1652096AD53036A538BF40A39E81BC
:10018000F3D7FB7CE339829B2FFF87348E4344C433
:10019000DEE9CB547B9432A6C2233DEE4C950B4254
:1001A000FAC34E082EA16628D924B2765BA2496D07
:1001B0008BD12572F8F66486689816D4A45CCC5D61
:1001C00065B6926C704850FDEDB9DA5E154657A7DA
:1001D0008D9D8490D8AB008CBCD30AF7E45805B849
:1001E000B34506D02C1E8FCA3F0F02C1AFBD03011D
:1001F000138A6B3A9111414F67DCEA97F2CFCEF048
:10020000B4E67396AC7422E7AD3585E2F937E81CA5
:1002100075DF6E47F11A711D29C5896FB7620EAA85
:1002200018BE1BFC563E4BC6D279209ADBC0FE7826
:10023000CD5AF41FDDA8338807C731B112105927F2
:1002400080EC5F60517FA919B54A0D2DE57A9F9327
:10025000C99CEFA0E03B4DAE2AF5B0C8EBBB3C8398
:10026000539961172B047EBA77D626E1691463553A
:10027000210C7D00000000250028002B000000005C
:1002800000240027002A00040404040404040402D7
:100290000202020202030303030303010204081023
:1002A00020408001020408102001020408102000F0
:1002B0002806350611241FBECFEFD8E0DEBFCDBF24
:1002C00011E0A0E0B1E0ECEEFEE002C005900D927E
:1002D000A234B107D9F722E0A2E4B1E001C01D9237
:1002E000A431B207E1F711E0C9E5D1E004C02197DC
:1002F000FE010E943906C835D107C9F70E94AD0535
:100300000C9469070C940000DC011396ED91FC91AC
:10031000149712968C9190E0019624E0880F991F13
:100320002A95E1F78E0F9F1F108231968E179F0737
:10033000D9F708954F925F926F927F928F929F921A
:10034000AF92BF92CF92DF92EF92FF920F931F93E3
:10035000CF93DF93EC01FB01308181819281238176
:10036000A32FB0E0AD01440F551F7BE1672E659EC2
:10037000702C11247426482E512CA201440F551FB5
:10038000659EB02C1124B426692F70E07B01EE0C21
:10039000FF1C6F9C902C11249E24422F50E08A0158
:1003A000000F111F619E602C112460267D01EE0C50
:1003B000FF1CEE0CFF1C6201CC0CDD1CCC0CDD1C08
:1003C0000D2D1127065C1E4FF80180808C246B01D7
:1003D000CC0CDD1CCC0CDD1C0D2D1127065C1E4F3A
:1003E000F801A080AC246A01CC0CDD1CCC0CDD1C17
:1003F0000D2D1127065C1E4FF801D080DC24E3E0B0
:10040000AA0FBB1FEA95E1F70B2F1127065C1E4FC1
:10041000F80110811A27F201A3E0EE0FFF1FAA9541
:10042000E1F7AF2FBB27A65CBE4FAC91EA2703E0F4
:10043000660F771F0A95E1F7A72FBB27A65CBE4F73
:100440000C916027A3E0440F551FAA95E1F7A52F53
:10045000BB27A65CBE4F0C914027AF2DBB27A65CE7
:10046000BE4F5C91E526E126582F592752275A2581
:100470005E275627542757255B255E255883532F23
:100480005927522758255D2551275E27562754277F
:10049000B526B924B982C32EC8262C25A226AE269D
:1004A000A626A4269A2496249E249A82C926C82485
:1004B000CD24AC2DA127EA270E2F062704270725D8
:1004C00006250B83DF91CF911F910F91FF90EF9045
:1004D000DF90CF90BF90AF909F908F907F906F9064
:1004E0005F904F900895CF93DF93FC01EB0158810B
:1004F000B9819A812B81652F70E0660F771F3BE1F0
:10050000379F802D11246827CB2FD0E0CC0FDD1F23
:100510003D9F402D1124AC2FA427C92FD0E0CC0F34
:10052000DD1F3D9F702D11247C27C22FD0E0CC0F02
:10053000DD1F3D9F302D11243C278B2F89278227DB
:1005400086278A278083452F492742274A2747271E
:1005500041835B2725272727232722839527962753
:1005600093279383DF91CF910895CF93DF93DC019D
:10057000EB01E881F0E0ED58FE4FE491EC93ED855E
:10058000F0E0ED58FE4FE4911196EC931197EA8557
:10059000F0E0ED58FE4FE4911296EC931297EF8144
:1005A000F0E0ED58FE4FE4911396EC931397EC8135
:1005B000F0E0ED58FE4FE4911496EC931497E98126
:1005C000F0E0ED58FE4FE4911596EC931597EE850B
:1005D000F0E0ED58FE4FE4911696EC931697EB85FC
:1005E000F0E0ED58FE4FE4911796EC931797E885ED
:1005F000F0E0ED58FE4FE4911896EC931897ED81DA
:10060000F0E0ED58FE4FE4911996EC931997EA81CA
:10061000F0E0ED58FE4FE4911A96EC931A97EF85AF
:10062000F0E0ED58FE4FE4911B96EC931B97EC85A0
:10063000F0E0ED58FE4FE4911C96EC931C97E98591
:10064000F0E0ED58FE4FE4911D96EC931D97EE817E
:10065000F0E0ED58FE4FE4911E96EC931E97EB816F
:10066000F0E0ED58FE4FE4911F96EC93DF91CF91AF
:1006700008959F92AF92BF92CF92DF92EF92FF9236
:100680000F931F93CF93DF93CDB7DEB7A0970FB62D
:10069000F894DEBF0FBECDBF8C016B01DC0112965A
:1006A000EC90B0E1EB9EC0011124F801E380F480EE
:1006B000E80EF91EFA019701BE016F5F7F4F405FA0
:1006C0005F4F962EA72E8191D9019D919D0189277B
:1006D000DB018D93BD01E417F507A9F7692D7A2D8C
:1006E000CE0141960E94B502F801B2808701005107
:1006F0001109F1E0FB15A8F5DE015196A8018D91D5
:10070000FA019191AF019D01215031098927F90129
:1007100080834E155F0599F7BE016F5E7F4F892D6F
:100720009A2D0E949A01BE016B5E7F4FCE01059605
:100730000E949A01BE01675E7F4FCE0109960E941A
:100740009A01BE01635E7F4FCE010D960E949A0111
:10075000692D7A2DCE0141960E94B502BA94780196
:10076000C5CFAE014F5E5F4FD801C601FA0121919E
:10077000AF013D912327FC012193CF01EA16FB062F
:10078000A9F7A0960FB6F894DEBF0FBECDBFDF91DC
:10079000CF911F910F91FF90EF90DF90CF90BF907E
:1007A000AF909F900895CF93DF93DC01EB01E88138
:1007B000F0E0ED58FF4FE491EC93ED81F0E0ED585F
:1007C000FF4FE4911196EC931197EA85F0E0ED5814
:1007D000FF4FE4911296EC931297EF85F0E0ED58FD
:1007E000FF4FE4911396EC931397EC81F0E0ED58F2
:1007F000FF4FE4911496EC931497E985F0E0ED58DF
:10080000FF4FE4911596EC931597EE85F0E0ED58C7
:10081000FF4FE4911696EC931697EB81F0E0ED58BC
:10082000FF4FE4911796EC931797E885F0E0ED58A9
:10083000FF4FE4911896EC931897ED85F0E0ED5892
:10084000FF4FE4911996EC931997EA81F0E0ED5887
:10085000FF4FE4911A96EC931A97EF81F0E0ED5870
:10086000FF4FE4911B96EC931B97EC85F0E0ED585D
:10087000FF4FE4911C96EC931C97E981F0E0ED5852
:10088000FF4FE4911D96EC931D97EE81F0E0ED583B
:10089000FF4FE4911E96EC931E97EB85F0E0ED5828
:1008A000FF4FE4911F96EC93DF91CF910895BF9293
:1008B000CF92DF92EF92FF920F931F93CF93DF932C
:1008C000CDB7DEB7A0970FB6F894DEBF0FBECDBF91
:1008D0007C016B01DC0113960D911C91FA01A801BA
:1008E000BF01605F7F4F9E012F5F3F4F9191DA0103
:1008F0008D91AD019827D9019D939D01E617F707CA
:10090000A9F7005F1F4FF701B280C80140967C0134
:1009100091E0BE016F5F7F4F9B15A0F5CE01419620
:100920000E94D303BE016F5E7F4FCE0101960E94ED
:100930007302BE016B5E7F4FCE0105960E9473026B
:10094000BE01675E7F4FCE0109960E947302BE0111
:10095000635E7F4FCE010D960E947302F801AE01D7
:100960004F5F5F4FDA018D91AD0191919D01215053
:1009700031098927D9018C93EE15FF0599F78F016D
:10098000BA94C3CFCE0141960E94D303AE014F5E0D
:100990005F4FF801C601DA012D91AD013191232796
:1009A000DC012D93CD01EE16FF06A9F7A0960FB638
:1009B000F894DEBF0FBECDBFDF91CF911F910F9195
:1009C000FF90EF90DF90CF90BF90089580E190E08E
:1009D0000895FC0135968B549F4F10823196E8178D
:1009E000F907D9F708950E946407FF920F931F93A8
:1009F000CF93DF93EC01259620E1FB01DE0101900E
:100A00000D922A95E1F7AC014B555F4FB1E024E020
:100A10008C850881ED8519819E85AA816F857B81F2
:100A2000243009F034C0F0E0ED58FF4F3491EB2F43
:100A3000F0E0E859FF4FF490E92FF0E0ED58FF4F58
:100A40002491E62FF0E0ED58FF4F9491E82FF0E06D
:100A5000ED58FF4F6491E32FEF250E27088BE22F0F
:100A6000E127E98BEA2FE927EA8BE72FE627EB8BD3
:100A7000BF5F20E024962F5F4C175D0709F0C8CFB9
:100A800081E0DF91CF911F910F91FF900895802712
:100A9000888BE127E98BEA2FE927EA8BE72FE62706
:100AA000EB8BE8CF4031510511F40C94F50480E054
:100AB0000895CF93DF93EC010E94E904CE01DF910A
:100AC000CF910C94DB061F920F920FB60F92112458
:100AD0002F933F938F939F93AF93BF9380910C027B
:100AE00090910D02A0910E02B0910F0230910B0275
:100AF00023E0230F2D3758F50196A11DB11D20933A
:100B00000B0280930C0290930D02A0930E02B093FF
:100B10000F028091070290910802A0910902B09102
:100B20000A020196A11DB11D80930702909308024D
:100B3000A0930902B0930A02BF91AF919F918F9148
:100B40003F912F910F900FBE0F901F90189526E8A0
:100B5000230F0296A11DB11DD2CF789484B5826077
:100B600084BD84B5816084BD85B5826085BD85B551
:100B7000816085BD80916E00816080936E001092CF
:100B8000810080918100826080938100809181004A
:100B900081608093810080918000816080938000DB
:100BA0008091B10084608093B1008091B000816039
:100BB0008093B00080917A00846080937A00809165
:100BC0007A00826080937A0080917A0081608093BD
:100BD0007A0080917A00806880937A001092C10038
:100BE00060E071E082E591E00E94F504E8EAF2E05D
:100BF0002491E4E9F2E08491882399F090E0880F51
:100C0000991FFC01E358FD4FA591B491FC01ED58EB
:100C1000FD4F859194918FB7F894EC91E22BEC9372
:100C20008FBFC0E200E010E085B18C2785B985B1A7
:100C30008C2785B940E151E062E471E082E591E002
:100C40000E9457040115110579F30E940000ECCFB2
:100C5000E2E5F1E08AE291E0918380838AE0828399
:100C600087E591E094838383089582E591E00C9475
:100C7000E904EE0FFF1F0590F491E02D09940F9306
:100C80001F93CF93DF938230910510F482E090E0C0
:100C9000E0911202F091130230E020E0B0E0A0E019
:100CA000309799F42115310509F44AC0281B390BF6
:100CB00024303105D8F58A819B816115710589F150
:100CC000FB0193838283FE0111C040815181028127
:100CD000138148175907E0F04817590799F41097FE
:100CE00061F012960C93129713961C933296CF01D3
:100CF000DF91CF911F910F910895009312021093ED
:100D00001302F4CF2115310551F04217530738F083
:100D1000A901DB019A01BD01DF01F801C1CFEF019B
:100D2000F9CF9093130280931202CDCFFE01E20F10
:100D3000F31F819391932250310939832883D7CFB0
:100D40002091100230911102232B41F420912201B5
:100D50003091230130931102209310022091200141
:100D6000309121012115310541F42DB73EB7409155
:100D7000240150912501241B350BE0911002F091C4
:100D80001102E217F307A0F42E1B3F0B28173907B7
:100D900078F0AC014E5F5F4F2417350748F04E0FD7
:100DA0005F1F5093110240931002819391939FCF44
:100DB000F0E0E0E09CCFCF93DF930097E9F0FC01F7
:100DC000329713821282A0911202B0911302ED01A8
:100DD00030E020E01097A1F420813181820F931F31
:100DE00020911002309111022817390709F061C0D3
:100DF000F0931102E0931002DF91CF910895EA0180
:100E0000CE17DF07E8F54A815B819E014115510548
:100E1000B1F7E901FB83EA8349915991C40FD51FCA
:100E2000EC17FD0761F4808191810296840F951F74
:100E3000E90199838883828193819B838A83F0E08F
:100E4000E0E012968D919C9113970097B9F52D9142
:100E50003C911197CD010296820F931F20911002B1
:100E6000309111022817390739F6309751F5109251
:100E7000130210921202B0931102A0931002BCCF81
:100E8000D383C28340815181840F951FC817D9072E
:100E900061F44E5F5F4F88819981480F591F5183DC
:100EA00040838A819B81938382832115310509F0D8
:100EB000B0CFF0931302E09312029ECFFD01DC014C
:100EC000C0CF13821282D7CF81E090E0F8940C94C7
:100ED000690711E0C9E5D1E004C0FE010E943906AE
:0C0EE0002196CA35D107C9F7F894FFCF5E
:100EEC00000102030405060708090A0B0C0D0E0F7E
:100EFC000102030405060708090A0B0C0D0E0F105E
:100F0C0000001402800000000000E9045905E6040A
:100F1C00E6045205570439038401001B362D6C7707
:020F2C005A4128
:00000001FF
